{
  "_format": "hh-sol-artifact-1",
  "contractName": "Marketplace",
  "sourceName": "contracts/Marketplace.sol",
  "abi": [
    {
      "inputs": [],
      "stateMutability": "nonpayable",
      "type": "constructor"
    },
    {
      "anonymous": false,
      "inputs": [
        {
          "indexed": true,
          "internalType": "address",
          "name": "owner",
          "type": "address"
        },
        {
          "indexed": true,
          "internalType": "address",
          "name": "approved",
          "type": "address"
        },
        {
          "indexed": true,
          "internalType": "uint256",
          "name": "tokenId",
          "type": "uint256"
        }
      ],
      "name": "Approval",
      "type": "event"
    },
    {
      "anonymous": false,
      "inputs": [
        {
          "indexed": true,
          "internalType": "address",
          "name": "owner",
          "type": "address"
        },
        {
          "indexed": true,
          "internalType": "address",
          "name": "operator",
          "type": "address"
        },
        {
          "indexed": false,
          "internalType": "bool",
          "name": "approved",
          "type": "bool"
        }
      ],
      "name": "ApprovalForAll",
      "type": "event"
    },
    {
      "anonymous": false,
      "inputs": [
        {
          "indexed": false,
          "internalType": "uint256",
          "name": "_fromTokenId",
          "type": "uint256"
        },
        {
          "indexed": false,
          "internalType": "uint256",
          "name": "_toTokenId",
          "type": "uint256"
        }
      ],
      "name": "BatchMetadataUpdate",
      "type": "event"
    },
    {
      "anonymous": false,
      "inputs": [
        {
          "indexed": true,
          "internalType": "uint256",
          "name": "tokenId",
          "type": "uint256"
        },
        {
          "indexed": false,
          "internalType": "address",
          "name": "owner",
          "type": "address"
        },
        {
          "indexed": false,
          "internalType": "uint96",
          "name": "price",
          "type": "uint96"
        }
      ],
      "name": "ItemListed",
      "type": "event"
    },
    {
      "anonymous": false,
      "inputs": [
        {
          "indexed": true,
          "internalType": "uint256",
          "name": "tokenId",
          "type": "uint256"
        },
        {
          "indexed": false,
          "internalType": "address",
          "name": "buyer",
          "type": "address"
        }
      ],
      "name": "ItemSold",
      "type": "event"
    },
    {
      "anonymous": false,
      "inputs": [
        {
          "indexed": false,
          "internalType": "uint256",
          "name": "_tokenId",
          "type": "uint256"
        }
      ],
      "name": "MetadataUpdate",
      "type": "event"
    },
    {
      "anonymous": false,
      "inputs": [
        {
          "indexed": true,
          "internalType": "address",
          "name": "previousOwner",
          "type": "address"
        },
        {
          "indexed": true,
          "internalType": "address",
          "name": "newOwner",
          "type": "address"
        }
      ],
      "name": "OwnershipTransferred",
      "type": "event"
    },
    {
      "anonymous": false,
      "inputs": [
        {
          "indexed": true,
          "internalType": "address",
          "name": "from",
          "type": "address"
        },
        {
          "indexed": true,
          "internalType": "address",
          "name": "to",
          "type": "address"
        },
        {
          "indexed": true,
          "internalType": "uint256",
          "name": "tokenId",
          "type": "uint256"
        }
      ],
      "name": "Transfer",
      "type": "event"
    },
    {
      "inputs": [
        {
          "internalType": "address",
          "name": "to",
          "type": "address"
        },
        {
          "internalType": "uint256",
          "name": "tokenId",
          "type": "uint256"
        }
      ],
      "name": "approve",
      "outputs": [],
      "stateMutability": "nonpayable",
      "type": "function"
    },
    {
      "inputs": [
        {
          "internalType": "address",
          "name": "owner",
          "type": "address"
        }
      ],
      "name": "balanceOf",
      "outputs": [
        {
          "internalType": "uint256",
          "name": "",
          "type": "uint256"
        }
      ],
      "stateMutability": "view",
      "type": "function"
    },
    {
      "inputs": [
        {
          "internalType": "uint256",
          "name": "tokenId",
          "type": "uint256"
        }
      ],
      "name": "buy",
      "outputs": [],
      "stateMutability": "payable",
      "type": "function"
    },
    {
      "inputs": [
        {
          "internalType": "uint256",
          "name": "tokenId",
          "type": "uint256"
        }
      ],
      "name": "getApproved",
      "outputs": [
        {
          "internalType": "address",
          "name": "",
          "type": "address"
        }
      ],
      "stateMutability": "view",
      "type": "function"
    },
    {
      "inputs": [
        {
          "internalType": "uint256",
          "name": "tokenId",
          "type": "uint256"
        }
      ],
      "name": "getListing",
      "outputs": [
        {
          "internalType": "address",
          "name": "",
          "type": "address"
        },
        {
          "internalType": "uint96",
          "name": "",
          "type": "uint96"
        },
        {
          "internalType": "bool",
          "name": "",
          "type": "bool"
        }
      ],
      "stateMutability": "view",
      "type": "function"
    },
    {
      "inputs": [
        {
          "internalType": "address",
          "name": "owner",
          "type": "address"
        },
        {
          "internalType": "address",
          "name": "operator",
          "type": "address"
        }
      ],
      "name": "isApprovedForAll",
      "outputs": [
        {
          "internalType": "bool",
          "name": "",
          "type": "bool"
        }
      ],
      "stateMutability": "view",
      "type": "function"
    },
    {
      "inputs": [
        {
          "internalType": "uint256",
          "name": "",
          "type": "uint256"
        }
      ],
      "name": "listings",
      "outputs": [
        {
          "internalType": "address",
          "name": "owner",
          "type": "address"
        },
        {
          "internalType": "uint96",
          "name": "price",
          "type": "uint96"
        },
        {
          "internalType": "bool",
          "name": "isSold",
          "type": "bool"
        }
      ],
      "stateMutability": "view",
      "type": "function"
    },
    {
      "inputs": [
        {
          "internalType": "string",
          "name": "_uri",
          "type": "string"
        },
        {
          "internalType": "uint96",
          "name": "_price",
          "type": "uint96"
        }
      ],
      "name": "mintAndList",
      "outputs": [],
      "stateMutability": "nonpayable",
      "type": "function"
    },
    {
      "inputs": [],
      "name": "name",
      "outputs": [
        {
          "internalType": "string",
          "name": "",
          "type": "string"
        }
      ],
      "stateMutability": "view",
      "type": "function"
    },
    {
      "inputs": [],
      "name": "nextTokenId",
      "outputs": [
        {
          "internalType": "uint256",
          "name": "",
          "type": "uint256"
        }
      ],
      "stateMutability": "view",
      "type": "function"
    },
    {
      "inputs": [],
      "name": "owner",
      "outputs": [
        {
          "internalType": "address",
          "name": "",
          "type": "address"
        }
      ],
      "stateMutability": "view",
      "type": "function"
    },
    {
      "inputs": [
        {
          "internalType": "uint256",
          "name": "tokenId",
          "type": "uint256"
        }
      ],
      "name": "ownerOf",
      "outputs": [
        {
          "internalType": "address",
          "name": "",
          "type": "address"
        }
      ],
      "stateMutability": "view",
      "type": "function"
    },
    {
      "inputs": [],
      "name": "renounceOwnership",
      "outputs": [],
      "stateMutability": "nonpayable",
      "type": "function"
    },
    {
      "inputs": [
        {
          "internalType": "address",
          "name": "from",
          "type": "address"
        },
        {
          "internalType": "address",
          "name": "to",
          "type": "address"
        },
        {
          "internalType": "uint256",
          "name": "tokenId",
          "type": "uint256"
        }
      ],
      "name": "safeTransferFrom",
      "outputs": [],
      "stateMutability": "nonpayable",
      "type": "function"
    },
    {
      "inputs": [
        {
          "internalType": "address",
          "name": "from",
          "type": "address"
        },
        {
          "internalType": "address",
          "name": "to",
          "type": "address"
        },
        {
          "internalType": "uint256",
          "name": "tokenId",
          "type": "uint256"
        },
        {
          "internalType": "bytes",
          "name": "data",
          "type": "bytes"
        }
      ],
      "name": "safeTransferFrom",
      "outputs": [],
      "stateMutability": "nonpayable",
      "type": "function"
    },
    {
      "inputs": [
        {
          "internalType": "address",
          "name": "operator",
          "type": "address"
        },
        {
          "internalType": "bool",
          "name": "approved",
          "type": "bool"
        }
      ],
      "name": "setApprovalForAll",
      "outputs": [],
      "stateMutability": "nonpayable",
      "type": "function"
    },
    {
      "inputs": [
        {
          "internalType": "bytes4",
          "name": "interfaceId",
          "type": "bytes4"
        }
      ],
      "name": "supportsInterface",
      "outputs": [
        {
          "internalType": "bool",
          "name": "",
          "type": "bool"
        }
      ],
      "stateMutability": "view",
      "type": "function"
    },
    {
      "inputs": [],
      "name": "symbol",
      "outputs": [
        {
          "internalType": "string",
          "name": "",
          "type": "string"
        }
      ],
      "stateMutability": "view",
      "type": "function"
    },
    {
      "inputs": [
        {
          "internalType": "uint256",
          "name": "tokenId",
          "type": "uint256"
        }
      ],
      "name": "tokenURI",
      "outputs": [
        {
          "internalType": "string",
          "name": "",
          "type": "string"
        }
      ],
      "stateMutability": "view",
      "type": "function"
    },
    {
      "inputs": [
        {
          "internalType": "address",
          "name": "from",
          "type": "address"
        },
        {
          "internalType": "address",
          "name": "to",
          "type": "address"
        },
        {
          "internalType": "uint256",
          "name": "tokenId",
          "type": "uint256"
        }
      ],
      "name": "transferFrom",
      "outputs": [],
      "stateMutability": "nonpayable",
      "type": "function"
    },
    {
      "inputs": [
        {
          "internalType": "address",
          "name": "newOwner",
          "type": "address"
        }
      ],
      "name": "transferOwnership",
      "outputs": [],
      "stateMutability": "nonpayable",
      "type": "function"
    },
    {
      "inputs": [],
      "name": "withdraw",
      "outputs": [],
      "stateMutability": "nonpayable",
      "type": "function"
    }
  ],
  "bytecode": "0x608060405234801561001057600080fd5b506040518060400160405280600f81526020017f4e4654204d61726b6574706c61636500000000000000000000000000000000008152506040518060400160405280600481526020017f4e46544d00000000000000000000000000000000000000000000000000000000815250816000908161008c91906103de565b50806001908161009c91906103de565b5050506100bb6100b06100c060201b60201c565b6100c860201b60201c565b6104b0565b600033905090565b6000600760009054906101000a900473ffffffffffffffffffffffffffffffffffffffff16905081600760006101000a81548173ffffffffffffffffffffffffffffffffffffffff021916908373ffffffffffffffffffffffffffffffffffffffff1602179055508173ffffffffffffffffffffffffffffffffffffffff168173ffffffffffffffffffffffffffffffffffffffff167f8be0079c531659141344cd1fd0a4f28419497f9722a3daafe3b4186f6b6457e060405160405180910390a35050565b600081519050919050565b7f4e487b7100000000000000000000000000000000000000000000000000000000600052604160045260246000fd5b7f4e487b7100000000000000000000000000000000000000000000000000000000600052602260045260246000fd5b6000600282049050600182168061020f57607f821691505b602082108103610222576102216101c8565b5b50919050565b60008190508160005260206000209050919050565b60006020601f8301049050919050565b600082821b905092915050565b60006008830261028a7fffffffffffffffffffffffffffffffffffffffffffffffffffffffffffffffff8261024d565b610294868361024d565b95508019841693508086168417925050509392505050565b6000819050919050565b6000819050919050565b60006102db6102d66102d1846102ac565b6102b6565b6102ac565b9050919050565b6000819050919050565b6102f5836102c0565b610309610301826102e2565b84845461025a565b825550505050565b600090565b61031e610311565b6103298184846102ec565b505050565b5b8181101561034d57610342600082610316565b60018101905061032f565b5050565b601f8211156103925761036381610228565b61036c8461023d565b8101602085101561037b578190505b61038f6103878561023d565b83018261032e565b50505b505050565b600082821c905092915050565b60006103b560001984600802610397565b1980831691505092915050565b60006103ce83836103a4565b9150826002028217905092915050565b6103e78261018e565b67ffffffffffffffff811115610400576103ff610199565b5b61040a82546101f7565b610415828285610351565b600060209050601f8311600181146104485760008415610436578287015190505b61044085826103c2565b8655506104a8565b601f19841661045686610228565b60005b8281101561047e57848901518255600182019150602085019450602081019050610459565b8683101561049b5784890151610497601f8916826103a4565b8355505b6001600288020188555050505b505050505050565b6137a6806104bf6000396000f3fe6080604052600436106101355760003560e01c806372623274116100ab578063b88d4fde1161006f578063b88d4fde14610414578063c87b56dd1461043d578063d96a094a1461047a578063de74e57b14610496578063e985e9c5146104d5578063f2fde38b1461051257610135565b8063726232741461034157806375794a3c1461036a5780638da5cb5b1461039557806395d89b41146103c0578063a22cb465146103eb57610135565b806323b872dd116100fd57806323b872dd146102475780633ccfd60b1461027057806342842e0e146102875780636352211e146102b057806370a08231146102ed578063715018a61461032a57610135565b806301ffc9a71461013a57806306fdde0314610177578063081812fc146101a2578063095ea7b3146101df578063107a274a14610208575b600080fd5b34801561014657600080fd5b50610161600480360381019061015c9190612329565b61053b565b60405161016e9190612371565b60405180910390f35b34801561018357600080fd5b5061018c61059c565b604051610199919061241c565b60405180910390f35b3480156101ae57600080fd5b506101c960048036038101906101c49190612474565b61062e565b6040516101d691906124e2565b60405180910390f35b3480156101eb57600080fd5b5061020660048036038101906102019190612529565b610674565b005b34801561021457600080fd5b5061022f600480360381019061022a9190612474565b61078b565b60405161023e93929190612590565b60405180910390f35b34801561025357600080fd5b5061026e600480360381019061026991906125c7565b61087d565b005b34801561027c57600080fd5b506102856108dd565b005b34801561029357600080fd5b506102ae60048036038101906102a991906125c7565b610935565b005b3480156102bc57600080fd5b506102d760048036038101906102d29190612474565b610955565b6040516102e491906124e2565b60405180910390f35b3480156102f957600080fd5b50610314600480360381019061030f919061261a565b6109db565b6040516103219190612656565b60405180910390f35b34801561033657600080fd5b5061033f610a92565b005b34801561034d57600080fd5b50610368600480360381019061036391906127d2565b610aa6565b005b34801561037657600080fd5b5061037f610c08565b60405161038c9190612656565b60405180910390f35b3480156103a157600080fd5b506103aa610c0e565b6040516103b791906124e2565b60405180910390f35b3480156103cc57600080fd5b506103d5610c38565b6040516103e2919061241c565b60405180910390f35b3480156103f757600080fd5b50610412600480360381019061040d919061285a565b610cca565b005b34801561042057600080fd5b5061043b6004803603810190610436919061293b565b610ce0565b005b34801561044957600080fd5b50610464600480360381019061045f9190612474565b610d42565b604051610471919061241c565b60405180910390f35b610494600480360381019061048f9190612474565b610e54565b005b3480156104a257600080fd5b506104bd60048036038101906104b89190612474565b6110b0565b6040516104cc93929190612590565b60405180910390f35b3480156104e157600080fd5b506104fc60048036038101906104f791906129be565b61111f565b6040516105099190612371565b60405180910390f35b34801561051e57600080fd5b506105396004803603810190610534919061261a565b6111b3565b005b6000634906490660e01b7bffffffffffffffffffffffffffffffffffffffffffffffffffffffff1916827bffffffffffffffffffffffffffffffffffffffffffffffffffffffff19161480610595575061059482611236565b5b9050919050565b6060600080546105ab90612a2d565b80601f01602080910402602001604051908101604052809291908181526020018280546105d790612a2d565b80156106245780601f106105f957610100808354040283529160200191610624565b820191906000526020600020905b81548152906001019060200180831161060757829003601f168201915b5050505050905090565b600061063982611318565b6004600083815260200190815260200160002060009054906101000a900473ffffffffffffffffffffffffffffffffffffffff169050919050565b600061067f82610955565b90508073ffffffffffffffffffffffffffffffffffffffff168373ffffffffffffffffffffffffffffffffffffffff16036106ef576040517f08c379a00000000000000000000000000000000000000000000000000000000081526004016106e690612ad0565b60405180910390fd5b8073ffffffffffffffffffffffffffffffffffffffff1661070e611363565b73ffffffffffffffffffffffffffffffffffffffff16148061073d575061073c81610737611363565b61111f565b5b61077c576040517f08c379a000000000000000000000000000000000000000000000000000000000815260040161077390612b62565b60405180910390fd5b610786838361136b565b505050565b600080600080600960008681526020019081526020016000206040518060600160405290816000820160009054906101000a900473ffffffffffffffffffffffffffffffffffffffff1673ffffffffffffffffffffffffffffffffffffffff1673ffffffffffffffffffffffffffffffffffffffff1681526020016000820160149054906101000a90046bffffffffffffffffffffffff166bffffffffffffffffffffffff166bffffffffffffffffffffffff1681526020016001820160009054906101000a900460ff1615151515815250509050806000015181602001518260400151935093509350509193909250565b61088e610888611363565b82611424565b6108cd576040517f08c379a00000000000000000000000000000000000000000000000000000000081526004016108c490612bf4565b60405180910390fd5b6108d88383836114b9565b505050565b6108e56117b2565b6108ed610c0e565b73ffffffffffffffffffffffffffffffffffffffff166108fc479081150290604051600060405180830381858888f19350505050158015610932573d6000803e3d6000fd5b50565b61095083838360405180602001604052806000815250610ce0565b505050565b60008061096183611830565b9050600073ffffffffffffffffffffffffffffffffffffffff168173ffffffffffffffffffffffffffffffffffffffff16036109d2576040517f08c379a00000000000000000000000000000000000000000000000000000000081526004016109c990612c60565b60405180910390fd5b80915050919050565b60008073ffffffffffffffffffffffffffffffffffffffff168273ffffffffffffffffffffffffffffffffffffffff1603610a4b576040517f08c379a0000000000000000000000000000000000000000000000000000000008152600401610a4290612cf2565b60405180910390fd5b600360008373ffffffffffffffffffffffffffffffffffffffff1673ffffffffffffffffffffffffffffffffffffffff168152602001908152602001600020549050919050565b610a9a6117b2565b610aa4600061186d565b565b6000600860008154610ab790612d41565b9190508190559050610ac93382611933565b610ad38184611b50565b60405180606001604052803373ffffffffffffffffffffffffffffffffffffffff168152602001836bffffffffffffffffffffffff168152602001600015158152506009600083815260200190815260200160002060008201518160000160006101000a81548173ffffffffffffffffffffffffffffffffffffffff021916908373ffffffffffffffffffffffffffffffffffffffff16021790555060208201518160000160146101000a8154816bffffffffffffffffffffffff02191690836bffffffffffffffffffffffff16021790555060408201518160010160006101000a81548160ff021916908315150217905550905050807f74853d0857487d8ab8813c4ff8c6740981eaa76fc83634f27c8f6b51d90b79d03384604051610bfb929190612d89565b60405180910390a2505050565b60085481565b6000600760009054906101000a900473ffffffffffffffffffffffffffffffffffffffff16905090565b606060018054610c4790612a2d565b80601f0160208091040260200160405190810160405280929190818152602001828054610c7390612a2d565b8015610cc05780601f10610c9557610100808354040283529160200191610cc0565b820191906000526020600020905b815481529060010190602001808311610ca357829003601f168201915b5050505050905090565b610cdc610cd5611363565b8383611bf4565b5050565b610cf1610ceb611363565b83611424565b610d30576040517f08c379a0000000000000000000000000000000000000000000000000000000008152600401610d2790612bf4565b60405180910390fd5b610d3c84848484611d60565b50505050565b6060610d4d82611318565b6000600660008481526020019081526020016000208054610d6d90612a2d565b80601f0160208091040260200160405190810160405280929190818152602001828054610d9990612a2d565b8015610de65780601f10610dbb57610100808354040283529160200191610de6565b820191906000526020600020905b815481529060010190602001808311610dc957829003601f168201915b505050505090506000610df7611dbc565b90506000815103610e0c578192505050610e4f565b600082511115610e41578082604051602001610e29929190612dee565b60405160208183030381529060405292505050610e4f565b610e4a84611dd3565b925050505b919050565b60006009600083815260200190815260200160002090508060010160009054906101000a900460ff1615610ebd576040517f08c379a0000000000000000000000000000000000000000000000000000000008152600401610eb490612e5e565b60405180910390fd5b8060000160149054906101000a90046bffffffffffffffffffffffff166bffffffffffffffffffffffff16341015610f2a576040517f08c379a0000000000000000000000000000000000000000000000000000000008152600401610f2190612eca565b60405180910390fd5b600073ffffffffffffffffffffffffffffffffffffffff168160000160009054906101000a900473ffffffffffffffffffffffffffffffffffffffff1673ffffffffffffffffffffffffffffffffffffffff1603610fbd576040517f08c379a0000000000000000000000000000000000000000000000000000000008152600401610fb490612f36565b60405180910390fd5b60018160010160006101000a81548160ff0219169083151502179055506110098160000160009054906101000a900473ffffffffffffffffffffffffffffffffffffffff1633846114b9565b8060000160009054906101000a900473ffffffffffffffffffffffffffffffffffffffff1673ffffffffffffffffffffffffffffffffffffffff166108fc349081150290604051600060405180830381858888f19350505050158015611073573d6000803e3d6000fd5b50817f7de4035ced290be6d7724645d43bad448b5d8cc76743ff4da172c2d8e1caa0f5336040516110a491906124e2565b60405180910390a25050565b60096020528060005260406000206000915090508060000160009054906101000a900473ffffffffffffffffffffffffffffffffffffffff16908060000160149054906101000a90046bffffffffffffffffffffffff16908060010160009054906101000a900460ff16905083565b6000600560008473ffffffffffffffffffffffffffffffffffffffff1673ffffffffffffffffffffffffffffffffffffffff16815260200190815260200160002060008373ffffffffffffffffffffffffffffffffffffffff1673ffffffffffffffffffffffffffffffffffffffff16815260200190815260200160002060009054906101000a900460ff16905092915050565b6111bb6117b2565b600073ffffffffffffffffffffffffffffffffffffffff168173ffffffffffffffffffffffffffffffffffffffff160361122a576040517f08c379a000000000000000000000000000000000000000000000000000000000815260040161122190612fc8565b60405180910390fd5b6112338161186d565b50565b60007f80ac58cd000000000000000000000000000000000000000000000000000000007bffffffffffffffffffffffffffffffffffffffffffffffffffffffff1916827bffffffffffffffffffffffffffffffffffffffffffffffffffffffff1916148061130157507f5b5e139f000000000000000000000000000000000000000000000000000000007bffffffffffffffffffffffffffffffffffffffffffffffffffffffff1916827bffffffffffffffffffffffffffffffffffffffffffffffffffffffff1916145b80611311575061131082611e3b565b5b9050919050565b61132181611ea5565b611360576040517f08c379a000000000000000000000000000000000000000000000000000000000815260040161135790612c60565b60405180910390fd5b50565b600033905090565b816004600083815260200190815260200160002060006101000a81548173ffffffffffffffffffffffffffffffffffffffff021916908373ffffffffffffffffffffffffffffffffffffffff160217905550808273ffffffffffffffffffffffffffffffffffffffff166113de83610955565b73ffffffffffffffffffffffffffffffffffffffff167f8c5be1e5ebec7d5bd14f71427d1e84f3dd0314c0f7b2291e5b200ac8c7c3b92560405160405180910390a45050565b60008061143083610955565b90508073ffffffffffffffffffffffffffffffffffffffff168473ffffffffffffffffffffffffffffffffffffffff1614806114725750611471818561111f565b5b806114b057508373ffffffffffffffffffffffffffffffffffffffff166114988461062e565b73ffffffffffffffffffffffffffffffffffffffff16145b91505092915050565b8273ffffffffffffffffffffffffffffffffffffffff166114d982610955565b73ffffffffffffffffffffffffffffffffffffffff161461152f576040517f08c379a00000000000000000000000000000000000000000000000000000000081526004016115269061305a565b60405180910390fd5b600073ffffffffffffffffffffffffffffffffffffffff168273ffffffffffffffffffffffffffffffffffffffff160361159e576040517f08c379a0000000000000000000000000000000000000000000000000000000008152600401611595906130ec565b60405180910390fd5b6115ab8383836001611ee6565b8273ffffffffffffffffffffffffffffffffffffffff166115cb82610955565b73ffffffffffffffffffffffffffffffffffffffff1614611621576040517f08c379a00000000000000000000000000000000000000000000000000000000081526004016116189061305a565b60405180910390fd5b6004600082815260200190815260200160002060006101000a81549073ffffffffffffffffffffffffffffffffffffffff02191690556001600360008573ffffffffffffffffffffffffffffffffffffffff1673ffffffffffffffffffffffffffffffffffffffff168152602001908152602001600020600082825403925050819055506001600360008473ffffffffffffffffffffffffffffffffffffffff1673ffffffffffffffffffffffffffffffffffffffff16815260200190815260200160002060008282540192505081905550816002600083815260200190815260200160002060006101000a81548173ffffffffffffffffffffffffffffffffffffffff021916908373ffffffffffffffffffffffffffffffffffffffff160217905550808273ffffffffffffffffffffffffffffffffffffffff168473ffffffffffffffffffffffffffffffffffffffff167fddf252ad1be2c89b69c2b068fc378daa952ba7f163c4a11628f55a4df523b3ef60405160405180910390a46117ad8383836001611eec565b505050565b6117ba611363565b73ffffffffffffffffffffffffffffffffffffffff166117d8610c0e565b73ffffffffffffffffffffffffffffffffffffffff161461182e576040517f08c379a000000000000000000000000000000000000000000000000000000000815260040161182590613158565b60405180910390fd5b565b60006002600083815260200190815260200160002060009054906101000a900473ffffffffffffffffffffffffffffffffffffffff169050919050565b6000600760009054906101000a900473ffffffffffffffffffffffffffffffffffffffff16905081600760006101000a81548173ffffffffffffffffffffffffffffffffffffffff021916908373ffffffffffffffffffffffffffffffffffffffff1602179055508173ffffffffffffffffffffffffffffffffffffffff168173ffffffffffffffffffffffffffffffffffffffff167f8be0079c531659141344cd1fd0a4f28419497f9722a3daafe3b4186f6b6457e060405160405180910390a35050565b600073ffffffffffffffffffffffffffffffffffffffff168273ffffffffffffffffffffffffffffffffffffffff16036119a2576040517f08c379a0000000000000000000000000000000000000000000000000000000008152600401611999906131c4565b60405180910390fd5b6119ab81611ea5565b156119eb576040517f08c379a00000000000000000000000000000000000000000000000000000000081526004016119e290613230565b60405180910390fd5b6119f9600083836001611ee6565b611a0281611ea5565b15611a42576040517f08c379a0000000000000000000000000000000000000000000000000000000008152600401611a3990613230565b60405180910390fd5b6001600360008473ffffffffffffffffffffffffffffffffffffffff1673ffffffffffffffffffffffffffffffffffffffff16815260200190815260200160002060008282540192505081905550816002600083815260200190815260200160002060006101000a81548173ffffffffffffffffffffffffffffffffffffffff021916908373ffffffffffffffffffffffffffffffffffffffff160217905550808273ffffffffffffffffffffffffffffffffffffffff16600073ffffffffffffffffffffffffffffffffffffffff167fddf252ad1be2c89b69c2b068fc378daa952ba7f163c4a11628f55a4df523b3ef60405160405180910390a4611b4c600083836001611eec565b5050565b611b5982611ea5565b611b98576040517f08c379a0000000000000000000000000000000000000000000000000000000008152600401611b8f906132c2565b60405180910390fd5b80600660008481526020019081526020016000209081611bb8919061348e565b507ff8e1a15aba9398e019f0b49df1a4fde98ee17ae345cb5f6b5e2c27f5033e8ce782604051611be89190612656565b60405180910390a15050565b8173ffffffffffffffffffffffffffffffffffffffff168373ffffffffffffffffffffffffffffffffffffffff1603611c62576040517f08c379a0000000000000000000000000000000000000000000000000000000008152600401611c59906135ac565b60405180910390fd5b80600560008573ffffffffffffffffffffffffffffffffffffffff1673ffffffffffffffffffffffffffffffffffffffff16815260200190815260200160002060008473ffffffffffffffffffffffffffffffffffffffff1673ffffffffffffffffffffffffffffffffffffffff16815260200190815260200160002060006101000a81548160ff0219169083151502179055508173ffffffffffffffffffffffffffffffffffffffff168373ffffffffffffffffffffffffffffffffffffffff167f17307eab39ab6107e8899845ad3d59bd9653f200f220920489ca2b5937696c3183604051611d539190612371565b60405180910390a3505050565b611d6b8484846114b9565b611d7784848484611ef2565b611db6576040517f08c379a0000000000000000000000000000000000000000000000000000000008152600401611dad9061363e565b60405180910390fd5b50505050565b606060405180602001604052806000815250905090565b6060611dde82611318565b6000611de8611dbc565b90506000815111611e085760405180602001604052806000815250611e33565b80611e1284612079565b604051602001611e23929190612dee565b6040516020818303038152906040525b915050919050565b60007f01ffc9a7000000000000000000000000000000000000000000000000000000007bffffffffffffffffffffffffffffffffffffffffffffffffffffffff1916827bffffffffffffffffffffffffffffffffffffffffffffffffffffffff1916149050919050565b60008073ffffffffffffffffffffffffffffffffffffffff16611ec783611830565b73ffffffffffffffffffffffffffffffffffffffff1614159050919050565b50505050565b50505050565b6000611f138473ffffffffffffffffffffffffffffffffffffffff16612147565b1561206c578373ffffffffffffffffffffffffffffffffffffffff1663150b7a02611f3c611363565b8786866040518563ffffffff1660e01b8152600401611f5e94939291906136b3565b6020604051808303816000875af1925050508015611f9a57506040513d601f19601f82011682018060405250810190611f979190613714565b60015b61201c573d8060008114611fca576040519150601f19603f3d011682016040523d82523d6000602084013e611fcf565b606091505b506000815103612014576040517f08c379a000000000000000000000000000000000000000000000000000000000815260040161200b9061363e565b60405180910390fd5b805181602001fd5b63150b7a0260e01b7bffffffffffffffffffffffffffffffffffffffffffffffffffffffff1916817bffffffffffffffffffffffffffffffffffffffffffffffffffffffff191614915050612071565b600190505b949350505050565b6060600060016120888461216a565b01905060008167ffffffffffffffff8111156120a7576120a661267b565b5b6040519080825280601f01601f1916602001820160405280156120d95781602001600182028036833780820191505090505b509050600082602001820190505b60011561213c578080600190039150507f3031323334353637383961626364656600000000000000000000000000000000600a86061a8153600a85816121305761212f613741565b5b049450600085036120e7575b819350505050919050565b6000808273ffffffffffffffffffffffffffffffffffffffff163b119050919050565b600080600090507a184f03e93ff9f4daa797ed6e38ed64bf6a1f01000000000000000083106121c8577a184f03e93ff9f4daa797ed6e38ed64bf6a1f01000000000000000083816121be576121bd613741565b5b0492506040810190505b6d04ee2d6d415b85acef81000000008310612205576d04ee2d6d415b85acef810000000083816121fb576121fa613741565b5b0492506020810190505b662386f26fc10000831061223457662386f26fc10000838161222a57612229613741565b5b0492506010810190505b6305f5e100831061225d576305f5e100838161225357612252613741565b5b0492506008810190505b612710831061228257612710838161227857612277613741565b5b0492506004810190505b606483106122a5576064838161229b5761229a613741565b5b0492506002810190505b600a83106122b4576001810190505b80915050919050565b6000604051905090565b600080fd5b600080fd5b60007fffffffff0000000000000000000000000000000000000000000000000000000082169050919050565b612306816122d1565b811461231157600080fd5b50565b600081359050612323816122fd565b92915050565b60006020828403121561233f5761233e6122c7565b5b600061234d84828501612314565b91505092915050565b60008115159050919050565b61236b81612356565b82525050565b60006020820190506123866000830184612362565b92915050565b600081519050919050565b600082825260208201905092915050565b60005b838110156123c65780820151818401526020810190506123ab565b60008484015250505050565b6000601f19601f8301169050919050565b60006123ee8261238c565b6123f88185612397565b93506124088185602086016123a8565b612411816123d2565b840191505092915050565b6000602082019050818103600083015261243681846123e3565b905092915050565b6000819050919050565b6124518161243e565b811461245c57600080fd5b50565b60008135905061246e81612448565b92915050565b60006020828403121561248a576124896122c7565b5b60006124988482850161245f565b91505092915050565b600073ffffffffffffffffffffffffffffffffffffffff82169050919050565b60006124cc826124a1565b9050919050565b6124dc816124c1565b82525050565b60006020820190506124f760008301846124d3565b92915050565b612506816124c1565b811461251157600080fd5b50565b600081359050612523816124fd565b92915050565b600080604083850312156125405761253f6122c7565b5b600061254e85828601612514565b925050602061255f8582860161245f565b9150509250929050565b60006bffffffffffffffffffffffff82169050919050565b61258a81612569565b82525050565b60006060820190506125a560008301866124d3565b6125b26020830185612581565b6125bf6040830184612362565b949350505050565b6000806000606084860312156125e0576125df6122c7565b5b60006125ee86828701612514565b93505060206125ff86828701612514565b92505060406126108682870161245f565b9150509250925092565b6000602082840312156126305761262f6122c7565b5b600061263e84828501612514565b91505092915050565b6126508161243e565b82525050565b600060208201905061266b6000830184612647565b92915050565b600080fd5b600080fd5b7f4e487b7100000000000000000000000000000000000000000000000000000000600052604160045260246000fd5b6126b3826123d2565b810181811067ffffffffffffffff821117156126d2576126d161267b565b5b80604052505050565b60006126e56122bd565b90506126f182826126aa565b919050565b600067ffffffffffffffff8211156127115761271061267b565b5b61271a826123d2565b9050602081019050919050565b82818337600083830152505050565b6000612749612744846126f6565b6126db565b90508281526020810184848401111561276557612764612676565b5b612770848285612727565b509392505050565b600082601f83011261278d5761278c612671565b5b813561279d848260208601612736565b91505092915050565b6127af81612569565b81146127ba57600080fd5b50565b6000813590506127cc816127a6565b92915050565b600080604083850312156127e9576127e86122c7565b5b600083013567ffffffffffffffff811115612807576128066122cc565b5b61281385828601612778565b9250506020612824858286016127bd565b9150509250929050565b61283781612356565b811461284257600080fd5b50565b6000813590506128548161282e565b92915050565b60008060408385031215612871576128706122c7565b5b600061287f85828601612514565b925050602061289085828601612845565b9150509250929050565b600067ffffffffffffffff8211156128b5576128b461267b565b5b6128be826123d2565b9050602081019050919050565b60006128de6128d98461289a565b6126db565b9050828152602081018484840111156128fa576128f9612676565b5b612905848285612727565b509392505050565b600082601f83011261292257612921612671565b5b81356129328482602086016128cb565b91505092915050565b60008060008060808587031215612955576129546122c7565b5b600061296387828801612514565b945050602061297487828801612514565b93505060406129858782880161245f565b925050606085013567ffffffffffffffff8111156129a6576129a56122cc565b5b6129b28782880161290d565b91505092959194509250565b600080604083850312156129d5576129d46122c7565b5b60006129e385828601612514565b92505060206129f485828601612514565b9150509250929050565b7f4e487b7100000000000000000000000000000000000000000000000000000000600052602260045260246000fd5b60006002820490506001821680612a4557607f821691505b602082108103612a5857612a576129fe565b5b50919050565b7f4552433732313a20617070726f76616c20746f2063757272656e74206f776e6560008201527f7200000000000000000000000000000000000000000000000000000000000000602082015250565b6000612aba602183612397565b9150612ac582612a5e565b604082019050919050565b60006020820190508181036000830152612ae981612aad565b9050919050565b7f4552433732313a20617070726f76652063616c6c6572206973206e6f7420746f60008201527f6b656e206f776e6572206f7220617070726f76656420666f7220616c6c000000602082015250565b6000612b4c603d83612397565b9150612b5782612af0565b604082019050919050565b60006020820190508181036000830152612b7b81612b3f565b9050919050565b7f4552433732313a2063616c6c6572206973206e6f7420746f6b656e206f776e6560008201527f72206f7220617070726f76656400000000000000000000000000000000000000602082015250565b6000612bde602d83612397565b9150612be982612b82565b604082019050919050565b60006020820190508181036000830152612c0d81612bd1565b9050919050565b7f4552433732313a20696e76616c696420746f6b656e2049440000000000000000600082015250565b6000612c4a601883612397565b9150612c5582612c14565b602082019050919050565b60006020820190508181036000830152612c7981612c3d565b9050919050565b7f4552433732313a2061646472657373207a65726f206973206e6f74206120766160008201527f6c6964206f776e65720000000000000000000000000000000000000000000000602082015250565b6000612cdc602983612397565b9150612ce782612c80565b604082019050919050565b60006020820190508181036000830152612d0b81612ccf565b9050919050565b7f4e487b7100000000000000000000000000000000000000000000000000000000600052601160045260246000fd5b6000612d4c8261243e565b91507fffffffffffffffffffffffffffffffffffffffffffffffffffffffffffffffff8203612d7e57612d7d612d12565b5b600182019050919050565b6000604082019050612d9e60008301856124d3565b612dab6020830184612581565b9392505050565b600081905092915050565b6000612dc88261238c565b612dd28185612db2565b9350612de28185602086016123a8565b80840191505092915050565b6000612dfa8285612dbd565b9150612e068284612dbd565b91508190509392505050565b7f416c726561647920736f6c640000000000000000000000000000000000000000600082015250565b6000612e48600c83612397565b9150612e5382612e12565b602082019050919050565b60006020820190508181036000830152612e7781612e3b565b9050919050565b7f496e73756666696369656e742066756e64730000000000000000000000000000600082015250565b6000612eb4601283612397565b9150612ebf82612e7e565b602082019050919050565b60006020820190508181036000830152612ee381612ea7565b9050919050565b7f4e6f74206c697374656400000000000000000000000000000000000000000000600082015250565b6000612f20600a83612397565b9150612f2b82612eea565b602082019050919050565b60006020820190508181036000830152612f4f81612f13565b9050919050565b7f4f776e61626c653a206e6577206f776e657220697320746865207a65726f206160008201527f6464726573730000000000000000000000000000000000000000000000000000602082015250565b6000612fb2602683612397565b9150612fbd82612f56565b604082019050919050565b60006020820190508181036000830152612fe181612fa5565b9050919050565b7f4552433732313a207472616e736665722066726f6d20696e636f72726563742060008201527f6f776e6572000000000000000000000000000000000000000000000000000000602082015250565b6000613044602583612397565b915061304f82612fe8565b604082019050919050565b6000602082019050818103600083015261307381613037565b9050919050565b7f4552433732313a207472616e7366657220746f20746865207a65726f2061646460008201527f7265737300000000000000000000000000000000000000000000000000000000602082015250565b60006130d6602483612397565b91506130e18261307a565b604082019050919050565b60006020820190508181036000830152613105816130c9565b9050919050565b7f4f776e61626c653a2063616c6c6572206973206e6f7420746865206f776e6572600082015250565b6000613142602083612397565b915061314d8261310c565b602082019050919050565b6000602082019050818103600083015261317181613135565b9050919050565b7f4552433732313a206d696e7420746f20746865207a65726f2061646472657373600082015250565b60006131ae602083612397565b91506131b982613178565b602082019050919050565b600060208201905081810360008301526131dd816131a1565b9050919050565b7f4552433732313a20746f6b656e20616c7265616479206d696e74656400000000600082015250565b600061321a601c83612397565b9150613225826131e4565b602082019050919050565b600060208201905081810360008301526132498161320d565b9050919050565b7f45524337323155524953746f726167653a2055524920736574206f66206e6f6e60008201527f6578697374656e7420746f6b656e000000000000000000000000000000000000602082015250565b60006132ac602e83612397565b91506132b782613250565b604082019050919050565b600060208201905081810360008301526132db8161329f565b9050919050565b60008190508160005260206000209050919050565b60006020601f8301049050919050565b600082821b905092915050565b6000600883026133447fffffffffffffffffffffffffffffffffffffffffffffffffffffffffffffffff82613307565b61334e8683613307565b95508019841693508086168417925050509392505050565b6000819050919050565b600061338b6133866133818461243e565b613366565b61243e565b9050919050565b6000819050919050565b6133a583613370565b6133b96133b182613392565b848454613314565b825550505050565b600090565b6133ce6133c1565b6133d981848461339c565b505050565b5b818110156133fd576133f26000826133c6565b6001810190506133df565b5050565b601f82111561344257613413816132e2565b61341c846132f7565b8101602085101561342b578190505b61343f613437856132f7565b8301826133de565b50505b505050565b600082821c905092915050565b600061346560001984600802613447565b1980831691505092915050565b600061347e8383613454565b9150826002028217905092915050565b6134978261238c565b67ffffffffffffffff8111156134b0576134af61267b565b5b6134ba8254612a2d565b6134c5828285613401565b600060209050601f8311600181146134f857600084156134e6578287015190505b6134f08582613472565b865550613558565b601f198416613506866132e2565b60005b8281101561352e57848901518255600182019150602085019450602081019050613509565b8683101561354b5784890151613547601f891682613454565b8355505b6001600288020188555050505b505050505050565b7f4552433732313a20617070726f766520746f2063616c6c657200000000000000600082015250565b6000613596601983612397565b91506135a182613560565b602082019050919050565b600060208201905081810360008301526135c581613589565b9050919050565b7f4552433732313a207472616e7366657220746f206e6f6e20455243373231526560008201527f63656976657220696d706c656d656e7465720000000000000000000000000000602082015250565b6000613628603283612397565b9150613633826135cc565b604082019050919050565b600060208201905081810360008301526136578161361b565b9050919050565b600081519050919050565b600082825260208201905092915050565b60006136858261365e565b61368f8185613669565b935061369f8185602086016123a8565b6136a8816123d2565b840191505092915050565b60006080820190506136c860008301876124d3565b6136d560208301866124d3565b6136e26040830185612647565b81810360608301526136f4818461367a565b905095945050505050565b60008151905061370e816122fd565b92915050565b60006020828403121561372a576137296122c7565b5b6000613738848285016136ff565b91505092915050565b7f4e487b7100000000000000000000000000000000000000000000000000000000600052601260045260246000fdfea2646970667358221220db0e8c53969b1950c3b77c88bc345da5770774eb76ab10606f1334f369402eab64736f6c634300081c0033",
  "linkReferences": {},
  "deployedLinkReferences": {}
}