{
  "_format": "hh-sol-artifact-1",
  "contractName": "Marketplace",
  "sourceName": "contracts/Marketplace.sol",
  "abi": [
    {
      "inputs": [],
      "stateMutability": "nonpayable",
      "type": "constructor"
    },
    {
      "inputs": [
        {
          "internalType": "address",
          "name": "sender",
          "type": "address"
        },
        {
          "internalType": "uint256",
          "name": "tokenId",
          "type": "uint256"
        },
        {
          "internalType": "address",
          "name": "owner",
          "type": "address"
        }
      ],
      "name": "ERC721IncorrectOwner",
      "type": "error"
    },
    {
      "inputs": [
        {
          "internalType": "address",
          "name": "operator",
          "type": "address"
        },
        {
          "internalType": "uint256",
          "name": "tokenId",
          "type": "uint256"
        }
      ],
      "name": "ERC721InsufficientApproval",
      "type": "error"
    },
    {
      "inputs": [
        {
          "internalType": "address",
          "name": "approver",
          "type": "address"
        }
      ],
      "name": "ERC721InvalidApprover",
      "type": "error"
    },
    {
      "inputs": [
        {
          "internalType": "address",
          "name": "operator",
          "type": "address"
        }
      ],
      "name": "ERC721InvalidOperator",
      "type": "error"
    },
    {
      "inputs": [
        {
          "internalType": "address",
          "name": "owner",
          "type": "address"
        }
      ],
      "name": "ERC721InvalidOwner",
      "type": "error"
    },
    {
      "inputs": [
        {
          "internalType": "address",
          "name": "receiver",
          "type": "address"
        }
      ],
      "name": "ERC721InvalidReceiver",
      "type": "error"
    },
    {
      "inputs": [
        {
          "internalType": "address",
          "name": "sender",
          "type": "address"
        }
      ],
      "name": "ERC721InvalidSender",
      "type": "error"
    },
    {
      "inputs": [
        {
          "internalType": "uint256",
          "name": "tokenId",
          "type": "uint256"
        }
      ],
      "name": "ERC721NonexistentToken",
      "type": "error"
    },
    {
      "inputs": [
        {
          "internalType": "address",
          "name": "owner",
          "type": "address"
        }
      ],
      "name": "OwnableInvalidOwner",
      "type": "error"
    },
    {
      "inputs": [
        {
          "internalType": "address",
          "name": "account",
          "type": "address"
        }
      ],
      "name": "OwnableUnauthorizedAccount",
      "type": "error"
    },
    {
      "inputs": [],
      "name": "ReentrancyGuardReentrantCall",
      "type": "error"
    },
    {
      "anonymous": false,
      "inputs": [
        {
          "indexed": true,
          "internalType": "address",
          "name": "owner",
          "type": "address"
        },
        {
          "indexed": true,
          "internalType": "address",
          "name": "approved",
          "type": "address"
        },
        {
          "indexed": true,
          "internalType": "uint256",
          "name": "tokenId",
          "type": "uint256"
        }
      ],
      "name": "Approval",
      "type": "event"
    },
    {
      "anonymous": false,
      "inputs": [
        {
          "indexed": true,
          "internalType": "address",
          "name": "owner",
          "type": "address"
        },
        {
          "indexed": true,
          "internalType": "address",
          "name": "operator",
          "type": "address"
        },
        {
          "indexed": false,
          "internalType": "bool",
          "name": "approved",
          "type": "bool"
        }
      ],
      "name": "ApprovalForAll",
      "type": "event"
    },
    {
      "anonymous": false,
      "inputs": [
        {
          "indexed": false,
          "internalType": "uint256",
          "name": "value",
          "type": "uint256"
        }
      ],
      "name": "DebugValueReceived",
      "type": "event"
    },
    {
      "anonymous": false,
      "inputs": [
        {
          "indexed": false,
          "internalType": "uint256",
          "name": "tokenId",
          "type": "uint256"
        },
        {
          "indexed": false,
          "internalType": "address",
          "name": "seller",
          "type": "address"
        },
        {
          "indexed": false,
          "internalType": "uint96",
          "name": "price",
          "type": "uint96"
        }
      ],
      "name": "ItemListed",
      "type": "event"
    },
    {
      "anonymous": false,
      "inputs": [
        {
          "indexed": false,
          "internalType": "uint256",
          "name": "tokenId",
          "type": "uint256"
        },
        {
          "indexed": false,
          "internalType": "address",
          "name": "buyer",
          "type": "address"
        },
        {
          "indexed": false,
          "internalType": "uint96",
          "name": "price",
          "type": "uint96"
        }
      ],
      "name": "ItemSold",
      "type": "event"
    },
    {
      "anonymous": false,
      "inputs": [
        {
          "indexed": true,
          "internalType": "address",
          "name": "previousOwner",
          "type": "address"
        },
        {
          "indexed": true,
          "internalType": "address",
          "name": "newOwner",
          "type": "address"
        }
      ],
      "name": "OwnershipTransferred",
      "type": "event"
    },
    {
      "anonymous": false,
      "inputs": [
        {
          "indexed": true,
          "internalType": "address",
          "name": "from",
          "type": "address"
        },
        {
          "indexed": true,
          "internalType": "address",
          "name": "to",
          "type": "address"
        },
        {
          "indexed": true,
          "internalType": "uint256",
          "name": "tokenId",
          "type": "uint256"
        }
      ],
      "name": "Transfer",
      "type": "event"
    },
    {
      "inputs": [],
      "name": "MAX_SUPPLY",
      "outputs": [
        {
          "internalType": "uint96",
          "name": "",
          "type": "uint96"
        }
      ],
      "stateMutability": "view",
      "type": "function"
    },
    {
      "inputs": [
        {
          "internalType": "address",
          "name": "to",
          "type": "address"
        },
        {
          "internalType": "uint256",
          "name": "tokenId",
          "type": "uint256"
        }
      ],
      "name": "approve",
      "outputs": [],
      "stateMutability": "nonpayable",
      "type": "function"
    },
    {
      "inputs": [],
      "name": "approveMarketplace",
      "outputs": [],
      "stateMutability": "nonpayable",
      "type": "function"
    },
    {
      "inputs": [
        {
          "internalType": "address",
          "name": "owner",
          "type": "address"
        }
      ],
      "name": "balanceOf",
      "outputs": [
        {
          "internalType": "uint256",
          "name": "",
          "type": "uint256"
        }
      ],
      "stateMutability": "view",
      "type": "function"
    },
    {
      "inputs": [
        {
          "internalType": "uint256",
          "name": "_tokenId",
          "type": "uint256"
        }
      ],
      "name": "buy",
      "outputs": [],
      "stateMutability": "payable",
      "type": "function"
    },
    {
      "inputs": [
        {
          "internalType": "uint256",
          "name": "tokenId",
          "type": "uint256"
        }
      ],
      "name": "getApproved",
      "outputs": [
        {
          "internalType": "address",
          "name": "",
          "type": "address"
        }
      ],
      "stateMutability": "view",
      "type": "function"
    },
    {
      "inputs": [
        {
          "internalType": "uint256",
          "name": "_tokenId",
          "type": "uint256"
        }
      ],
      "name": "getListing",
      "outputs": [
        {
          "internalType": "address",
          "name": "",
          "type": "address"
        },
        {
          "internalType": "uint96",
          "name": "",
          "type": "uint96"
        },
        {
          "internalType": "bool",
          "name": "",
          "type": "bool"
        },
        {
          "internalType": "string",
          "name": "",
          "type": "string"
        }
      ],
      "stateMutability": "view",
      "type": "function"
    },
    {
      "inputs": [],
      "name": "getTotalListings",
      "outputs": [
        {
          "internalType": "uint256",
          "name": "",
          "type": "uint256"
        }
      ],
      "stateMutability": "view",
      "type": "function"
    },
    {
      "inputs": [
        {
          "internalType": "address",
          "name": "owner",
          "type": "address"
        },
        {
          "internalType": "address",
          "name": "operator",
          "type": "address"
        }
      ],
      "name": "isApprovedForAll",
      "outputs": [
        {
          "internalType": "bool",
          "name": "",
          "type": "bool"
        }
      ],
      "stateMutability": "view",
      "type": "function"
    },
    {
      "inputs": [],
      "name": "listingCount",
      "outputs": [
        {
          "internalType": "uint256",
          "name": "",
          "type": "uint256"
        }
      ],
      "stateMutability": "view",
      "type": "function"
    },
    {
      "inputs": [
        {
          "internalType": "uint256",
          "name": "",
          "type": "uint256"
        }
      ],
      "name": "listings",
      "outputs": [
        {
          "internalType": "address",
          "name": "seller",
          "type": "address"
        },
        {
          "internalType": "uint96",
          "name": "price",
          "type": "uint96"
        },
        {
          "internalType": "bool",
          "name": "isSold",
          "type": "bool"
        },
        {
          "internalType": "string",
          "name": "uri",
          "type": "string"
        }
      ],
      "stateMutability": "view",
      "type": "function"
    },
    {
      "inputs": [
        {
          "internalType": "string[]",
          "name": "_uris",
          "type": "string[]"
        },
        {
          "internalType": "uint96[]",
          "name": "_prices",
          "type": "uint96[]"
        }
      ],
      "name": "mintAndList",
      "outputs": [],
      "stateMutability": "nonpayable",
      "type": "function"
    },
    {
      "inputs": [],
      "name": "name",
      "outputs": [
        {
          "internalType": "string",
          "name": "",
          "type": "string"
        }
      ],
      "stateMutability": "view",
      "type": "function"
    },
    {
      "inputs": [],
      "name": "owner",
      "outputs": [
        {
          "internalType": "address",
          "name": "",
          "type": "address"
        }
      ],
      "stateMutability": "view",
      "type": "function"
    },
    {
      "inputs": [
        {
          "internalType": "uint256",
          "name": "tokenId",
          "type": "uint256"
        }
      ],
      "name": "ownerOf",
      "outputs": [
        {
          "internalType": "address",
          "name": "",
          "type": "address"
        }
      ],
      "stateMutability": "view",
      "type": "function"
    },
    {
      "inputs": [
        {
          "internalType": "address",
          "name": "",
          "type": "address"
        }
      ],
      "name": "pendingWithdrawals",
      "outputs": [
        {
          "internalType": "uint256",
          "name": "",
          "type": "uint256"
        }
      ],
      "stateMutability": "view",
      "type": "function"
    },
    {
      "inputs": [],
      "name": "renounceOwnership",
      "outputs": [],
      "stateMutability": "nonpayable",
      "type": "function"
    },
    {
      "inputs": [
        {
          "internalType": "address",
          "name": "from",
          "type": "address"
        },
        {
          "internalType": "address",
          "name": "to",
          "type": "address"
        },
        {
          "internalType": "uint256",
          "name": "tokenId",
          "type": "uint256"
        }
      ],
      "name": "safeTransferFrom",
      "outputs": [],
      "stateMutability": "nonpayable",
      "type": "function"
    },
    {
      "inputs": [
        {
          "internalType": "address",
          "name": "from",
          "type": "address"
        },
        {
          "internalType": "address",
          "name": "to",
          "type": "address"
        },
        {
          "internalType": "uint256",
          "name": "tokenId",
          "type": "uint256"
        },
        {
          "internalType": "bytes",
          "name": "data",
          "type": "bytes"
        }
      ],
      "name": "safeTransferFrom",
      "outputs": [],
      "stateMutability": "nonpayable",
      "type": "function"
    },
    {
      "inputs": [
        {
          "internalType": "address",
          "name": "operator",
          "type": "address"
        },
        {
          "internalType": "bool",
          "name": "approved",
          "type": "bool"
        }
      ],
      "name": "setApprovalForAll",
      "outputs": [],
      "stateMutability": "nonpayable",
      "type": "function"
    },
    {
      "inputs": [
        {
          "internalType": "bytes4",
          "name": "interfaceId",
          "type": "bytes4"
        }
      ],
      "name": "supportsInterface",
      "outputs": [
        {
          "internalType": "bool",
          "name": "",
          "type": "bool"
        }
      ],
      "stateMutability": "view",
      "type": "function"
    },
    {
      "inputs": [],
      "name": "symbol",
      "outputs": [
        {
          "internalType": "string",
          "name": "",
          "type": "string"
        }
      ],
      "stateMutability": "view",
      "type": "function"
    },
    {
      "inputs": [
        {
          "internalType": "uint256",
          "name": "tokenId",
          "type": "uint256"
        }
      ],
      "name": "tokenURI",
      "outputs": [
        {
          "internalType": "string",
          "name": "",
          "type": "string"
        }
      ],
      "stateMutability": "view",
      "type": "function"
    },
    {
      "inputs": [
        {
          "internalType": "address",
          "name": "from",
          "type": "address"
        },
        {
          "internalType": "address",
          "name": "to",
          "type": "address"
        },
        {
          "internalType": "uint256",
          "name": "tokenId",
          "type": "uint256"
        }
      ],
      "name": "transferFrom",
      "outputs": [],
      "stateMutability": "nonpayable",
      "type": "function"
    },
    {
      "inputs": [
        {
          "internalType": "address",
          "name": "newOwner",
          "type": "address"
        }
      ],
      "name": "transferOwnership",
      "outputs": [],
      "stateMutability": "nonpayable",
      "type": "function"
    },
    {
      "inputs": [],
      "name": "withdraw",
      "outputs": [],
      "stateMutability": "nonpayable",
      "type": "function"
    }
  ],
  "bytecode": "0x60806040526000600b5534801561001557600080fd5b50336040518060400160405280600a81526020017f4e4654204d61726b6574000000000000000000000000000000000000000000008152506040518060400160405280600481526020017f4e46544d0000000000000000000000000000000000000000000000000000000081525081600090816100929190610442565b5080600190816100a29190610442565b505050600073ffffffffffffffffffffffffffffffffffffffff168173ffffffffffffffffffffffffffffffffffffffff16036101175760006040517f1e4fbdf700000000000000000000000000000000000000000000000000000000815260040161010e9190610555565b60405180910390fd5b6101268161012c60201b60201c565b50610570565b6000600660009054906101000a900473ffffffffffffffffffffffffffffffffffffffff16905081600660006101000a81548173ffffffffffffffffffffffffffffffffffffffff021916908373ffffffffffffffffffffffffffffffffffffffff1602179055508173ffffffffffffffffffffffffffffffffffffffff168173ffffffffffffffffffffffffffffffffffffffff167f8be0079c531659141344cd1fd0a4f28419497f9722a3daafe3b4186f6b6457e060405160405180910390a35050565b600081519050919050565b7f4e487b7100000000000000000000000000000000000000000000000000000000600052604160045260246000fd5b7f4e487b7100000000000000000000000000000000000000000000000000000000600052602260045260246000fd5b6000600282049050600182168061027357607f821691505b6020821081036102865761028561022c565b5b50919050565b60008190508160005260206000209050919050565b60006020601f8301049050919050565b600082821b905092915050565b6000600883026102ee7fffffffffffffffffffffffffffffffffffffffffffffffffffffffffffffffff826102b1565b6102f886836102b1565b95508019841693508086168417925050509392505050565b6000819050919050565b6000819050919050565b600061033f61033a61033584610310565b61031a565b610310565b9050919050565b6000819050919050565b61035983610324565b61036d61036582610346565b8484546102be565b825550505050565b600090565b610382610375565b61038d818484610350565b505050565b5b818110156103b1576103a660008261037a565b600181019050610393565b5050565b601f8211156103f6576103c78161028c565b6103d0846102a1565b810160208510156103df578190505b6103f36103eb856102a1565b830182610392565b50505b505050565b600082821c905092915050565b6000610419600019846008026103fb565b1980831691505092915050565b60006104328383610408565b9150826002028217905092915050565b61044b826101f2565b67ffffffffffffffff811115610464576104636101fd565b5b61046e825461025b565b6104798282856103b5565b600060209050601f8311600181146104ac576000841561049a578287015190505b6104a48582610426565b86555061050c565b601f1984166104ba8661028c565b60005b828110156104e2578489015182556001820191506020850194506020810190506104bd565b868310156104ff57848901516104fb601f891682610408565b8355505b6001600288020188555050505b505050505050565b600073ffffffffffffffffffffffffffffffffffffffff82169050919050565b600061053f82610514565b9050919050565b61054f81610534565b82525050565b600060208201905061056a6000830184610546565b92915050565b6136608061057f6000396000f3fe6080604052600436106101815760003560e01c806395d89b41116100d1578063d5728f181161008a578063e985e9c511610064578063e985e9c514610565578063f2fde38b146105a2578063f3f43703146105cb578063fbf30c351461060857610181565b8063d5728f18146104f2578063d96a094a14610509578063de74e57b1461052557610181565b806395d89b41146103e4578063a22cb4651461040f578063a9b07c2614610438578063b88d4fde14610463578063c87b56dd1461048c578063cd1d9dc0146104c957610181565b806332cb6b0c1161013e5780636352211e116101185780636352211e1461032857806370a0823114610365578063715018a6146103a25780638da5cb5b146103b957610181565b806332cb6b0c146102bd5780633ccfd60b146102e857806342842e0e146102ff57610181565b806301ffc9a71461018657806306fdde03146101c3578063081812fc146101ee578063095ea7b31461022b578063107a274a1461025457806323b872dd14610294575b600080fd5b34801561019257600080fd5b506101ad60048036038101906101a891906124ce565b610633565b6040516101ba9190612516565b60405180910390f35b3480156101cf57600080fd5b506101d8610715565b6040516101e591906125c1565b60405180910390f35b3480156101fa57600080fd5b5061021560048036038101906102109190612619565b6107a7565b6040516102229190612687565b60405180910390f35b34801561023757600080fd5b50610252600480360381019061024d91906126ce565b6107c3565b005b34801561026057600080fd5b5061027b60048036038101906102769190612619565b6107d9565b60405161028b9493929190612735565b60405180910390f35b3480156102a057600080fd5b506102bb60048036038101906102b69190612781565b610967565b005b3480156102c957600080fd5b506102d2610a69565b6040516102df91906127d4565b60405180910390f35b3480156102f457600080fd5b506102fd610a6f565b005b34801561030b57600080fd5b5061032660048036038101906103219190612781565b610b85565b005b34801561033457600080fd5b5061034f600480360381019061034a9190612619565b610ba5565b60405161035c9190612687565b60405180910390f35b34801561037157600080fd5b5061038c600480360381019061038791906127ef565b610bb7565b604051610399919061282b565b60405180910390f35b3480156103ae57600080fd5b506103b7610c71565b005b3480156103c557600080fd5b506103ce610c85565b6040516103db9190612687565b60405180910390f35b3480156103f057600080fd5b506103f9610caf565b60405161040691906125c1565b60405180910390f35b34801561041b57600080fd5b5061043660048036038101906104319190612872565b610d41565b005b34801561044457600080fd5b5061044d610d57565b60405161045a919061282b565b60405180910390f35b34801561046f57600080fd5b5061048a600480360381019061048591906129e7565b610d5d565b005b34801561049857600080fd5b506104b360048036038101906104ae9190612619565b610d82565b6040516104c091906125c1565b60405180910390f35b3480156104d557600080fd5b506104f060048036038101906104eb9190612ce0565b610e89565b005b3480156104fe57600080fd5b506105076111ab565b005b610523600480360381019061051e9190612619565b6111c0565b005b34801561053157600080fd5b5061054c60048036038101906105479190612619565b611447565b60405161055c9493929190612735565b60405180910390f35b34801561057157600080fd5b5061058c60048036038101906105879190612d58565b611544565b6040516105999190612516565b60405180910390f35b3480156105ae57600080fd5b506105c960048036038101906105c491906127ef565b6115d8565b005b3480156105d757600080fd5b506105f260048036038101906105ed91906127ef565b61165e565b6040516105ff919061282b565b60405180910390f35b34801561061457600080fd5b5061061d611676565b60405161062a919061282b565b60405180910390f35b60007f80ac58cd000000000000000000000000000000000000000000000000000000007bffffffffffffffffffffffffffffffffffffffffffffffffffffffff1916827bffffffffffffffffffffffffffffffffffffffffffffffffffffffff191614806106fe57507f5b5e139f000000000000000000000000000000000000000000000000000000007bffffffffffffffffffffffffffffffffffffffffffffffffffffffff1916827bffffffffffffffffffffffffffffffffffffffffffffffffffffffff1916145b8061070e575061070d82611680565b5b9050919050565b60606000805461072490612dc7565b80601f016020809104026020016040519081016040528092919081815260200182805461075090612dc7565b801561079d5780601f106107725761010080835404028352916020019161079d565b820191906000526020600020905b81548152906001019060200180831161078057829003601f168201915b5050505050905090565b60006107b2826116ea565b506107bc82611772565b9050919050565b6107d582826107d06117af565b6117b7565b5050565b600080600060606000600760008781526020019081526020016000206040518060800160405290816000820160009054906101000a900473ffffffffffffffffffffffffffffffffffffffff1673ffffffffffffffffffffffffffffffffffffffff1673ffffffffffffffffffffffffffffffffffffffff1681526020016000820160149054906101000a90046bffffffffffffffffffffffff166bffffffffffffffffffffffff166bffffffffffffffffffffffff1681526020016001820160009054906101000a900460ff161515151581526020016002820180546108bf90612dc7565b80601f01602080910402602001604051908101604052809291908181526020018280546108eb90612dc7565b80156109385780601f1061090d57610100808354040283529160200191610938565b820191906000526020600020905b81548152906001019060200180831161091b57829003601f168201915b505050505081525050905080600001518160200151826040015183606001519450945094509450509193509193565b600073ffffffffffffffffffffffffffffffffffffffff168273ffffffffffffffffffffffffffffffffffffffff16036109d95760006040517f64a0ae920000000000000000000000000000000000000000000000000000000081526004016109d09190612687565b60405180910390fd5b60006109ed83836109e86117af565b6117c9565b90508373ffffffffffffffffffffffffffffffffffffffff168173ffffffffffffffffffffffffffffffffffffffff1614610a63578382826040517f64283d7b000000000000000000000000000000000000000000000000000000008152600401610a5a93929190612df8565b60405180910390fd5b50505050565b6103e881565b6000600860003373ffffffffffffffffffffffffffffffffffffffff1673ffffffffffffffffffffffffffffffffffffffff16815260200190815260200160002054905060008111610af6576040517f08c379a0000000000000000000000000000000000000000000000000000000008152600401610aed90612e7b565b60405180910390fd5b6000600860003373ffffffffffffffffffffffffffffffffffffffff1673ffffffffffffffffffffffffffffffffffffffff168152602001908152602001600020819055503373ffffffffffffffffffffffffffffffffffffffff166108fc829081150290604051600060405180830381858888f19350505050158015610b81573d6000803e3d6000fd5b5050565b610ba083838360405180602001604052806000815250610d5d565b505050565b6000610bb0826116ea565b9050919050565b60008073ffffffffffffffffffffffffffffffffffffffff168273ffffffffffffffffffffffffffffffffffffffff1603610c2a5760006040517f89c62b64000000000000000000000000000000000000000000000000000000008152600401610c219190612687565b60405180910390fd5b600360008373ffffffffffffffffffffffffffffffffffffffff1673ffffffffffffffffffffffffffffffffffffffff168152602001908152602001600020549050919050565b610c796119e3565b610c836000611a6a565b565b6000600660009054906101000a900473ffffffffffffffffffffffffffffffffffffffff16905090565b606060018054610cbe90612dc7565b80601f0160208091040260200160405190810160405280929190818152602001828054610cea90612dc7565b8015610d375780601f10610d0c57610100808354040283529160200191610d37565b820191906000526020600020905b815481529060010190602001808311610d1a57829003601f168201915b5050505050905090565b610d53610d4c6117af565b8383611b30565b5050565b600a5481565b610d68848484610967565b610d7c610d736117af565b85858585611c9f565b50505050565b60606000600960008481526020019081526020016000208054610da490612dc7565b905011610de6576040517f08c379a0000000000000000000000000000000000000000000000000000000008152600401610ddd90612ee7565b60405180910390fd5b600960008381526020019081526020016000208054610e0490612dc7565b80601f0160208091040260200160405190810160405280929190818152602001828054610e3090612dc7565b8015610e7d5780601f10610e5257610100808354040283529160200191610e7d565b820191906000526020600020905b815481529060010190602001808311610e6057829003601f168201915b50505050509050919050565b60008251905060008111610ed2576040517f08c379a0000000000000000000000000000000000000000000000000000000008152600401610ec990612f53565b60405180910390fd5b81518114610f15576040517f08c379a0000000000000000000000000000000000000000000000000000000008152600401610f0c90612fbf565b60405180910390fd5b6103e86bffffffffffffffffffffffff1681600b54610f34919061300e565b1115610f75576040517f08c379a0000000000000000000000000000000000000000000000000000000008152600401610f6c9061308e565b60405180910390fd5b60005b818110156111a5576000600b549050610f913082611e50565b848281518110610fa457610fa36130ae565b5b6020026020010151600960008381526020019081526020016000209081610fcb9190613289565b5060405180608001604052803373ffffffffffffffffffffffffffffffffffffffff168152602001858481518110611006576110056130ae565b5b60200260200101516bffffffffffffffffffffffff16815260200160001515815260200186848151811061103d5761103c6130ae565b5b60200260200101518152506007600083815260200190815260200160002060008201518160000160006101000a81548173ffffffffffffffffffffffffffffffffffffffff021916908373ffffffffffffffffffffffffffffffffffffffff16021790555060208201518160000160146101000a8154816bffffffffffffffffffffffff02191690836bffffffffffffffffffffffff16021790555060408201518160010160006101000a81548160ff021916908315150217905550606082015181600201908161110e9190613289565b509050507f74853d0857487d8ab8813c4ff8c6740981eaa76fc83634f27c8f6b51d90b79d08133868581518110611148576111476130ae565b5b602002602001015160405161115f9392919061335b565b60405180910390a1600b600081548092919061117a90613392565b9190505550600a600081548092919061119290613392565b9190505550508080600101915050610f78565b50505050565b6111b36119e3565b6111be306001610d41565b565b7f492bb73cced98eea98641830826274e5b42a3a0de8ec091fa0ce87410a370087346040516111ef919061282b565b60405180910390a1600060076000838152602001908152602001600020905060008160000160149054906101000a90046bffffffffffffffffffffffff166bffffffffffffffffffffffff161161127b576040517f08c379a000000000000000000000000000000000000000000000000000000000815260040161127290613426565b60405180910390fd5b8060010160009054906101000a900460ff16156112cd576040517f08c379a00000000000000000000000000000000000000000000000000000000081526004016112c490613492565b60405180910390fd5b8060000160149054906101000a90046bffffffffffffffffffffffff166bffffffffffffffffffffffff1634101561133a576040517f08c379a0000000000000000000000000000000000000000000000000000000008152600401611331906134fe565b60405180910390fd5b60018160010160006101000a81548160ff02191690831515021790555034600860008360000160009054906101000a900473ffffffffffffffffffffffffffffffffffffffff1673ffffffffffffffffffffffffffffffffffffffff1673ffffffffffffffffffffffffffffffffffffffff16815260200190815260200160002060008282546113ca919061300e565b925050819055506113ec30338460405180602001604052806000815250611f49565b7f10398926f289f5e9e67a5906e08de3c9692f386c286650b189a7e72cec5cbcb582338360000160149054906101000a90046bffffffffffffffffffffffff1660405161143b9392919061335b565b60405180910390a15050565b60076020528060005260406000206000915090508060000160009054906101000a900473ffffffffffffffffffffffffffffffffffffffff16908060000160149054906101000a90046bffffffffffffffffffffffff16908060010160009054906101000a900460ff16908060020180546114c190612dc7565b80601f01602080910402602001604051908101604052809291908181526020018280546114ed90612dc7565b801561153a5780601f1061150f5761010080835404028352916020019161153a565b820191906000526020600020905b81548152906001019060200180831161151d57829003601f168201915b5050505050905084565b6000600560008473ffffffffffffffffffffffffffffffffffffffff1673ffffffffffffffffffffffffffffffffffffffff16815260200190815260200160002060008373ffffffffffffffffffffffffffffffffffffffff1673ffffffffffffffffffffffffffffffffffffffff16815260200190815260200160002060009054906101000a900460ff16905092915050565b6115e06119e3565b600073ffffffffffffffffffffffffffffffffffffffff168173ffffffffffffffffffffffffffffffffffffffff16036116525760006040517f1e4fbdf70000000000000000000000000000000000000000000000000000000081526004016116499190612687565b60405180910390fd5b61165b81611a6a565b50565b60086020528060005260406000206000915090505481565b6000600a54905090565b60007f01ffc9a7000000000000000000000000000000000000000000000000000000007bffffffffffffffffffffffffffffffffffffffffffffffffffffffff1916827bffffffffffffffffffffffffffffffffffffffffffffffffffffffff1916149050919050565b6000806116f683611f6e565b9050600073ffffffffffffffffffffffffffffffffffffffff168173ffffffffffffffffffffffffffffffffffffffff160361176957826040517f7e273289000000000000000000000000000000000000000000000000000000008152600401611760919061282b565b60405180910390fd5b80915050919050565b60006004600083815260200190815260200160002060009054906101000a900473ffffffffffffffffffffffffffffffffffffffff169050919050565b600033905090565b6117c48383836001611fab565b505050565b6000806117d584611f6e565b9050600073ffffffffffffffffffffffffffffffffffffffff168373ffffffffffffffffffffffffffffffffffffffff161461181757611816818486612170565b5b600073ffffffffffffffffffffffffffffffffffffffff168173ffffffffffffffffffffffffffffffffffffffff16146118a857611859600085600080611fab565b6001600360008373ffffffffffffffffffffffffffffffffffffffff1673ffffffffffffffffffffffffffffffffffffffff168152602001908152602001600020600082825403925050819055505b600073ffffffffffffffffffffffffffffffffffffffff168573ffffffffffffffffffffffffffffffffffffffff161461192b576001600360008773ffffffffffffffffffffffffffffffffffffffff1673ffffffffffffffffffffffffffffffffffffffff168152602001908152602001600020600082825401925050819055505b846002600086815260200190815260200160002060006101000a81548173ffffffffffffffffffffffffffffffffffffffff021916908373ffffffffffffffffffffffffffffffffffffffff160217905550838573ffffffffffffffffffffffffffffffffffffffff168273ffffffffffffffffffffffffffffffffffffffff167fddf252ad1be2c89b69c2b068fc378daa952ba7f163c4a11628f55a4df523b3ef60405160405180910390a4809150509392505050565b6119eb6117af565b73ffffffffffffffffffffffffffffffffffffffff16611a09610c85565b73ffffffffffffffffffffffffffffffffffffffff1614611a6857611a2c6117af565b6040517f118cdaa7000000000000000000000000000000000000000000000000000000008152600401611a5f9190612687565b60405180910390fd5b565b6000600660009054906101000a900473ffffffffffffffffffffffffffffffffffffffff16905081600660006101000a81548173ffffffffffffffffffffffffffffffffffffffff021916908373ffffffffffffffffffffffffffffffffffffffff1602179055508173ffffffffffffffffffffffffffffffffffffffff168173ffffffffffffffffffffffffffffffffffffffff167f8be0079c531659141344cd1fd0a4f28419497f9722a3daafe3b4186f6b6457e060405160405180910390a35050565b600073ffffffffffffffffffffffffffffffffffffffff168273ffffffffffffffffffffffffffffffffffffffff1603611ba157816040517f5b08ba18000000000000000000000000000000000000000000000000000000008152600401611b989190612687565b60405180910390fd5b80600560008573ffffffffffffffffffffffffffffffffffffffff1673ffffffffffffffffffffffffffffffffffffffff16815260200190815260200160002060008473ffffffffffffffffffffffffffffffffffffffff1673ffffffffffffffffffffffffffffffffffffffff16815260200190815260200160002060006101000a81548160ff0219169083151502179055508173ffffffffffffffffffffffffffffffffffffffff168373ffffffffffffffffffffffffffffffffffffffff167f17307eab39ab6107e8899845ad3d59bd9653f200f220920489ca2b5937696c3183604051611c929190612516565b60405180910390a3505050565b60008373ffffffffffffffffffffffffffffffffffffffff163b1115611e49578273ffffffffffffffffffffffffffffffffffffffff1663150b7a02868685856040518563ffffffff1660e01b8152600401611cfe9493929190613573565b6020604051808303816000875af1925050508015611d3a57506040513d601f19601f82011682018060405250810190611d3791906135d4565b60015b611dbe573d8060008114611d6a576040519150601f19603f3d011682016040523d82523d6000602084013e611d6f565b606091505b506000815103611db657836040517f64a0ae92000000000000000000000000000000000000000000000000000000008152600401611dad9190612687565b60405180910390fd5b805181602001fd5b63150b7a0260e01b7bffffffffffffffffffffffffffffffffffffffffffffffffffffffff1916817bffffffffffffffffffffffffffffffffffffffffffffffffffffffff191614611e4757836040517f64a0ae92000000000000000000000000000000000000000000000000000000008152600401611e3e9190612687565b60405180910390fd5b505b5050505050565b600073ffffffffffffffffffffffffffffffffffffffff168273ffffffffffffffffffffffffffffffffffffffff1603611ec25760006040517f64a0ae92000000000000000000000000000000000000000000000000000000008152600401611eb99190612687565b60405180910390fd5b6000611ed0838360006117c9565b9050600073ffffffffffffffffffffffffffffffffffffffff168173ffffffffffffffffffffffffffffffffffffffff1614611f445760006040517f73c6ac6e000000000000000000000000000000000000000000000000000000008152600401611f3b9190612687565b60405180910390fd5b505050565b611f54848484612234565b611f68611f5f6117af565b85858585611c9f565b50505050565b60006002600083815260200190815260200160002060009054906101000a900473ffffffffffffffffffffffffffffffffffffffff169050919050565b8080611fe45750600073ffffffffffffffffffffffffffffffffffffffff168273ffffffffffffffffffffffffffffffffffffffff1614155b15612118576000611ff4846116ea565b9050600073ffffffffffffffffffffffffffffffffffffffff168373ffffffffffffffffffffffffffffffffffffffff161415801561205f57508273ffffffffffffffffffffffffffffffffffffffff168173ffffffffffffffffffffffffffffffffffffffff1614155b801561207257506120708184611544565b155b156120b457826040517fa9fbf51f0000000000000000000000000000000000000000000000000000000081526004016120ab9190612687565b60405180910390fd5b811561211657838573ffffffffffffffffffffffffffffffffffffffff168273ffffffffffffffffffffffffffffffffffffffff167f8c5be1e5ebec7d5bd14f71427d1e84f3dd0314c0f7b2291e5b200ac8c7c3b92560405160405180910390a45b505b836004600085815260200190815260200160002060006101000a81548173ffffffffffffffffffffffffffffffffffffffff021916908373ffffffffffffffffffffffffffffffffffffffff16021790555050505050565b61217b8383836123a1565b61222f57600073ffffffffffffffffffffffffffffffffffffffff168373ffffffffffffffffffffffffffffffffffffffff16036121f057806040517f7e2732890000000000000000000000000000000000000000000000000000000081526004016121e7919061282b565b60405180910390fd5b81816040517f177e802f000000000000000000000000000000000000000000000000000000008152600401612226929190613601565b60405180910390fd5b505050565b600073ffffffffffffffffffffffffffffffffffffffff168273ffffffffffffffffffffffffffffffffffffffff16036122a65760006040517f64a0ae9200000000000000000000000000000000000000000000000000000000815260040161229d9190612687565b60405180910390fd5b60006122b4838360006117c9565b9050600073ffffffffffffffffffffffffffffffffffffffff168173ffffffffffffffffffffffffffffffffffffffff160361232757816040517f7e27328900000000000000000000000000000000000000000000000000000000815260040161231e919061282b565b60405180910390fd5b8373ffffffffffffffffffffffffffffffffffffffff168173ffffffffffffffffffffffffffffffffffffffff161461239b578382826040517f64283d7b00000000000000000000000000000000000000000000000000000000815260040161239293929190612df8565b60405180910390fd5b50505050565b60008073ffffffffffffffffffffffffffffffffffffffff168373ffffffffffffffffffffffffffffffffffffffff161415801561245957508273ffffffffffffffffffffffffffffffffffffffff168473ffffffffffffffffffffffffffffffffffffffff16148061241a57506124198484611544565b5b8061245857508273ffffffffffffffffffffffffffffffffffffffff1661244083611772565b73ffffffffffffffffffffffffffffffffffffffff16145b5b90509392505050565b6000604051905090565b600080fd5b600080fd5b60007fffffffff0000000000000000000000000000000000000000000000000000000082169050919050565b6124ab81612476565b81146124b657600080fd5b50565b6000813590506124c8816124a2565b92915050565b6000602082840312156124e4576124e361246c565b5b60006124f2848285016124b9565b91505092915050565b60008115159050919050565b612510816124fb565b82525050565b600060208201905061252b6000830184612507565b92915050565b600081519050919050565b600082825260208201905092915050565b60005b8381101561256b578082015181840152602081019050612550565b60008484015250505050565b6000601f19601f8301169050919050565b600061259382612531565b61259d818561253c565b93506125ad81856020860161254d565b6125b681612577565b840191505092915050565b600060208201905081810360008301526125db8184612588565b905092915050565b6000819050919050565b6125f6816125e3565b811461260157600080fd5b50565b600081359050612613816125ed565b92915050565b60006020828403121561262f5761262e61246c565b5b600061263d84828501612604565b91505092915050565b600073ffffffffffffffffffffffffffffffffffffffff82169050919050565b600061267182612646565b9050919050565b61268181612666565b82525050565b600060208201905061269c6000830184612678565b92915050565b6126ab81612666565b81146126b657600080fd5b50565b6000813590506126c8816126a2565b92915050565b600080604083850312156126e5576126e461246c565b5b60006126f3858286016126b9565b925050602061270485828601612604565b9150509250929050565b60006bffffffffffffffffffffffff82169050919050565b61272f8161270e565b82525050565b600060808201905061274a6000830187612678565b6127576020830186612726565b6127646040830185612507565b81810360608301526127768184612588565b905095945050505050565b60008060006060848603121561279a5761279961246c565b5b60006127a8868287016126b9565b93505060206127b9868287016126b9565b92505060406127ca86828701612604565b9150509250925092565b60006020820190506127e96000830184612726565b92915050565b6000602082840312156128055761280461246c565b5b6000612813848285016126b9565b91505092915050565b612825816125e3565b82525050565b6000602082019050612840600083018461281c565b92915050565b61284f816124fb565b811461285a57600080fd5b50565b60008135905061286c81612846565b92915050565b600080604083850312156128895761288861246c565b5b6000612897858286016126b9565b92505060206128a88582860161285d565b9150509250929050565b600080fd5b600080fd5b7f4e487b7100000000000000000000000000000000000000000000000000000000600052604160045260246000fd5b6128f482612577565b810181811067ffffffffffffffff82111715612913576129126128bc565b5b80604052505050565b6000612926612462565b905061293282826128eb565b919050565b600067ffffffffffffffff821115612952576129516128bc565b5b61295b82612577565b9050602081019050919050565b82818337600083830152505050565b600061298a61298584612937565b61291c565b9050828152602081018484840111156129a6576129a56128b7565b5b6129b1848285612968565b509392505050565b600082601f8301126129ce576129cd6128b2565b5b81356129de848260208601612977565b91505092915050565b60008060008060808587031215612a0157612a0061246c565b5b6000612a0f878288016126b9565b9450506020612a20878288016126b9565b9350506040612a3187828801612604565b925050606085013567ffffffffffffffff811115612a5257612a51612471565b5b612a5e878288016129b9565b91505092959194509250565b600067ffffffffffffffff821115612a8557612a846128bc565b5b602082029050602081019050919050565b600080fd5b600067ffffffffffffffff821115612ab657612ab56128bc565b5b612abf82612577565b9050602081019050919050565b6000612adf612ada84612a9b565b61291c565b905082815260208101848484011115612afb57612afa6128b7565b5b612b06848285612968565b509392505050565b600082601f830112612b2357612b226128b2565b5b8135612b33848260208601612acc565b91505092915050565b6000612b4f612b4a84612a6a565b61291c565b90508083825260208201905060208402830185811115612b7257612b71612a96565b5b835b81811015612bb957803567ffffffffffffffff811115612b9757612b966128b2565b5b808601612ba48982612b0e565b85526020850194505050602081019050612b74565b5050509392505050565b600082601f830112612bd857612bd76128b2565b5b8135612be8848260208601612b3c565b91505092915050565b600067ffffffffffffffff821115612c0c57612c0b6128bc565b5b602082029050602081019050919050565b612c268161270e565b8114612c3157600080fd5b50565b600081359050612c4381612c1d565b92915050565b6000612c5c612c5784612bf1565b61291c565b90508083825260208201905060208402830185811115612c7f57612c7e612a96565b5b835b81811015612ca85780612c948882612c34565b845260208401935050602081019050612c81565b5050509392505050565b600082601f830112612cc757612cc66128b2565b5b8135612cd7848260208601612c49565b91505092915050565b60008060408385031215612cf757612cf661246c565b5b600083013567ffffffffffffffff811115612d1557612d14612471565b5b612d2185828601612bc3565b925050602083013567ffffffffffffffff811115612d4257612d41612471565b5b612d4e85828601612cb2565b9150509250929050565b60008060408385031215612d6f57612d6e61246c565b5b6000612d7d858286016126b9565b9250506020612d8e858286016126b9565b9150509250929050565b7f4e487b7100000000000000000000000000000000000000000000000000000000600052602260045260246000fd5b60006002820490506001821680612ddf57607f821691505b602082108103612df257612df1612d98565b5b50919050565b6000606082019050612e0d6000830186612678565b612e1a602083018561281c565b612e276040830184612678565b949350505050565b7f4e6f7468696e6720746f20776974686472617700000000000000000000000000600082015250565b6000612e6560138361253c565b9150612e7082612e2f565b602082019050919050565b60006020820190508181036000830152612e9481612e58565b9050919050565b7f55524920717565727920666f72206e6f6e6578697374656e7420746f6b656e00600082015250565b6000612ed1601f8361253c565b9150612edc82612e9b565b602082019050919050565b60006020820190508181036000830152612f0081612ec4565b9050919050565b7f456d707479206261746368000000000000000000000000000000000000000000600082015250565b6000612f3d600b8361253c565b9150612f4882612f07565b602082019050919050565b60006020820190508181036000830152612f6c81612f30565b9050919050565b7f4d69736d61746368656420696e70757473000000000000000000000000000000600082015250565b6000612fa960118361253c565b9150612fb482612f73565b602082019050919050565b60006020820190508181036000830152612fd881612f9c565b9050919050565b7f4e487b7100000000000000000000000000000000000000000000000000000000600052601160045260246000fd5b6000613019826125e3565b9150613024836125e3565b925082820190508082111561303c5761303b612fdf565b5b92915050565b7f4d617820737570706c7920657863656564656400000000000000000000000000600082015250565b600061307860138361253c565b915061308382613042565b602082019050919050565b600060208201905081810360008301526130a78161306b565b9050919050565b7f4e487b7100000000000000000000000000000000000000000000000000000000600052603260045260246000fd5b60008190508160005260206000209050919050565b60006020601f8301049050919050565b600082821b905092915050565b60006008830261313f7fffffffffffffffffffffffffffffffffffffffffffffffffffffffffffffffff82613102565b6131498683613102565b95508019841693508086168417925050509392505050565b6000819050919050565b600061318661318161317c846125e3565b613161565b6125e3565b9050919050565b6000819050919050565b6131a08361316b565b6131b46131ac8261318d565b84845461310f565b825550505050565b600090565b6131c96131bc565b6131d4818484613197565b505050565b5b818110156131f8576131ed6000826131c1565b6001810190506131da565b5050565b601f82111561323d5761320e816130dd565b613217846130f2565b81016020851015613226578190505b61323a613232856130f2565b8301826131d9565b50505b505050565b600082821c905092915050565b600061326060001984600802613242565b1980831691505092915050565b6000613279838361324f565b9150826002028217905092915050565b61329282612531565b67ffffffffffffffff8111156132ab576132aa6128bc565b5b6132b58254612dc7565b6132c08282856131fc565b600060209050601f8311600181146132f357600084156132e1578287015190505b6132eb858261326d565b865550613353565b601f198416613301866130dd565b60005b8281101561332957848901518255600182019150602085019450602081019050613304565b868310156133465784890151613342601f89168261324f565b8355505b6001600288020188555050505b505050505050565b6000606082019050613370600083018661281c565b61337d6020830185612678565b61338a6040830184612726565b949350505050565b600061339d826125e3565b91507fffffffffffffffffffffffffffffffffffffffffffffffffffffffffffffffff82036133cf576133ce612fdf565b5b600182019050919050565b7f4e4654206e6f206c69737461646f000000000000000000000000000000000000600082015250565b6000613410600e8361253c565b915061341b826133da565b602082019050919050565b6000602082019050818103600083015261343f81613403565b9050919050565b7f416c726561647920736f6c640000000000000000000000000000000000000000600082015250565b600061347c600c8361253c565b915061348782613446565b602082019050919050565b600060208201905081810360008301526134ab8161346f565b9050919050565b7f496e73756666696369656e742066756e64730000000000000000000000000000600082015250565b60006134e860128361253c565b91506134f3826134b2565b602082019050919050565b60006020820190508181036000830152613517816134db565b9050919050565b600081519050919050565b600082825260208201905092915050565b60006135458261351e565b61354f8185613529565b935061355f81856020860161254d565b61356881612577565b840191505092915050565b60006080820190506135886000830187612678565b6135956020830186612678565b6135a2604083018561281c565b81810360608301526135b4818461353a565b905095945050505050565b6000815190506135ce816124a2565b92915050565b6000602082840312156135ea576135e961246c565b5b60006135f8848285016135bf565b91505092915050565b60006040820190506136166000830185612678565b613623602083018461281c565b939250505056fea264697066735822122035581b86b920afa3e7b1aca73e86c12b8de110aafd0e7ec60169d0c0a53c54fc64736f6c634300081c0033",
  "linkReferences": {},
  "deployedLinkReferences": {}
}