{
  "_format": "hh-sol-artifact-1",
  "contractName": "Marketplace",
  "sourceName": "contracts/Marketplace.sol",
  "abi": [
    {
      "inputs": [],
      "stateMutability": "nonpayable",
      "type": "constructor"
    },
    {
      "anonymous": false,
      "inputs": [
        {
          "indexed": true,
          "internalType": "address",
          "name": "owner",
          "type": "address"
        },
        {
          "indexed": true,
          "internalType": "address",
          "name": "approved",
          "type": "address"
        },
        {
          "indexed": true,
          "internalType": "uint256",
          "name": "tokenId",
          "type": "uint256"
        }
      ],
      "name": "Approval",
      "type": "event"
    },
    {
      "anonymous": false,
      "inputs": [
        {
          "indexed": true,
          "internalType": "address",
          "name": "owner",
          "type": "address"
        },
        {
          "indexed": true,
          "internalType": "address",
          "name": "operator",
          "type": "address"
        },
        {
          "indexed": false,
          "internalType": "bool",
          "name": "approved",
          "type": "bool"
        }
      ],
      "name": "ApprovalForAll",
      "type": "event"
    },
    {
      "anonymous": false,
      "inputs": [
        {
          "indexed": false,
          "internalType": "uint256",
          "name": "_fromTokenId",
          "type": "uint256"
        },
        {
          "indexed": false,
          "internalType": "uint256",
          "name": "_toTokenId",
          "type": "uint256"
        }
      ],
      "name": "BatchMetadataUpdate",
      "type": "event"
    },
    {
      "anonymous": false,
      "inputs": [
        {
          "indexed": true,
          "internalType": "uint256",
          "name": "tokenId",
          "type": "uint256"
        },
        {
          "indexed": false,
          "internalType": "address",
          "name": "seller",
          "type": "address"
        },
        {
          "indexed": false,
          "internalType": "uint96",
          "name": "price",
          "type": "uint96"
        }
      ],
      "name": "ItemListed",
      "type": "event"
    },
    {
      "anonymous": false,
      "inputs": [
        {
          "indexed": true,
          "internalType": "uint256",
          "name": "tokenId",
          "type": "uint256"
        },
        {
          "indexed": false,
          "internalType": "address",
          "name": "buyer",
          "type": "address"
        }
      ],
      "name": "ItemSold",
      "type": "event"
    },
    {
      "anonymous": false,
      "inputs": [
        {
          "indexed": false,
          "internalType": "uint256",
          "name": "_tokenId",
          "type": "uint256"
        }
      ],
      "name": "MetadataUpdate",
      "type": "event"
    },
    {
      "anonymous": false,
      "inputs": [
        {
          "indexed": true,
          "internalType": "address",
          "name": "previousOwner",
          "type": "address"
        },
        {
          "indexed": true,
          "internalType": "address",
          "name": "newOwner",
          "type": "address"
        }
      ],
      "name": "OwnershipTransferred",
      "type": "event"
    },
    {
      "anonymous": false,
      "inputs": [
        {
          "indexed": true,
          "internalType": "address",
          "name": "from",
          "type": "address"
        },
        {
          "indexed": true,
          "internalType": "address",
          "name": "to",
          "type": "address"
        },
        {
          "indexed": true,
          "internalType": "uint256",
          "name": "tokenId",
          "type": "uint256"
        }
      ],
      "name": "Transfer",
      "type": "event"
    },
    {
      "anonymous": false,
      "inputs": [
        {
          "indexed": true,
          "internalType": "address",
          "name": "seller",
          "type": "address"
        },
        {
          "indexed": false,
          "internalType": "uint256",
          "name": "amount",
          "type": "uint256"
        }
      ],
      "name": "Withdraw",
      "type": "event"
    },
    {
      "inputs": [
        {
          "internalType": "address",
          "name": "to",
          "type": "address"
        },
        {
          "internalType": "uint256",
          "name": "tokenId",
          "type": "uint256"
        }
      ],
      "name": "approve",
      "outputs": [],
      "stateMutability": "nonpayable",
      "type": "function"
    },
    {
      "inputs": [
        {
          "internalType": "address",
          "name": "owner",
          "type": "address"
        }
      ],
      "name": "balanceOf",
      "outputs": [
        {
          "internalType": "uint256",
          "name": "",
          "type": "uint256"
        }
      ],
      "stateMutability": "view",
      "type": "function"
    },
    {
      "inputs": [
        {
          "internalType": "uint256",
          "name": "_tokenId",
          "type": "uint256"
        }
      ],
      "name": "buy",
      "outputs": [],
      "stateMutability": "payable",
      "type": "function"
    },
    {
      "inputs": [
        {
          "internalType": "uint256",
          "name": "tokenId",
          "type": "uint256"
        }
      ],
      "name": "getApproved",
      "outputs": [
        {
          "internalType": "address",
          "name": "",
          "type": "address"
        }
      ],
      "stateMutability": "view",
      "type": "function"
    },
    {
      "inputs": [
        {
          "internalType": "uint256",
          "name": "_tokenId",
          "type": "uint256"
        }
      ],
      "name": "getListing",
      "outputs": [
        {
          "internalType": "address",
          "name": "seller",
          "type": "address"
        },
        {
          "internalType": "uint96",
          "name": "price",
          "type": "uint96"
        },
        {
          "internalType": "bool",
          "name": "isSold",
          "type": "bool"
        }
      ],
      "stateMutability": "view",
      "type": "function"
    },
    {
      "inputs": [
        {
          "internalType": "address",
          "name": "owner",
          "type": "address"
        },
        {
          "internalType": "address",
          "name": "operator",
          "type": "address"
        }
      ],
      "name": "isApprovedForAll",
      "outputs": [
        {
          "internalType": "bool",
          "name": "",
          "type": "bool"
        }
      ],
      "stateMutability": "view",
      "type": "function"
    },
    {
      "inputs": [],
      "name": "listingFee",
      "outputs": [
        {
          "internalType": "uint256",
          "name": "",
          "type": "uint256"
        }
      ],
      "stateMutability": "view",
      "type": "function"
    },
    {
      "inputs": [
        {
          "internalType": "uint256",
          "name": "",
          "type": "uint256"
        }
      ],
      "name": "listings",
      "outputs": [
        {
          "internalType": "address",
          "name": "seller",
          "type": "address"
        },
        {
          "internalType": "uint96",
          "name": "price",
          "type": "uint96"
        },
        {
          "internalType": "bool",
          "name": "isSold",
          "type": "bool"
        }
      ],
      "stateMutability": "view",
      "type": "function"
    },
    {
      "inputs": [
        {
          "internalType": "string",
          "name": "_uri",
          "type": "string"
        },
        {
          "internalType": "uint96",
          "name": "_price",
          "type": "uint96"
        }
      ],
      "name": "mintAndList",
      "outputs": [],
      "stateMutability": "payable",
      "type": "function"
    },
    {
      "inputs": [],
      "name": "name",
      "outputs": [
        {
          "internalType": "string",
          "name": "",
          "type": "string"
        }
      ],
      "stateMutability": "view",
      "type": "function"
    },
    {
      "inputs": [],
      "name": "nextTokenId",
      "outputs": [
        {
          "internalType": "uint256",
          "name": "",
          "type": "uint256"
        }
      ],
      "stateMutability": "view",
      "type": "function"
    },
    {
      "inputs": [],
      "name": "owner",
      "outputs": [
        {
          "internalType": "address",
          "name": "",
          "type": "address"
        }
      ],
      "stateMutability": "view",
      "type": "function"
    },
    {
      "inputs": [
        {
          "internalType": "uint256",
          "name": "tokenId",
          "type": "uint256"
        }
      ],
      "name": "ownerOf",
      "outputs": [
        {
          "internalType": "address",
          "name": "",
          "type": "address"
        }
      ],
      "stateMutability": "view",
      "type": "function"
    },
    {
      "inputs": [
        {
          "internalType": "address",
          "name": "",
          "type": "address"
        }
      ],
      "name": "pendingWithdrawals",
      "outputs": [
        {
          "internalType": "uint256",
          "name": "",
          "type": "uint256"
        }
      ],
      "stateMutability": "view",
      "type": "function"
    },
    {
      "inputs": [],
      "name": "renounceOwnership",
      "outputs": [],
      "stateMutability": "nonpayable",
      "type": "function"
    },
    {
      "inputs": [
        {
          "internalType": "address",
          "name": "from",
          "type": "address"
        },
        {
          "internalType": "address",
          "name": "to",
          "type": "address"
        },
        {
          "internalType": "uint256",
          "name": "tokenId",
          "type": "uint256"
        }
      ],
      "name": "safeTransferFrom",
      "outputs": [],
      "stateMutability": "nonpayable",
      "type": "function"
    },
    {
      "inputs": [
        {
          "internalType": "address",
          "name": "from",
          "type": "address"
        },
        {
          "internalType": "address",
          "name": "to",
          "type": "address"
        },
        {
          "internalType": "uint256",
          "name": "tokenId",
          "type": "uint256"
        },
        {
          "internalType": "bytes",
          "name": "data",
          "type": "bytes"
        }
      ],
      "name": "safeTransferFrom",
      "outputs": [],
      "stateMutability": "nonpayable",
      "type": "function"
    },
    {
      "inputs": [
        {
          "internalType": "address",
          "name": "operator",
          "type": "address"
        },
        {
          "internalType": "bool",
          "name": "approved",
          "type": "bool"
        }
      ],
      "name": "setApprovalForAll",
      "outputs": [],
      "stateMutability": "nonpayable",
      "type": "function"
    },
    {
      "inputs": [
        {
          "internalType": "bytes4",
          "name": "interfaceId",
          "type": "bytes4"
        }
      ],
      "name": "supportsInterface",
      "outputs": [
        {
          "internalType": "bool",
          "name": "",
          "type": "bool"
        }
      ],
      "stateMutability": "view",
      "type": "function"
    },
    {
      "inputs": [],
      "name": "symbol",
      "outputs": [
        {
          "internalType": "string",
          "name": "",
          "type": "string"
        }
      ],
      "stateMutability": "view",
      "type": "function"
    },
    {
      "inputs": [
        {
          "internalType": "uint256",
          "name": "tokenId",
          "type": "uint256"
        }
      ],
      "name": "tokenURI",
      "outputs": [
        {
          "internalType": "string",
          "name": "",
          "type": "string"
        }
      ],
      "stateMutability": "view",
      "type": "function"
    },
    {
      "inputs": [
        {
          "internalType": "address",
          "name": "from",
          "type": "address"
        },
        {
          "internalType": "address",
          "name": "to",
          "type": "address"
        },
        {
          "internalType": "uint256",
          "name": "tokenId",
          "type": "uint256"
        }
      ],
      "name": "transferFrom",
      "outputs": [],
      "stateMutability": "nonpayable",
      "type": "function"
    },
    {
      "inputs": [
        {
          "internalType": "address",
          "name": "newOwner",
          "type": "address"
        }
      ],
      "name": "transferOwnership",
      "outputs": [],
      "stateMutability": "nonpayable",
      "type": "function"
    },
    {
      "inputs": [],
      "name": "withdraw",
      "outputs": [],
      "stateMutability": "nonpayable",
      "type": "function"
    }
  ],
  "bytecode": "0x6080604052662386f26fc1000060095534801561001b57600080fd5b506040518060400160405280600581526020017f4d694e46540000000000000000000000000000000000000000000000000000008152506040518060400160405280600481526020017f4d4e465400000000000000000000000000000000000000000000000000000000815250816000908161009791906103e9565b5080600190816100a791906103e9565b5050506100c66100bb6100cb60201b60201c565b6100d360201b60201c565b6104bb565b600033905090565b6000600760009054906101000a900473ffffffffffffffffffffffffffffffffffffffff16905081600760006101000a81548173ffffffffffffffffffffffffffffffffffffffff021916908373ffffffffffffffffffffffffffffffffffffffff1602179055508173ffffffffffffffffffffffffffffffffffffffff168173ffffffffffffffffffffffffffffffffffffffff167f8be0079c531659141344cd1fd0a4f28419497f9722a3daafe3b4186f6b6457e060405160405180910390a35050565b600081519050919050565b7f4e487b7100000000000000000000000000000000000000000000000000000000600052604160045260246000fd5b7f4e487b7100000000000000000000000000000000000000000000000000000000600052602260045260246000fd5b6000600282049050600182168061021a57607f821691505b60208210810361022d5761022c6101d3565b5b50919050565b60008190508160005260206000209050919050565b60006020601f8301049050919050565b600082821b905092915050565b6000600883026102957fffffffffffffffffffffffffffffffffffffffffffffffffffffffffffffffff82610258565b61029f8683610258565b95508019841693508086168417925050509392505050565b6000819050919050565b6000819050919050565b60006102e66102e16102dc846102b7565b6102c1565b6102b7565b9050919050565b6000819050919050565b610300836102cb565b61031461030c826102ed565b848454610265565b825550505050565b600090565b61032961031c565b6103348184846102f7565b505050565b5b818110156103585761034d600082610321565b60018101905061033a565b5050565b601f82111561039d5761036e81610233565b61037784610248565b81016020851015610386578190505b61039a61039285610248565b830182610339565b50505b505050565b600082821c905092915050565b60006103c0600019846008026103a2565b1980831691505092915050565b60006103d983836103af565b9150826002028217905092915050565b6103f282610199565b67ffffffffffffffff81111561040b5761040a6101a4565b5b6104158254610202565b61042082828561035c565b600060209050601f8311600181146104535760008415610441578287015190505b61044b85826103cd565b8655506104b3565b601f19841661046186610233565b60005b8281101561048957848901518255600182019150602085019450602081019050610464565b868310156104a657848901516104a2601f8916826103af565b8355505b6001600288020188555050505b505050505050565b613ada806104ca6000396000f3fe60806040526004361061014b5760003560e01c806372623274116100b6578063c87b56dd1161006f578063c87b56dd14610471578063d96a094a146104ae578063de74e57b146104ca578063e985e9c514610509578063f2fde38b14610546578063f3f437031461056f5761014b565b8063726232741461038257806375794a3c1461039e5780638da5cb5b146103c957806395d89b41146103f4578063a22cb4651461041f578063b88d4fde146104485761014b565b80633ccfd60b116101085780633ccfd60b1461028657806342842e0e1461029d5780636352211e146102c65780636a1b7ecc1461030357806370a082311461032e578063715018a61461036b5761014b565b806301ffc9a71461015057806306fdde031461018d578063081812fc146101b8578063095ea7b3146101f5578063107a274a1461021e57806323b872dd1461025d575b600080fd5b34801561015c57600080fd5b5061017760048036038101906101729190612551565b6105ac565b6040516101849190612599565b60405180910390f35b34801561019957600080fd5b506101a261060d565b6040516101af9190612644565b60405180910390f35b3480156101c457600080fd5b506101df60048036038101906101da919061269c565b61069f565b6040516101ec919061270a565b60405180910390f35b34801561020157600080fd5b5061021c60048036038101906102179190612751565b6106e5565b005b34801561022a57600080fd5b506102456004803603810190610240919061269c565b6107fc565b604051610254939291906127b8565b60405180910390f35b34801561026957600080fd5b50610284600480360381019061027f91906127ef565b6108ee565b005b34801561029257600080fd5b5061029b61094e565b005b3480156102a957600080fd5b506102c460048036038101906102bf91906127ef565b610ab2565b005b3480156102d257600080fd5b506102ed60048036038101906102e8919061269c565b610ad2565b6040516102fa919061270a565b60405180910390f35b34801561030f57600080fd5b50610318610b58565b6040516103259190612851565b60405180910390f35b34801561033a57600080fd5b506103556004803603810190610350919061286c565b610b5e565b6040516103629190612851565b60405180910390f35b34801561037757600080fd5b50610380610c15565b005b61039c600480360381019061039791906129fa565b610c29565b005b3480156103aa57600080fd5b506103b3610e23565b6040516103c09190612851565b60405180910390f35b3480156103d557600080fd5b506103de610e29565b6040516103eb919061270a565b60405180910390f35b34801561040057600080fd5b50610409610e53565b6040516104169190612644565b60405180910390f35b34801561042b57600080fd5b5061044660048036038101906104419190612a82565b610ee5565b005b34801561045457600080fd5b5061046f600480360381019061046a9190612b63565b610efb565b005b34801561047d57600080fd5b506104986004803603810190610493919061269c565b610f5d565b6040516104a59190612644565b60405180910390f35b6104c860048036038101906104c3919061269c565b61106f565b005b3480156104d657600080fd5b506104f160048036038101906104ec919061269c565b611247565b604051610500939291906127b8565b60405180910390f35b34801561051557600080fd5b50610530600480360381019061052b9190612be6565b6112b6565b60405161053d9190612599565b60405180910390f35b34801561055257600080fd5b5061056d6004803603810190610568919061286c565b61134a565b005b34801561057b57600080fd5b506105966004803603810190610591919061286c565b6113cd565b6040516105a39190612851565b60405180910390f35b6000634906490660e01b7bffffffffffffffffffffffffffffffffffffffffffffffffffffffff1916827bffffffffffffffffffffffffffffffffffffffffffffffffffffffff191614806106065750610605826113e5565b5b9050919050565b60606000805461061c90612c55565b80601f016020809104026020016040519081016040528092919081815260200182805461064890612c55565b80156106955780601f1061066a57610100808354040283529160200191610695565b820191906000526020600020905b81548152906001019060200180831161067857829003601f168201915b5050505050905090565b60006106aa826114c7565b6004600083815260200190815260200160002060009054906101000a900473ffffffffffffffffffffffffffffffffffffffff169050919050565b60006106f082610ad2565b90508073ffffffffffffffffffffffffffffffffffffffff168373ffffffffffffffffffffffffffffffffffffffff1603610760576040517f08c379a000000000000000000000000000000000000000000000000000000000815260040161075790612cf8565b60405180910390fd5b8073ffffffffffffffffffffffffffffffffffffffff1661077f611512565b73ffffffffffffffffffffffffffffffffffffffff1614806107ae57506107ad816107a8611512565b6112b6565b5b6107ed576040517f08c379a00000000000000000000000000000000000000000000000000000000081526004016107e490612d8a565b60405180910390fd5b6107f7838361151a565b505050565b600080600080600a60008681526020019081526020016000206040518060600160405290816000820160009054906101000a900473ffffffffffffffffffffffffffffffffffffffff1673ffffffffffffffffffffffffffffffffffffffff1673ffffffffffffffffffffffffffffffffffffffff1681526020016000820160149054906101000a90046bffffffffffffffffffffffff166bffffffffffffffffffffffff166bffffffffffffffffffffffff1681526020016001820160009054906101000a900460ff1615151515815250509050806000015181602001518260400151935093509350509193909250565b6108ff6108f9611512565b826115d3565b61093e576040517f08c379a000000000000000000000000000000000000000000000000000000000815260040161093590612e1c565b60405180910390fd5b610949838383611668565b505050565b6000600b60003373ffffffffffffffffffffffffffffffffffffffff1673ffffffffffffffffffffffffffffffffffffffff168152602001908152602001600020549050600081116109d5576040517f08c379a00000000000000000000000000000000000000000000000000000000081526004016109cc90612e88565b60405180910390fd5b6000600b60003373ffffffffffffffffffffffffffffffffffffffff1673ffffffffffffffffffffffffffffffffffffffff168152602001908152602001600020819055503373ffffffffffffffffffffffffffffffffffffffff166108fc829081150290604051600060405180830381858888f19350505050158015610a60573d6000803e3d6000fd5b503373ffffffffffffffffffffffffffffffffffffffff167f884edad9ce6fa2440d8a54cc123490eb96d2768479d49ff9c7366125a942436482604051610aa79190612851565b60405180910390a250565b610acd83838360405180602001604052806000815250610efb565b505050565b600080610ade83611961565b9050600073ffffffffffffffffffffffffffffffffffffffff168173ffffffffffffffffffffffffffffffffffffffff1603610b4f576040517f08c379a0000000000000000000000000000000000000000000000000000000008152600401610b4690612ef4565b60405180910390fd5b80915050919050565b60095481565b60008073ffffffffffffffffffffffffffffffffffffffff168273ffffffffffffffffffffffffffffffffffffffff1603610bce576040517f08c379a0000000000000000000000000000000000000000000000000000000008152600401610bc590612f86565b60405180910390fd5b600360008373ffffffffffffffffffffffffffffffffffffffff1673ffffffffffffffffffffffffffffffffffffffff168152602001908152602001600020549050919050565b610c1d61199e565b610c276000611a1c565b565b600954341015610c6e576040517f08c379a0000000000000000000000000000000000000000000000000000000008152600401610c6590612ff2565b60405180910390fd5b6000816bffffffffffffffffffffffff1611610cbf576040517f08c379a0000000000000000000000000000000000000000000000000000000008152600401610cb69061305e565b60405180910390fd5b600060086000815480929190610cd4906130ad565b919050559050610ce43382611ae2565b610cee8184611b00565b60405180606001604052803373ffffffffffffffffffffffffffffffffffffffff168152602001836bffffffffffffffffffffffff16815260200160001515815250600a600083815260200190815260200160002060008201518160000160006101000a81548173ffffffffffffffffffffffffffffffffffffffff021916908373ffffffffffffffffffffffffffffffffffffffff16021790555060208201518160000160146101000a8154816bffffffffffffffffffffffff02191690836bffffffffffffffffffffffff16021790555060408201518160010160006101000a81548160ff021916908315150217905550905050807f74853d0857487d8ab8813c4ff8c6740981eaa76fc83634f27c8f6b51d90b79d03384604051610e169291906130f5565b60405180910390a2505050565b60085481565b6000600760009054906101000a900473ffffffffffffffffffffffffffffffffffffffff16905090565b606060018054610e6290612c55565b80601f0160208091040260200160405190810160405280929190818152602001828054610e8e90612c55565b8015610edb5780601f10610eb057610100808354040283529160200191610edb565b820191906000526020600020905b815481529060010190602001808311610ebe57829003601f168201915b5050505050905090565b610ef7610ef0611512565b8383611ba4565b5050565b610f0c610f06611512565b836115d3565b610f4b576040517f08c379a0000000000000000000000000000000000000000000000000000000008152600401610f4290612e1c565b60405180910390fd5b610f5784848484611d10565b50505050565b6060610f68826114c7565b6000600660008481526020019081526020016000208054610f8890612c55565b80601f0160208091040260200160405190810160405280929190818152602001828054610fb490612c55565b80156110015780601f10610fd657610100808354040283529160200191611001565b820191906000526020600020905b815481529060010190602001808311610fe457829003601f168201915b505050505090506000611012611d6c565b9050600081510361102757819250505061106a565b60008251111561105c57808260405160200161104492919061315a565b6040516020818303038152906040529250505061106a565b61106584611d83565b925050505b919050565b6000600a600083815260200190815260200160002090508060010160009054906101000a900460ff16156110d8576040517f08c379a00000000000000000000000000000000000000000000000000000000081526004016110cf906131ca565b60405180910390fd5b8060000160149054906101000a90046bffffffffffffffffffffffff166bffffffffffffffffffffffff16341015611145576040517f08c379a000000000000000000000000000000000000000000000000000000000815260040161113c90613236565b60405180910390fd5b60018160010160006101000a81548160ff02191690831515021790555034600b60008360000160009054906101000a900473ffffffffffffffffffffffffffffffffffffffff1673ffffffffffffffffffffffffffffffffffffffff1673ffffffffffffffffffffffffffffffffffffffff16815260200190815260200160002060008282546111d59190613256565b9250508190555061120b8160000160009054906101000a900473ffffffffffffffffffffffffffffffffffffffff163384611668565b817f7de4035ced290be6d7724645d43bad448b5d8cc76743ff4da172c2d8e1caa0f53360405161123b919061270a565b60405180910390a25050565b600a6020528060005260406000206000915090508060000160009054906101000a900473ffffffffffffffffffffffffffffffffffffffff16908060000160149054906101000a90046bffffffffffffffffffffffff16908060010160009054906101000a900460ff16905083565b6000600560008473ffffffffffffffffffffffffffffffffffffffff1673ffffffffffffffffffffffffffffffffffffffff16815260200190815260200160002060008373ffffffffffffffffffffffffffffffffffffffff1673ffffffffffffffffffffffffffffffffffffffff16815260200190815260200160002060009054906101000a900460ff16905092915050565b61135261199e565b600073ffffffffffffffffffffffffffffffffffffffff168173ffffffffffffffffffffffffffffffffffffffff16036113c1576040517f08c379a00000000000000000000000000000000000000000000000000000000081526004016113b8906132fc565b60405180910390fd5b6113ca81611a1c565b50565b600b6020528060005260406000206000915090505481565b60007f80ac58cd000000000000000000000000000000000000000000000000000000007bffffffffffffffffffffffffffffffffffffffffffffffffffffffff1916827bffffffffffffffffffffffffffffffffffffffffffffffffffffffff191614806114b057507f5b5e139f000000000000000000000000000000000000000000000000000000007bffffffffffffffffffffffffffffffffffffffffffffffffffffffff1916827bffffffffffffffffffffffffffffffffffffffffffffffffffffffff1916145b806114c057506114bf82611deb565b5b9050919050565b6114d081611e55565b61150f576040517f08c379a000000000000000000000000000000000000000000000000000000000815260040161150690612ef4565b60405180910390fd5b50565b600033905090565b816004600083815260200190815260200160002060006101000a81548173ffffffffffffffffffffffffffffffffffffffff021916908373ffffffffffffffffffffffffffffffffffffffff160217905550808273ffffffffffffffffffffffffffffffffffffffff1661158d83610ad2565b73ffffffffffffffffffffffffffffffffffffffff167f8c5be1e5ebec7d5bd14f71427d1e84f3dd0314c0f7b2291e5b200ac8c7c3b92560405160405180910390a45050565b6000806115df83610ad2565b90508073ffffffffffffffffffffffffffffffffffffffff168473ffffffffffffffffffffffffffffffffffffffff161480611621575061162081856112b6565b5b8061165f57508373ffffffffffffffffffffffffffffffffffffffff166116478461069f565b73ffffffffffffffffffffffffffffffffffffffff16145b91505092915050565b8273ffffffffffffffffffffffffffffffffffffffff1661168882610ad2565b73ffffffffffffffffffffffffffffffffffffffff16146116de576040517f08c379a00000000000000000000000000000000000000000000000000000000081526004016116d59061338e565b60405180910390fd5b600073ffffffffffffffffffffffffffffffffffffffff168273ffffffffffffffffffffffffffffffffffffffff160361174d576040517f08c379a000000000000000000000000000000000000000000000000000000000815260040161174490613420565b60405180910390fd5b61175a8383836001611e96565b8273ffffffffffffffffffffffffffffffffffffffff1661177a82610ad2565b73ffffffffffffffffffffffffffffffffffffffff16146117d0576040517f08c379a00000000000000000000000000000000000000000000000000000000081526004016117c79061338e565b60405180910390fd5b6004600082815260200190815260200160002060006101000a81549073ffffffffffffffffffffffffffffffffffffffff02191690556001600360008573ffffffffffffffffffffffffffffffffffffffff1673ffffffffffffffffffffffffffffffffffffffff168152602001908152602001600020600082825403925050819055506001600360008473ffffffffffffffffffffffffffffffffffffffff1673ffffffffffffffffffffffffffffffffffffffff16815260200190815260200160002060008282540192505081905550816002600083815260200190815260200160002060006101000a81548173ffffffffffffffffffffffffffffffffffffffff021916908373ffffffffffffffffffffffffffffffffffffffff160217905550808273ffffffffffffffffffffffffffffffffffffffff168473ffffffffffffffffffffffffffffffffffffffff167fddf252ad1be2c89b69c2b068fc378daa952ba7f163c4a11628f55a4df523b3ef60405160405180910390a461195c8383836001611e9c565b505050565b60006002600083815260200190815260200160002060009054906101000a900473ffffffffffffffffffffffffffffffffffffffff169050919050565b6119a6611512565b73ffffffffffffffffffffffffffffffffffffffff166119c4610e29565b73ffffffffffffffffffffffffffffffffffffffff1614611a1a576040517f08c379a0000000000000000000000000000000000000000000000000000000008152600401611a119061348c565b60405180910390fd5b565b6000600760009054906101000a900473ffffffffffffffffffffffffffffffffffffffff16905081600760006101000a81548173ffffffffffffffffffffffffffffffffffffffff021916908373ffffffffffffffffffffffffffffffffffffffff1602179055508173ffffffffffffffffffffffffffffffffffffffff168173ffffffffffffffffffffffffffffffffffffffff167f8be0079c531659141344cd1fd0a4f28419497f9722a3daafe3b4186f6b6457e060405160405180910390a35050565b611afc828260405180602001604052806000815250611ea2565b5050565b611b0982611e55565b611b48576040517f08c379a0000000000000000000000000000000000000000000000000000000008152600401611b3f9061351e565b60405180910390fd5b80600660008481526020019081526020016000209081611b6891906136ea565b507ff8e1a15aba9398e019f0b49df1a4fde98ee17ae345cb5f6b5e2c27f5033e8ce782604051611b989190612851565b60405180910390a15050565b8173ffffffffffffffffffffffffffffffffffffffff168373ffffffffffffffffffffffffffffffffffffffff1603611c12576040517f08c379a0000000000000000000000000000000000000000000000000000000008152600401611c0990613808565b60405180910390fd5b80600560008573ffffffffffffffffffffffffffffffffffffffff1673ffffffffffffffffffffffffffffffffffffffff16815260200190815260200160002060008473ffffffffffffffffffffffffffffffffffffffff1673ffffffffffffffffffffffffffffffffffffffff16815260200190815260200160002060006101000a81548160ff0219169083151502179055508173ffffffffffffffffffffffffffffffffffffffff168373ffffffffffffffffffffffffffffffffffffffff167f17307eab39ab6107e8899845ad3d59bd9653f200f220920489ca2b5937696c3183604051611d039190612599565b60405180910390a3505050565b611d1b848484611668565b611d2784848484611efd565b611d66576040517f08c379a0000000000000000000000000000000000000000000000000000000008152600401611d5d9061389a565b60405180910390fd5b50505050565b606060405180602001604052806000815250905090565b6060611d8e826114c7565b6000611d98611d6c565b90506000815111611db85760405180602001604052806000815250611de3565b80611dc284612084565b604051602001611dd392919061315a565b6040516020818303038152906040525b915050919050565b60007f01ffc9a7000000000000000000000000000000000000000000000000000000007bffffffffffffffffffffffffffffffffffffffffffffffffffffffff1916827bffffffffffffffffffffffffffffffffffffffffffffffffffffffff1916149050919050565b60008073ffffffffffffffffffffffffffffffffffffffff16611e7783611961565b73ffffffffffffffffffffffffffffffffffffffff1614159050919050565b50505050565b50505050565b611eac8383612152565b611eb96000848484611efd565b611ef8576040517f08c379a0000000000000000000000000000000000000000000000000000000008152600401611eef9061389a565b60405180910390fd5b505050565b6000611f1e8473ffffffffffffffffffffffffffffffffffffffff1661236f565b15612077578373ffffffffffffffffffffffffffffffffffffffff1663150b7a02611f47611512565b8786866040518563ffffffff1660e01b8152600401611f69949392919061390f565b6020604051808303816000875af1925050508015611fa557506040513d601f19601f82011682018060405250810190611fa29190613970565b60015b612027573d8060008114611fd5576040519150601f19603f3d011682016040523d82523d6000602084013e611fda565b606091505b50600081510361201f576040517f08c379a00000000000000000000000000000000000000000000000000000000081526004016120169061389a565b60405180910390fd5b805181602001fd5b63150b7a0260e01b7bffffffffffffffffffffffffffffffffffffffffffffffffffffffff1916817bffffffffffffffffffffffffffffffffffffffffffffffffffffffff19161491505061207c565b600190505b949350505050565b60606000600161209384612392565b01905060008167ffffffffffffffff8111156120b2576120b16128a3565b5b6040519080825280601f01601f1916602001820160405280156120e45781602001600182028036833780820191505090505b509050600082602001820190505b600115612147578080600190039150507f3031323334353637383961626364656600000000000000000000000000000000600a86061a8153600a858161213b5761213a61399d565b5b049450600085036120f2575b819350505050919050565b600073ffffffffffffffffffffffffffffffffffffffff168273ffffffffffffffffffffffffffffffffffffffff16036121c1576040517f08c379a00000000000000000000000000000000000000000000000000000000081526004016121b890613a18565b60405180910390fd5b6121ca81611e55565b1561220a576040517f08c379a000000000000000000000000000000000000000000000000000000000815260040161220190613a84565b60405180910390fd5b612218600083836001611e96565b61222181611e55565b15612261576040517f08c379a000000000000000000000000000000000000000000000000000000000815260040161225890613a84565b60405180910390fd5b6001600360008473ffffffffffffffffffffffffffffffffffffffff1673ffffffffffffffffffffffffffffffffffffffff16815260200190815260200160002060008282540192505081905550816002600083815260200190815260200160002060006101000a81548173ffffffffffffffffffffffffffffffffffffffff021916908373ffffffffffffffffffffffffffffffffffffffff160217905550808273ffffffffffffffffffffffffffffffffffffffff16600073ffffffffffffffffffffffffffffffffffffffff167fddf252ad1be2c89b69c2b068fc378daa952ba7f163c4a11628f55a4df523b3ef60405160405180910390a461236b600083836001611e9c565b5050565b6000808273ffffffffffffffffffffffffffffffffffffffff163b119050919050565b600080600090507a184f03e93ff9f4daa797ed6e38ed64bf6a1f01000000000000000083106123f0577a184f03e93ff9f4daa797ed6e38ed64bf6a1f01000000000000000083816123e6576123e561399d565b5b0492506040810190505b6d04ee2d6d415b85acef8100000000831061242d576d04ee2d6d415b85acef810000000083816124235761242261399d565b5b0492506020810190505b662386f26fc10000831061245c57662386f26fc1000083816124525761245161399d565b5b0492506010810190505b6305f5e1008310612485576305f5e100838161247b5761247a61399d565b5b0492506008810190505b61271083106124aa5761271083816124a05761249f61399d565b5b0492506004810190505b606483106124cd57606483816124c3576124c261399d565b5b0492506002810190505b600a83106124dc576001810190505b80915050919050565b6000604051905090565b600080fd5b600080fd5b60007fffffffff0000000000000000000000000000000000000000000000000000000082169050919050565b61252e816124f9565b811461253957600080fd5b50565b60008135905061254b81612525565b92915050565b600060208284031215612567576125666124ef565b5b60006125758482850161253c565b91505092915050565b60008115159050919050565b6125938161257e565b82525050565b60006020820190506125ae600083018461258a565b92915050565b600081519050919050565b600082825260208201905092915050565b60005b838110156125ee5780820151818401526020810190506125d3565b60008484015250505050565b6000601f19601f8301169050919050565b6000612616826125b4565b61262081856125bf565b93506126308185602086016125d0565b612639816125fa565b840191505092915050565b6000602082019050818103600083015261265e818461260b565b905092915050565b6000819050919050565b61267981612666565b811461268457600080fd5b50565b60008135905061269681612670565b92915050565b6000602082840312156126b2576126b16124ef565b5b60006126c084828501612687565b91505092915050565b600073ffffffffffffffffffffffffffffffffffffffff82169050919050565b60006126f4826126c9565b9050919050565b612704816126e9565b82525050565b600060208201905061271f60008301846126fb565b92915050565b61272e816126e9565b811461273957600080fd5b50565b60008135905061274b81612725565b92915050565b60008060408385031215612768576127676124ef565b5b60006127768582860161273c565b925050602061278785828601612687565b9150509250929050565b60006bffffffffffffffffffffffff82169050919050565b6127b281612791565b82525050565b60006060820190506127cd60008301866126fb565b6127da60208301856127a9565b6127e7604083018461258a565b949350505050565b600080600060608486031215612808576128076124ef565b5b60006128168682870161273c565b93505060206128278682870161273c565b925050604061283886828701612687565b9150509250925092565b61284b81612666565b82525050565b60006020820190506128666000830184612842565b92915050565b600060208284031215612882576128816124ef565b5b60006128908482850161273c565b91505092915050565b600080fd5b600080fd5b7f4e487b7100000000000000000000000000000000000000000000000000000000600052604160045260246000fd5b6128db826125fa565b810181811067ffffffffffffffff821117156128fa576128f96128a3565b5b80604052505050565b600061290d6124e5565b905061291982826128d2565b919050565b600067ffffffffffffffff821115612939576129386128a3565b5b612942826125fa565b9050602081019050919050565b82818337600083830152505050565b600061297161296c8461291e565b612903565b90508281526020810184848401111561298d5761298c61289e565b5b61299884828561294f565b509392505050565b600082601f8301126129b5576129b4612899565b5b81356129c584826020860161295e565b91505092915050565b6129d781612791565b81146129e257600080fd5b50565b6000813590506129f4816129ce565b92915050565b60008060408385031215612a1157612a106124ef565b5b600083013567ffffffffffffffff811115612a2f57612a2e6124f4565b5b612a3b858286016129a0565b9250506020612a4c858286016129e5565b9150509250929050565b612a5f8161257e565b8114612a6a57600080fd5b50565b600081359050612a7c81612a56565b92915050565b60008060408385031215612a9957612a986124ef565b5b6000612aa78582860161273c565b9250506020612ab885828601612a6d565b9150509250929050565b600067ffffffffffffffff821115612add57612adc6128a3565b5b612ae6826125fa565b9050602081019050919050565b6000612b06612b0184612ac2565b612903565b905082815260208101848484011115612b2257612b2161289e565b5b612b2d84828561294f565b509392505050565b600082601f830112612b4a57612b49612899565b5b8135612b5a848260208601612af3565b91505092915050565b60008060008060808587031215612b7d57612b7c6124ef565b5b6000612b8b8782880161273c565b9450506020612b9c8782880161273c565b9350506040612bad87828801612687565b925050606085013567ffffffffffffffff811115612bce57612bcd6124f4565b5b612bda87828801612b35565b91505092959194509250565b60008060408385031215612bfd57612bfc6124ef565b5b6000612c0b8582860161273c565b9250506020612c1c8582860161273c565b9150509250929050565b7f4e487b7100000000000000000000000000000000000000000000000000000000600052602260045260246000fd5b60006002820490506001821680612c6d57607f821691505b602082108103612c8057612c7f612c26565b5b50919050565b7f4552433732313a20617070726f76616c20746f2063757272656e74206f776e6560008201527f7200000000000000000000000000000000000000000000000000000000000000602082015250565b6000612ce26021836125bf565b9150612ced82612c86565b604082019050919050565b60006020820190508181036000830152612d1181612cd5565b9050919050565b7f4552433732313a20617070726f76652063616c6c6572206973206e6f7420746f60008201527f6b656e206f776e6572206f7220617070726f76656420666f7220616c6c000000602082015250565b6000612d74603d836125bf565b9150612d7f82612d18565b604082019050919050565b60006020820190508181036000830152612da381612d67565b9050919050565b7f4552433732313a2063616c6c6572206973206e6f7420746f6b656e206f776e6560008201527f72206f7220617070726f76656400000000000000000000000000000000000000602082015250565b6000612e06602d836125bf565b9150612e1182612daa565b604082019050919050565b60006020820190508181036000830152612e3581612df9565b9050919050565b7f4e6f2066756e647320746f207769746864726177000000000000000000000000600082015250565b6000612e726014836125bf565b9150612e7d82612e3c565b602082019050919050565b60006020820190508181036000830152612ea181612e65565b9050919050565b7f4552433732313a20696e76616c696420746f6b656e2049440000000000000000600082015250565b6000612ede6018836125bf565b9150612ee982612ea8565b602082019050919050565b60006020820190508181036000830152612f0d81612ed1565b9050919050565b7f4552433732313a2061646472657373207a65726f206973206e6f74206120766160008201527f6c6964206f776e65720000000000000000000000000000000000000000000000602082015250565b6000612f706029836125bf565b9150612f7b82612f14565b604082019050919050565b60006020820190508181036000830152612f9f81612f63565b9050919050565b7f4c697374696e6720666565207265717569726564000000000000000000000000600082015250565b6000612fdc6014836125bf565b9150612fe782612fa6565b602082019050919050565b6000602082019050818103600083015261300b81612fcf565b9050919050565b7f5072696365206d7573742062652067726561746572207468616e203000000000600082015250565b6000613048601c836125bf565b915061305382613012565b602082019050919050565b600060208201905081810360008301526130778161303b565b9050919050565b7f4e487b7100000000000000000000000000000000000000000000000000000000600052601160045260246000fd5b60006130b882612666565b91507fffffffffffffffffffffffffffffffffffffffffffffffffffffffffffffffff82036130ea576130e961307e565b5b600182019050919050565b600060408201905061310a60008301856126fb565b61311760208301846127a9565b9392505050565b600081905092915050565b6000613134826125b4565b61313e818561311e565b935061314e8185602086016125d0565b80840191505092915050565b60006131668285613129565b91506131728284613129565b91508190509392505050565b7f4974656d20616c726561647920736f6c64000000000000000000000000000000600082015250565b60006131b46011836125bf565b91506131bf8261317e565b602082019050919050565b600060208201905081810360008301526131e3816131a7565b9050919050565b7f4e6f7420656e6f756768204554482073656e7400000000000000000000000000600082015250565b60006132206013836125bf565b915061322b826131ea565b602082019050919050565b6000602082019050818103600083015261324f81613213565b9050919050565b600061326182612666565b915061326c83612666565b92508282019050808211156132845761328361307e565b5b92915050565b7f4f776e61626c653a206e6577206f776e657220697320746865207a65726f206160008201527f6464726573730000000000000000000000000000000000000000000000000000602082015250565b60006132e66026836125bf565b91506132f18261328a565b604082019050919050565b60006020820190508181036000830152613315816132d9565b9050919050565b7f4552433732313a207472616e736665722066726f6d20696e636f72726563742060008201527f6f776e6572000000000000000000000000000000000000000000000000000000602082015250565b60006133786025836125bf565b91506133838261331c565b604082019050919050565b600060208201905081810360008301526133a78161336b565b9050919050565b7f4552433732313a207472616e7366657220746f20746865207a65726f2061646460008201527f7265737300000000000000000000000000000000000000000000000000000000602082015250565b600061340a6024836125bf565b9150613415826133ae565b604082019050919050565b60006020820190508181036000830152613439816133fd565b9050919050565b7f4f776e61626c653a2063616c6c6572206973206e6f7420746865206f776e6572600082015250565b60006134766020836125bf565b915061348182613440565b602082019050919050565b600060208201905081810360008301526134a581613469565b9050919050565b7f45524337323155524953746f726167653a2055524920736574206f66206e6f6e60008201527f6578697374656e7420746f6b656e000000000000000000000000000000000000602082015250565b6000613508602e836125bf565b9150613513826134ac565b604082019050919050565b60006020820190508181036000830152613537816134fb565b9050919050565b60008190508160005260206000209050919050565b60006020601f8301049050919050565b600082821b905092915050565b6000600883026135a07fffffffffffffffffffffffffffffffffffffffffffffffffffffffffffffffff82613563565b6135aa8683613563565b95508019841693508086168417925050509392505050565b6000819050919050565b60006135e76135e26135dd84612666565b6135c2565b612666565b9050919050565b6000819050919050565b613601836135cc565b61361561360d826135ee565b848454613570565b825550505050565b600090565b61362a61361d565b6136358184846135f8565b505050565b5b818110156136595761364e600082613622565b60018101905061363b565b5050565b601f82111561369e5761366f8161353e565b61367884613553565b81016020851015613687578190505b61369b61369385613553565b83018261363a565b50505b505050565b600082821c905092915050565b60006136c1600019846008026136a3565b1980831691505092915050565b60006136da83836136b0565b9150826002028217905092915050565b6136f3826125b4565b67ffffffffffffffff81111561370c5761370b6128a3565b5b6137168254612c55565b61372182828561365d565b600060209050601f8311600181146137545760008415613742578287015190505b61374c85826136ce565b8655506137b4565b601f1984166137628661353e565b60005b8281101561378a57848901518255600182019150602085019450602081019050613765565b868310156137a757848901516137a3601f8916826136b0565b8355505b6001600288020188555050505b505050505050565b7f4552433732313a20617070726f766520746f2063616c6c657200000000000000600082015250565b60006137f26019836125bf565b91506137fd826137bc565b602082019050919050565b60006020820190508181036000830152613821816137e5565b9050919050565b7f4552433732313a207472616e7366657220746f206e6f6e20455243373231526560008201527f63656976657220696d706c656d656e7465720000000000000000000000000000602082015250565b60006138846032836125bf565b915061388f82613828565b604082019050919050565b600060208201905081810360008301526138b381613877565b9050919050565b600081519050919050565b600082825260208201905092915050565b60006138e1826138ba565b6138eb81856138c5565b93506138fb8185602086016125d0565b613904816125fa565b840191505092915050565b600060808201905061392460008301876126fb565b61393160208301866126fb565b61393e6040830185612842565b818103606083015261395081846138d6565b905095945050505050565b60008151905061396a81612525565b92915050565b600060208284031215613986576139856124ef565b5b60006139948482850161395b565b91505092915050565b7f4e487b7100000000000000000000000000000000000000000000000000000000600052601260045260246000fd5b7f4552433732313a206d696e7420746f20746865207a65726f2061646472657373600082015250565b6000613a026020836125bf565b9150613a0d826139cc565b602082019050919050565b60006020820190508181036000830152613a31816139f5565b9050919050565b7f4552433732313a20746f6b656e20616c7265616479206d696e74656400000000600082015250565b6000613a6e601c836125bf565b9150613a7982613a38565b602082019050919050565b60006020820190508181036000830152613a9d81613a61565b905091905056fea2646970667358221220346e6077db7fd7775857142f5a0058888b1267ddb349078e038ee2c37e86396564736f6c634300081c0033",
  "linkReferences": {},
  "deployedLinkReferences": {}
}