{
    "_format": "hh-sol-artifact-1",
    "contractName": "Marketplace",
    "sourceName": "contracts/Marketplace.sol",
    "abi": [
        {
            "inputs": [],
            "stateMutability": "nonpayable",
            "type": "constructor"
        },
        {
            "inputs": [
                {
                    "internalType": "address",
                    "name": "sender",
                    "type": "address"
                },
                {
                    "internalType": "uint256",
                    "name": "tokenId",
                    "type": "uint256"
                },
                {
                    "internalType": "address",
                    "name": "owner",
                    "type": "address"
                }
            ],
            "name": "ERC721IncorrectOwner",
            "type": "error"
        },
        {
            "inputs": [
                {
                    "internalType": "address",
                    "name": "operator",
                    "type": "address"
                },
                {
                    "internalType": "uint256",
                    "name": "tokenId",
                    "type": "uint256"
                }
            ],
            "name": "ERC721InsufficientApproval",
            "type": "error"
        },
        {
            "inputs": [
                {
                    "internalType": "address",
                    "name": "approver",
                    "type": "address"
                }
            ],
            "name": "ERC721InvalidApprover",
            "type": "error"
        },
        {
            "inputs": [
                {
                    "internalType": "address",
                    "name": "operator",
                    "type": "address"
                }
            ],
            "name": "ERC721InvalidOperator",
            "type": "error"
        },
        {
            "inputs": [
                {
                    "internalType": "address",
                    "name": "owner",
                    "type": "address"
                }
            ],
            "name": "ERC721InvalidOwner",
            "type": "error"
        },
        {
            "inputs": [
                {
                    "internalType": "address",
                    "name": "receiver",
                    "type": "address"
                }
            ],
            "name": "ERC721InvalidReceiver",
            "type": "error"
        },
        {
            "inputs": [
                {
                    "internalType": "address",
                    "name": "sender",
                    "type": "address"
                }
            ],
            "name": "ERC721InvalidSender",
            "type": "error"
        },
        {
            "inputs": [
                {
                    "internalType": "uint256",
                    "name": "tokenId",
                    "type": "uint256"
                }
            ],
            "name": "ERC721NonexistentToken",
            "type": "error"
        },
        {
            "inputs": [
                {
                    "internalType": "address",
                    "name": "owner",
                    "type": "address"
                }
            ],
            "name": "OwnableInvalidOwner",
            "type": "error"
        },
        {
            "inputs": [
                {
                    "internalType": "address",
                    "name": "account",
                    "type": "address"
                }
            ],
            "name": "OwnableUnauthorizedAccount",
            "type": "error"
        },
        {
            "anonymous": false,
            "inputs": [
                {
                    "indexed": true,
                    "internalType": "address",
                    "name": "owner",
                    "type": "address"
                },
                {
                    "indexed": true,
                    "internalType": "address",
                    "name": "approved",
                    "type": "address"
                },
                {
                    "indexed": true,
                    "internalType": "uint256",
                    "name": "tokenId",
                    "type": "uint256"
                }
            ],
            "name": "Approval",
            "type": "event"
        },
        {
            "anonymous": false,
            "inputs": [
                {
                    "indexed": true,
                    "internalType": "address",
                    "name": "owner",
                    "type": "address"
                },
                {
                    "indexed": true,
                    "internalType": "address",
                    "name": "operator",
                    "type": "address"
                },
                {
                    "indexed": false,
                    "internalType": "bool",
                    "name": "approved",
                    "type": "bool"
                }
            ],
            "name": "ApprovalForAll",
            "type": "event"
        },
        {
            "anonymous": false,
            "inputs": [
                {
                    "indexed": false,
                    "internalType": "uint256",
                    "name": "_fromTokenId",
                    "type": "uint256"
                },
                {
                    "indexed": false,
                    "internalType": "uint256",
                    "name": "_toTokenId",
                    "type": "uint256"
                }
            ],
            "name": "BatchMetadataUpdate",
            "type": "event"
        },
        {
            "anonymous": false,
            "inputs": [
                {
                    "indexed": false,
                    "internalType": "uint256",
                    "name": "tokenId",
                    "type": "uint256"
                },
                {
                    "indexed": false,
                    "internalType": "address",
                    "name": "seller",
                    "type": "address"
                },
                {
                    "indexed": false,
                    "internalType": "uint96",
                    "name": "price",
                    "type": "uint96"
                }
            ],
            "name": "ItemListed",
            "type": "event"
        },
        {
            "anonymous": false,
            "inputs": [
                {
                    "indexed": false,
                    "internalType": "uint256",
                    "name": "tokenId",
                    "type": "uint256"
                },
                {
                    "indexed": false,
                    "internalType": "address",
                    "name": "buyer",
                    "type": "address"
                },
                {
                    "indexed": false,
                    "internalType": "uint96",
                    "name": "price",
                    "type": "uint96"
                }
            ],
            "name": "ItemSold",
            "type": "event"
        },
        {
            "anonymous": false,
            "inputs": [
                {
                    "indexed": false,
                    "internalType": "uint256",
                    "name": "_tokenId",
                    "type": "uint256"
                }
            ],
            "name": "MetadataUpdate",
            "type": "event"
        },
        {
            "anonymous": false,
            "inputs": [
                {
                    "indexed": true,
                    "internalType": "address",
                    "name": "previousOwner",
                    "type": "address"
                },
                {
                    "indexed": true,
                    "internalType": "address",
                    "name": "newOwner",
                    "type": "address"
                }
            ],
            "name": "OwnershipTransferred",
            "type": "event"
        },
        {
            "anonymous": false,
            "inputs": [
                {
                    "indexed": true,
                    "internalType": "address",
                    "name": "from",
                    "type": "address"
                },
                {
                    "indexed": true,
                    "internalType": "address",
                    "name": "to",
                    "type": "address"
                },
                {
                    "indexed": true,
                    "internalType": "uint256",
                    "name": "tokenId",
                    "type": "uint256"
                }
            ],
            "name": "Transfer",
            "type": "event"
        },
        {
            "inputs": [
                {
                    "internalType": "address",
                    "name": "to",
                    "type": "address"
                },
                {
                    "internalType": "uint256",
                    "name": "tokenId",
                    "type": "uint256"
                }
            ],
            "name": "approve",
            "outputs": [],
            "stateMutability": "nonpayable",
            "type": "function"
        },
        {
            "inputs": [
                {
                    "internalType": "address",
                    "name": "owner",
                    "type": "address"
                }
            ],
            "name": "balanceOf",
            "outputs": [
                {
                    "internalType": "uint256",
                    "name": "",
                    "type": "uint256"
                }
            ],
            "stateMutability": "view",
            "type": "function"
        },
        {
            "inputs": [
                {
                    "internalType": "address",
                    "name": "",
                    "type": "address"
                }
            ],
            "name": "balances",
            "outputs": [
                {
                    "internalType": "uint256",
                    "name": "",
                    "type": "uint256"
                }
            ],
            "stateMutability": "view",
            "type": "function"
        },
        {
            "inputs": [
                {
                    "internalType": "uint256",
                    "name": "id",
                    "type": "uint256"
                }
            ],
            "name": "buy",
            "outputs": [],
            "stateMutability": "payable",
            "type": "function"
        },
        {
            "inputs": [],
            "name": "fee",
            "outputs": [
                {
                    "internalType": "uint96",
                    "name": "",
                    "type": "uint96"
                }
            ],
            "stateMutability": "view",
            "type": "function"
        },
        {
            "inputs": [],
            "name": "feeReceiver",
            "outputs": [
                {
                    "internalType": "address",
                    "name": "",
                    "type": "address"
                }
            ],
            "stateMutability": "view",
            "type": "function"
        },
        {
            "inputs": [
                {
                    "internalType": "uint256",
                    "name": "tokenId",
                    "type": "uint256"
                }
            ],
            "name": "getApproved",
            "outputs": [
                {
                    "internalType": "address",
                    "name": "",
                    "type": "address"
                }
            ],
            "stateMutability": "view",
            "type": "function"
        },
        {
            "inputs": [
                {
                    "internalType": "uint256",
                    "name": "id",
                    "type": "uint256"
                }
            ],
            "name": "getListing",
            "outputs": [
                {
                    "internalType": "address",
                    "name": "",
                    "type": "address"
                },
                {
                    "internalType": "uint96",
                    "name": "",
                    "type": "uint96"
                },
                {
                    "internalType": "bool",
                    "name": "",
                    "type": "bool"
                }
            ],
            "stateMutability": "view",
            "type": "function"
        },
        {
            "inputs": [
                {
                    "internalType": "address",
                    "name": "owner",
                    "type": "address"
                },
                {
                    "internalType": "address",
                    "name": "operator",
                    "type": "address"
                }
            ],
            "name": "isApprovedForAll",
            "outputs": [
                {
                    "internalType": "bool",
                    "name": "",
                    "type": "bool"
                }
            ],
            "stateMutability": "view",
            "type": "function"
        },
        {
            "inputs": [
                {
                    "internalType": "uint256",
                    "name": "",
                    "type": "uint256"
                }
            ],
            "name": "listings",
            "outputs": [
                {
                    "internalType": "address",
                    "name": "seller",
                    "type": "address"
                },
                {
                    "internalType": "uint96",
                    "name": "price",
                    "type": "uint96"
                },
                {
                    "internalType": "bool",
                    "name": "isSold",
                    "type": "bool"
                }
            ],
            "stateMutability": "view",
            "type": "function"
        },
        {
            "inputs": [
                {
                    "internalType": "string",
                    "name": "uri",
                    "type": "string"
                },
                {
                    "internalType": "uint96",
                    "name": "price",
                    "type": "uint96"
                }
            ],
            "name": "mintAndList",
            "outputs": [],
            "stateMutability": "nonpayable",
            "type": "function"
        },
        {
            "inputs": [],
            "name": "name",
            "outputs": [
                {
                    "internalType": "string",
                    "name": "",
                    "type": "string"
                }
            ],
            "stateMutability": "view",
            "type": "function"
        },
        {
            "inputs": [],
            "name": "owner",
            "outputs": [
                {
                    "internalType": "address",
                    "name": "",
                    "type": "address"
                }
            ],
            "stateMutability": "view",
            "type": "function"
        },
        {
            "inputs": [
                {
                    "internalType": "uint256",
                    "name": "tokenId",
                    "type": "uint256"
                }
            ],
            "name": "ownerOf",
            "outputs": [
                {
                    "internalType": "address",
                    "name": "",
                    "type": "address"
                }
            ],
            "stateMutability": "view",
            "type": "function"
        },
        {
            "inputs": [],
            "name": "renounceOwnership",
            "outputs": [],
            "stateMutability": "nonpayable",
            "type": "function"
        },
        {
            "inputs": [
                {
                    "internalType": "address",
                    "name": "from",
                    "type": "address"
                },
                {
                    "internalType": "address",
                    "name": "to",
                    "type": "address"
                },
                {
                    "internalType": "uint256",
                    "name": "tokenId",
                    "type": "uint256"
                }
            ],
            "name": "safeTransferFrom",
            "outputs": [],
            "stateMutability": "nonpayable",
            "type": "function"
        },
        {
            "inputs": [
                {
                    "internalType": "address",
                    "name": "from",
                    "type": "address"
                },
                {
                    "internalType": "address",
                    "name": "to",
                    "type": "address"
                },
                {
                    "internalType": "uint256",
                    "name": "tokenId",
                    "type": "uint256"
                },
                {
                    "internalType": "bytes",
                    "name": "data",
                    "type": "bytes"
                }
            ],
            "name": "safeTransferFrom",
            "outputs": [],
            "stateMutability": "nonpayable",
            "type": "function"
        },
        {
            "inputs": [
                {
                    "internalType": "address",
                    "name": "operator",
                    "type": "address"
                },
                {
                    "internalType": "bool",
                    "name": "approved",
                    "type": "bool"
                }
            ],
            "name": "setApprovalForAll",
            "outputs": [],
            "stateMutability": "nonpayable",
            "type": "function"
        },
        {
            "inputs": [
                {
                    "internalType": "bytes4",
                    "name": "interfaceId",
                    "type": "bytes4"
                }
            ],
            "name": "supportsInterface",
            "outputs": [
                {
                    "internalType": "bool",
                    "name": "",
                    "type": "bool"
                }
            ],
            "stateMutability": "view",
            "type": "function"
        },
        {
            "inputs": [],
            "name": "symbol",
            "outputs": [
                {
                    "internalType": "string",
                    "name": "",
                    "type": "string"
                }
            ],
            "stateMutability": "view",
            "type": "function"
        },
        {
            "inputs": [],
            "name": "tokenId",
            "outputs": [
                {
                    "internalType": "uint256",
                    "name": "",
                    "type": "uint256"
                }
            ],
            "stateMutability": "view",
            "type": "function"
        },
        {
            "inputs": [
                {
                    "internalType": "uint256",
                    "name": "tokenId",
                    "type": "uint256"
                }
            ],
            "name": "tokenURI",
            "outputs": [
                {
                    "internalType": "string",
                    "name": "",
                    "type": "string"
                }
            ],
            "stateMutability": "view",
            "type": "function"
        },
        {
            "inputs": [
                {
                    "internalType": "address",
                    "name": "from",
                    "type": "address"
                },
                {
                    "internalType": "address",
                    "name": "to",
                    "type": "address"
                },
                {
                    "internalType": "uint256",
                    "name": "tokenId",
                    "type": "uint256"
                }
            ],
            "name": "transferFrom",
            "outputs": [],
            "stateMutability": "nonpayable",
            "type": "function"
        },
        {
            "inputs": [
                {
                    "internalType": "address",
                    "name": "newOwner",
                    "type": "address"
                }
            ],
            "name": "transferOwnership",
            "outputs": [],
            "stateMutability": "nonpayable",
            "type": "function"
        },
        {
            "inputs": [],
            "name": "withdraw",
            "outputs": [],
            "stateMutability": "nonpayable",
            "type": "function"
        }
    ],
    "bytecode": "0x60806040523480156200001157600080fd5b50336040518060400160405280600581526020017f4d794e46540000000000000000000000000000000000000000000000000000008152506040518060400160405280600481526020017f4d4e4654000000000000000000000000000000000000000000000000000000008152508160009081620000909190620004b3565b508060019081620000a29190620004b3565b505050600073ffffffffffffffffffffffffffffffffffffffff168173ffffffffffffffffffffffffffffffffffffffff16036200011a5760006040517f1e4fbdf7000000000000000000000000000000000000000000000000000000008152600401620001119190620005df565b60405180910390fd5b6200012b816200017360201b60201c565b5033600960006101000a81548173ffffffffffffffffffffffffffffffffffffffff021916908373ffffffffffffffffffffffffffffffffffffffff160217905550620005fc565b6000600760009054906101000a900473ffffffffffffffffffffffffffffffffffffffff16905081600760006101000a81548173ffffffffffffffffffffffffffffffffffffffff021916908373ffffffffffffffffffffffffffffffffffffffff1602179055508173ffffffffffffffffffffffffffffffffffffffff168173ffffffffffffffffffffffffffffffffffffffff167f8be0079c531659141344cd1fd0a4f28419497f9722a3daafe3b4186f6b6457e060405160405180910390a35050565b600081519050919050565b7f4e487b7100000000000000000000000000000000000000000000000000000000600052604160045260246000fd5b7f4e487b7100000000000000000000000000000000000000000000000000000000600052602260045260246000fd5b60006002820490506001821680620002bb57607f821691505b602082108103620002d157620002d062000273565b5b50919050565b60008190508160005260206000209050919050565b60006020601f8301049050919050565b600082821b905092915050565b6000600883026200033b7fffffffffffffffffffffffffffffffffffffffffffffffffffffffffffffffff82620002fc565b620003478683620002fc565b95508019841693508086168417925050509392505050565b6000819050919050565b6000819050919050565b6000620003946200038e62000388846200035f565b62000369565b6200035f565b9050919050565b6000819050919050565b620003b08362000373565b620003c8620003bf826200039b565b84845462000309565b825550505050565b600090565b620003df620003d0565b620003ec818484620003a5565b505050565b5b81811015620004145762000408600082620003d5565b600181019050620003f2565b5050565b601f82111562000463576200042d81620002d7565b6200043884620002ec565b8101602085101562000448578190505b620004606200045785620002ec565b830182620003f1565b50505b505050565b600082821c905092915050565b6000620004886000198460080262000468565b1980831691505092915050565b6000620004a3838362000475565b9150826002028217905092915050565b620004be8262000239565b67ffffffffffffffff811115620004da57620004d962000244565b5b620004e68254620002a2565b620004f382828562000418565b600060209050601f8311600181146200052b576000841562000516578287015190505b62000522858262000495565b86555062000592565b601f1984166200053b86620002d7565b60005b8281101562000565578489015182556001820191506020850194506020810190506200053e565b8683101562000585578489015162000581601f89168262000475565b8355505b6001600288020188555050505b505050505050565b600073ffffffffffffffffffffffffffffffffffffffff82169050919050565b6000620005c7826200059a565b9050919050565b620005d981620005ba565b82525050565b6000602082019050620005f66000830184620005ce565b92915050565b613483806200060c6000396000f3fe6080604052600436106101665760003560e01c8063715018a6116100d1578063b88d4fde1161008a578063ddca3f4311610064578063ddca3f431461052f578063de74e57b1461055a578063e985e9c514610599578063f2fde38b146105d657610166565b8063b88d4fde146104ad578063c87b56dd146104d6578063d96a094a1461051357610166565b8063715018a6146103c357806372623274146103da5780638da5cb5b1461040357806395d89b411461042e578063a22cb46514610459578063b3f006741461048257610166565b806323b872dd1161012357806323b872dd146102a357806327e235e3146102cc5780633ccfd60b1461030957806342842e0e146103205780636352211e1461034957806370a082311461038657610166565b806301ffc9a71461016b57806306fdde03146101a8578063081812fc146101d3578063095ea7b314610210578063107a274a1461023957806317d70f7c14610278575b600080fd5b34801561017757600080fd5b50610192600480360381019061018d9190612574565b6105ff565b60405161019f91906125bc565b60405180910390f35b3480156101b457600080fd5b506101bd610660565b6040516101ca9190612667565b60405180910390f35b3480156101df57600080fd5b506101fa60048036038101906101f591906126bf565b6106f2565b604051610207919061272d565b60405180910390f35b34801561021c57600080fd5b5061023760048036038101906102329190612774565b61070e565b005b34801561024557600080fd5b50610260600480360381019061025b91906126bf565b610724565b60405161026f939291906127db565b60405180910390f35b34801561028457600080fd5b5061028d610816565b60405161029a9190612821565b60405180910390f35b3480156102af57600080fd5b506102ca60048036038101906102c5919061283c565b61081c565b005b3480156102d857600080fd5b506102f360048036038101906102ee919061288f565b61091e565b6040516103009190612821565b60405180910390f35b34801561031557600080fd5b5061031e610936565b005b34801561032c57600080fd5b506103476004803603810190610342919061283c565b610a4c565b005b34801561035557600080fd5b50610370600480360381019061036b91906126bf565b610a6c565b60405161037d919061272d565b60405180910390f35b34801561039257600080fd5b506103ad60048036038101906103a8919061288f565b610a7e565b6040516103ba9190612821565b60405180910390f35b3480156103cf57600080fd5b506103d8610b38565b005b3480156103e657600080fd5b5061040160048036038101906103fc9190612a1d565b610b4c565b005b34801561040f57600080fd5b50610418610d06565b604051610425919061272d565b60405180910390f35b34801561043a57600080fd5b50610443610d30565b6040516104509190612667565b60405180910390f35b34801561046557600080fd5b50610480600480360381019061047b9190612aa5565b610dc2565b005b34801561048e57600080fd5b50610497610dd8565b6040516104a4919061272d565b60405180910390f35b3480156104b957600080fd5b506104d460048036038101906104cf9190612b86565b610dfe565b005b3480156104e257600080fd5b506104fd60048036038101906104f891906126bf565b610e23565b60405161050a9190612667565b60405180910390f35b61052d600480360381019061052891906126bf565b610f36565b005b34801561053b57600080fd5b506105446111dd565b6040516105519190612c09565b60405180910390f35b34801561056657600080fd5b50610581600480360381019061057c91906126bf565b6111e3565b604051610590939291906127db565b60405180910390f35b3480156105a557600080fd5b506105c060048036038101906105bb9190612c24565b611252565b6040516105cd91906125bc565b60405180910390f35b3480156105e257600080fd5b506105fd60048036038101906105f8919061288f565b6112e6565b005b6000634906490660e01b7bffffffffffffffffffffffffffffffffffffffffffffffffffffffff1916827bffffffffffffffffffffffffffffffffffffffffffffffffffffffff1916148061065957506106588261136c565b5b9050919050565b60606000805461066f90612c93565b80601f016020809104026020016040519081016040528092919081815260200182805461069b90612c93565b80156106e85780601f106106bd576101008083540402835291602001916106e8565b820191906000526020600020905b8154815290600101906020018083116106cb57829003601f168201915b5050505050905090565b60006106fd8261144e565b50610707826114d6565b9050919050565b610720828261071b611513565b61151b565b5050565b600080600080600a60008681526020019081526020016000206040518060600160405290816000820160009054906101000a900473ffffffffffffffffffffffffffffffffffffffff1673ffffffffffffffffffffffffffffffffffffffff1673ffffffffffffffffffffffffffffffffffffffff1681526020016000820160149054906101000a90046bffffffffffffffffffffffff166bffffffffffffffffffffffff166bffffffffffffffffffffffff1681526020016001820160009054906101000a900460ff1615151515815250509050806000015181602001518260400151935093509350509193909250565b60085481565b600073ffffffffffffffffffffffffffffffffffffffff168273ffffffffffffffffffffffffffffffffffffffff160361088e5760006040517f64a0ae92000000000000000000000000000000000000000000000000000000008152600401610885919061272d565b60405180910390fd5b60006108a2838361089d611513565b61152d565b90508373ffffffffffffffffffffffffffffffffffffffff168173ffffffffffffffffffffffffffffffffffffffff1614610918578382826040517f64283d7b00000000000000000000000000000000000000000000000000000000815260040161090f93929190612cc4565b60405180910390fd5b50505050565b600b6020528060005260406000206000915090505481565b6000600b60003373ffffffffffffffffffffffffffffffffffffffff1673ffffffffffffffffffffffffffffffffffffffff168152602001908152602001600020549050600081116109bd576040517f08c379a00000000000000000000000000000000000000000000000000000000081526004016109b490612d47565b60405180910390fd5b6000600b60003373ffffffffffffffffffffffffffffffffffffffff1673ffffffffffffffffffffffffffffffffffffffff168152602001908152602001600020819055503373ffffffffffffffffffffffffffffffffffffffff166108fc829081150290604051600060405180830381858888f19350505050158015610a48573d6000803e3d6000fd5b5050565b610a6783838360405180602001604052806000815250610dfe565b505050565b6000610a778261144e565b9050919050565b60008073ffffffffffffffffffffffffffffffffffffffff168273ffffffffffffffffffffffffffffffffffffffff1603610af15760006040517f89c62b64000000000000000000000000000000000000000000000000000000008152600401610ae8919061272d565b60405180910390fd5b600360008373ffffffffffffffffffffffffffffffffffffffff1673ffffffffffffffffffffffffffffffffffffffff168152602001908152602001600020549050919050565b610b40611747565b610b4a60006117ce565b565b6000816bffffffffffffffffffffffff1611610b9d576040517f08c379a0000000000000000000000000000000000000000000000000000000008152600401610b9490612db3565b60405180910390fd5b610ba933600854611894565b610bb56008548361198d565b60405180606001604052803373ffffffffffffffffffffffffffffffffffffffff168152602001826bffffffffffffffffffffffff16815260200160001515815250600a6000600854815260200190815260200160002060008201518160000160006101000a81548173ffffffffffffffffffffffffffffffffffffffff021916908373ffffffffffffffffffffffffffffffffffffffff16021790555060208201518160000160146101000a8154816bffffffffffffffffffffffff02191690836bffffffffffffffffffffffff16021790555060408201518160010160006101000a81548160ff0219169083151502179055509050507f74853d0857487d8ab8813c4ff8c6740981eaa76fc83634f27c8f6b51d90b79d06008543383604051610ce293929190612dd3565b60405180910390a160086000815480929190610cfd90612e39565b91905055505050565b6000600760009054906101000a900473ffffffffffffffffffffffffffffffffffffffff16905090565b606060018054610d3f90612c93565b80601f0160208091040260200160405190810160405280929190818152602001828054610d6b90612c93565b8015610db85780601f10610d8d57610100808354040283529160200191610db8565b820191906000526020600020905b815481529060010190602001808311610d9b57829003601f168201915b5050505050905090565b610dd4610dcd611513565b83836119e9565b5050565b600960009054906101000a900473ffffffffffffffffffffffffffffffffffffffff1681565b610e0984848461081c565b610e1d610e14611513565b85858585611b58565b50505050565b6060610e2e8261144e565b506000600660008481526020019081526020016000208054610e4f90612c93565b80601f0160208091040260200160405190810160405280929190818152602001828054610e7b90612c93565b8015610ec85780601f10610e9d57610100808354040283529160200191610ec8565b820191906000526020600020905b815481529060010190602001808311610eab57829003601f168201915b505050505090506000610ed9611d09565b90506000815103610eee578192505050610f31565b600082511115610f23578082604051602001610f0b929190612ebd565b60405160208183030381529060405292505050610f31565b610f2c84611d20565b925050505b919050565b6000600a600083815260200190815260200160002090508060010160009054906101000a900460ff1615610f9f576040517f08c379a0000000000000000000000000000000000000000000000000000000008152600401610f9690612f2d565b60405180910390fd5b8060000160149054906101000a90046bffffffffffffffffffffffff166bffffffffffffffffffffffff16341461100b576040517f08c379a000000000000000000000000000000000000000000000000000000000815260040161100290612f99565b60405180910390fd5b60018160010160006101000a81548160ff0219169083151502179055506110578160000160009054906101000a900473ffffffffffffffffffffffffffffffffffffffff163384611d89565b60006127106101f46bffffffffffffffffffffffff16346110789190612fb9565b611082919061302a565b90508034611090919061305b565b600b60008460000160009054906101000a900473ffffffffffffffffffffffffffffffffffffffff1673ffffffffffffffffffffffffffffffffffffffff1673ffffffffffffffffffffffffffffffffffffffff1681526020019081526020016000206000828254611102919061308f565b9250508190555080600b6000600960009054906101000a900473ffffffffffffffffffffffffffffffffffffffff1673ffffffffffffffffffffffffffffffffffffffff1673ffffffffffffffffffffffffffffffffffffffff168152602001908152602001600020600082825461117a919061308f565b925050819055507f10398926f289f5e9e67a5906e08de3c9692f386c286650b189a7e72cec5cbcb583338460000160149054906101000a90046bffffffffffffffffffffffff166040516111d093929190612dd3565b60405180910390a1505050565b6101f481565b600a6020528060005260406000206000915090508060000160009054906101000a900473ffffffffffffffffffffffffffffffffffffffff16908060000160149054906101000a90046bffffffffffffffffffffffff16908060010160009054906101000a900460ff16905083565b6000600560008473ffffffffffffffffffffffffffffffffffffffff1673ffffffffffffffffffffffffffffffffffffffff16815260200190815260200160002060008373ffffffffffffffffffffffffffffffffffffffff1673ffffffffffffffffffffffffffffffffffffffff16815260200190815260200160002060009054906101000a900460ff16905092915050565b6112ee611747565b600073ffffffffffffffffffffffffffffffffffffffff168173ffffffffffffffffffffffffffffffffffffffff16036113605760006040517f1e4fbdf7000000000000000000000000000000000000000000000000000000008152600401611357919061272d565b60405180910390fd5b611369816117ce565b50565b60007f80ac58cd000000000000000000000000000000000000000000000000000000007bffffffffffffffffffffffffffffffffffffffffffffffffffffffff1916827bffffffffffffffffffffffffffffffffffffffffffffffffffffffff1916148061143757507f5b5e139f000000000000000000000000000000000000000000000000000000007bffffffffffffffffffffffffffffffffffffffffffffffffffffffff1916827bffffffffffffffffffffffffffffffffffffffffffffffffffffffff1916145b80611447575061144682611ef6565b5b9050919050565b60008061145a83611f60565b9050600073ffffffffffffffffffffffffffffffffffffffff168173ffffffffffffffffffffffffffffffffffffffff16036114cd57826040517f7e2732890000000000000000000000000000000000000000000000000000000081526004016114c49190612821565b60405180910390fd5b80915050919050565b60006004600083815260200190815260200160002060009054906101000a900473ffffffffffffffffffffffffffffffffffffffff169050919050565b600033905090565b6115288383836001611f9d565b505050565b60008061153984611f60565b9050600073ffffffffffffffffffffffffffffffffffffffff168373ffffffffffffffffffffffffffffffffffffffff161461157b5761157a818486612162565b5b600073ffffffffffffffffffffffffffffffffffffffff168173ffffffffffffffffffffffffffffffffffffffff161461160c576115bd600085600080611f9d565b6001600360008373ffffffffffffffffffffffffffffffffffffffff1673ffffffffffffffffffffffffffffffffffffffff168152602001908152602001600020600082825403925050819055505b600073ffffffffffffffffffffffffffffffffffffffff168573ffffffffffffffffffffffffffffffffffffffff161461168f576001600360008773ffffffffffffffffffffffffffffffffffffffff1673ffffffffffffffffffffffffffffffffffffffff168152602001908152602001600020600082825401925050819055505b846002600086815260200190815260200160002060006101000a81548173ffffffffffffffffffffffffffffffffffffffff021916908373ffffffffffffffffffffffffffffffffffffffff160217905550838573ffffffffffffffffffffffffffffffffffffffff168273ffffffffffffffffffffffffffffffffffffffff167fddf252ad1be2c89b69c2b068fc378daa952ba7f163c4a11628f55a4df523b3ef60405160405180910390a4809150509392505050565b61174f611513565b73ffffffffffffffffffffffffffffffffffffffff1661176d610d06565b73ffffffffffffffffffffffffffffffffffffffff16146117cc57611790611513565b6040517f118cdaa70000000000000000000000000000000000000000000000000000000081526004016117c3919061272d565b60405180910390fd5b565b6000600760009054906101000a900473ffffffffffffffffffffffffffffffffffffffff16905081600760006101000a81548173ffffffffffffffffffffffffffffffffffffffff021916908373ffffffffffffffffffffffffffffffffffffffff1602179055508173ffffffffffffffffffffffffffffffffffffffff168173ffffffffffffffffffffffffffffffffffffffff167f8be0079c531659141344cd1fd0a4f28419497f9722a3daafe3b4186f6b6457e060405160405180910390a35050565b600073ffffffffffffffffffffffffffffffffffffffff168273ffffffffffffffffffffffffffffffffffffffff16036119065760006040517f64a0ae920000000000000000000000000000000000000000000000000000000081526004016118fd919061272d565b60405180910390fd5b60006119148383600061152d565b9050600073ffffffffffffffffffffffffffffffffffffffff168173ffffffffffffffffffffffffffffffffffffffff16146119885760006040517f73c6ac6e00000000000000000000000000000000000000000000000000000000815260040161197f919061272d565b60405180910390fd5b505050565b806006600084815260200190815260200160002090816119ad919061326f565b507ff8e1a15aba9398e019f0b49df1a4fde98ee17ae345cb5f6b5e2c27f5033e8ce7826040516119dd9190612821565b60405180910390a15050565b600073ffffffffffffffffffffffffffffffffffffffff168273ffffffffffffffffffffffffffffffffffffffff1603611a5a57816040517f5b08ba18000000000000000000000000000000000000000000000000000000008152600401611a51919061272d565b60405180910390fd5b80600560008573ffffffffffffffffffffffffffffffffffffffff1673ffffffffffffffffffffffffffffffffffffffff16815260200190815260200160002060008473ffffffffffffffffffffffffffffffffffffffff1673ffffffffffffffffffffffffffffffffffffffff16815260200190815260200160002060006101000a81548160ff0219169083151502179055508173ffffffffffffffffffffffffffffffffffffffff168373ffffffffffffffffffffffffffffffffffffffff167f17307eab39ab6107e8899845ad3d59bd9653f200f220920489ca2b5937696c3183604051611b4b91906125bc565b60405180910390a3505050565b60008373ffffffffffffffffffffffffffffffffffffffff163b1115611d02578273ffffffffffffffffffffffffffffffffffffffff1663150b7a02868685856040518563ffffffff1660e01b8152600401611bb79493929190613396565b6020604051808303816000875af1925050508015611bf357506040513d601f19601f82011682018060405250810190611bf091906133f7565b60015b611c77573d8060008114611c23576040519150601f19603f3d011682016040523d82523d6000602084013e611c28565b606091505b506000815103611c6f57836040517f64a0ae92000000000000000000000000000000000000000000000000000000008152600401611c66919061272d565b60405180910390fd5b805181602001fd5b63150b7a0260e01b7bffffffffffffffffffffffffffffffffffffffffffffffffffffffff1916817bffffffffffffffffffffffffffffffffffffffffffffffffffffffff191614611d0057836040517f64a0ae92000000000000000000000000000000000000000000000000000000008152600401611cf7919061272d565b60405180910390fd5b505b5050505050565b606060405180602001604052806000815250905090565b6060611d2b8261144e565b506000611d36611d09565b90506000815111611d565760405180602001604052806000815250611d81565b80611d6084612226565b604051602001611d71929190612ebd565b6040516020818303038152906040525b915050919050565b600073ffffffffffffffffffffffffffffffffffffffff168273ffffffffffffffffffffffffffffffffffffffff1603611dfb5760006040517f64a0ae92000000000000000000000000000000000000000000000000000000008152600401611df2919061272d565b60405180910390fd5b6000611e098383600061152d565b9050600073ffffffffffffffffffffffffffffffffffffffff168173ffffffffffffffffffffffffffffffffffffffff1603611e7c57816040517f7e273289000000000000000000000000000000000000000000000000000000008152600401611e739190612821565b60405180910390fd5b8373ffffffffffffffffffffffffffffffffffffffff168173ffffffffffffffffffffffffffffffffffffffff1614611ef0578382826040517f64283d7b000000000000000000000000000000000000000000000000000000008152600401611ee793929190612cc4565b60405180910390fd5b50505050565b60007f01ffc9a7000000000000000000000000000000000000000000000000000000007bffffffffffffffffffffffffffffffffffffffffffffffffffffffff1916827bffffffffffffffffffffffffffffffffffffffffffffffffffffffff1916149050919050565b60006002600083815260200190815260200160002060009054906101000a900473ffffffffffffffffffffffffffffffffffffffff169050919050565b8080611fd65750600073ffffffffffffffffffffffffffffffffffffffff168273ffffffffffffffffffffffffffffffffffffffff1614155b1561210a576000611fe68461144e565b9050600073ffffffffffffffffffffffffffffffffffffffff168373ffffffffffffffffffffffffffffffffffffffff161415801561205157508273ffffffffffffffffffffffffffffffffffffffff168173ffffffffffffffffffffffffffffffffffffffff1614155b801561206457506120628184611252565b155b156120a657826040517fa9fbf51f00000000000000000000000000000000000000000000000000000000815260040161209d919061272d565b60405180910390fd5b811561210857838573ffffffffffffffffffffffffffffffffffffffff168273ffffffffffffffffffffffffffffffffffffffff167f8c5be1e5ebec7d5bd14f71427d1e84f3dd0314c0f7b2291e5b200ac8c7c3b92560405160405180910390a45b505b836004600085815260200190815260200160002060006101000a81548173ffffffffffffffffffffffffffffffffffffffff021916908373ffffffffffffffffffffffffffffffffffffffff16021790555050505050565b61216d8383836122f4565b61222157600073ffffffffffffffffffffffffffffffffffffffff168373ffffffffffffffffffffffffffffffffffffffff16036121e257806040517f7e2732890000000000000000000000000000000000000000000000000000000081526004016121d99190612821565b60405180910390fd5b81816040517f177e802f000000000000000000000000000000000000000000000000000000008152600401612218929190613424565b60405180910390fd5b505050565b606060006001612235846123b5565b01905060008167ffffffffffffffff811115612254576122536128c6565b5b6040519080825280601f01601f1916602001820160405280156122865781602001600182028036833780820191505090505b509050600082602001820190505b6001156122e9578080600190039150507f3031323334353637383961626364656600000000000000000000000000000000600a86061a8153600a85816122dd576122dc612ffb565b5b04945060008503612294575b819350505050919050565b60008073ffffffffffffffffffffffffffffffffffffffff168373ffffffffffffffffffffffffffffffffffffffff16141580156123ac57508273ffffffffffffffffffffffffffffffffffffffff168473ffffffffffffffffffffffffffffffffffffffff16148061236d575061236c8484611252565b5b806123ab57508273ffffffffffffffffffffffffffffffffffffffff16612393836114d6565b73ffffffffffffffffffffffffffffffffffffffff16145b5b90509392505050565b600080600090507a184f03e93ff9f4daa797ed6e38ed64bf6a1f0100000000000000008310612413577a184f03e93ff9f4daa797ed6e38ed64bf6a1f010000000000000000838161240957612408612ffb565b5b0492506040810190505b6d04ee2d6d415b85acef81000000008310612450576d04ee2d6d415b85acef8100000000838161244657612445612ffb565b5b0492506020810190505b662386f26fc10000831061247f57662386f26fc10000838161247557612474612ffb565b5b0492506010810190505b6305f5e10083106124a8576305f5e100838161249e5761249d612ffb565b5b0492506008810190505b61271083106124cd5761271083816124c3576124c2612ffb565b5b0492506004810190505b606483106124f057606483816124e6576124e5612ffb565b5b0492506002810190505b600a83106124ff576001810190505b80915050919050565b6000604051905090565b600080fd5b600080fd5b60007fffffffff0000000000000000000000000000000000000000000000000000000082169050919050565b6125518161251c565b811461255c57600080fd5b50565b60008135905061256e81612548565b92915050565b60006020828403121561258a57612589612512565b5b60006125988482850161255f565b91505092915050565b60008115159050919050565b6125b6816125a1565b82525050565b60006020820190506125d160008301846125ad565b92915050565b600081519050919050565b600082825260208201905092915050565b60005b838110156126115780820151818401526020810190506125f6565b60008484015250505050565b6000601f19601f8301169050919050565b6000612639826125d7565b61264381856125e2565b93506126538185602086016125f3565b61265c8161261d565b840191505092915050565b60006020820190508181036000830152612681818461262e565b905092915050565b6000819050919050565b61269c81612689565b81146126a757600080fd5b50565b6000813590506126b981612693565b92915050565b6000602082840312156126d5576126d4612512565b5b60006126e3848285016126aa565b91505092915050565b600073ffffffffffffffffffffffffffffffffffffffff82169050919050565b6000612717826126ec565b9050919050565b6127278161270c565b82525050565b6000602082019050612742600083018461271e565b92915050565b6127518161270c565b811461275c57600080fd5b50565b60008135905061276e81612748565b92915050565b6000806040838503121561278b5761278a612512565b5b60006127998582860161275f565b92505060206127aa858286016126aa565b9150509250929050565b60006bffffffffffffffffffffffff82169050919050565b6127d5816127b4565b82525050565b60006060820190506127f0600083018661271e565b6127fd60208301856127cc565b61280a60408301846125ad565b949350505050565b61281b81612689565b82525050565b60006020820190506128366000830184612812565b92915050565b60008060006060848603121561285557612854612512565b5b60006128638682870161275f565b93505060206128748682870161275f565b9250506040612885868287016126aa565b9150509250925092565b6000602082840312156128a5576128a4612512565b5b60006128b38482850161275f565b91505092915050565b600080fd5b600080fd5b7f4e487b7100000000000000000000000000000000000000000000000000000000600052604160045260246000fd5b6128fe8261261d565b810181811067ffffffffffffffff8211171561291d5761291c6128c6565b5b80604052505050565b6000612930612508565b905061293c82826128f5565b919050565b600067ffffffffffffffff82111561295c5761295b6128c6565b5b6129658261261d565b9050602081019050919050565b82818337600083830152505050565b600061299461298f84612941565b612926565b9050828152602081018484840111156129b0576129af6128c1565b5b6129bb848285612972565b509392505050565b600082601f8301126129d8576129d76128bc565b5b81356129e8848260208601612981565b91505092915050565b6129fa816127b4565b8114612a0557600080fd5b50565b600081359050612a17816129f1565b92915050565b60008060408385031215612a3457612a33612512565b5b600083013567ffffffffffffffff811115612a5257612a51612517565b5b612a5e858286016129c3565b9250506020612a6f85828601612a08565b9150509250929050565b612a82816125a1565b8114612a8d57600080fd5b50565b600081359050612a9f81612a79565b92915050565b60008060408385031215612abc57612abb612512565b5b6000612aca8582860161275f565b9250506020612adb85828601612a90565b9150509250929050565b600067ffffffffffffffff821115612b0057612aff6128c6565b5b612b098261261d565b9050602081019050919050565b6000612b29612b2484612ae5565b612926565b905082815260208101848484011115612b4557612b446128c1565b5b612b50848285612972565b509392505050565b600082601f830112612b6d57612b6c6128bc565b5b8135612b7d848260208601612b16565b91505092915050565b60008060008060808587031215612ba057612b9f612512565b5b6000612bae8782880161275f565b9450506020612bbf8782880161275f565b9350506040612bd0878288016126aa565b925050606085013567ffffffffffffffff811115612bf157612bf0612517565b5b612bfd87828801612b58565b91505092959194509250565b6000602082019050612c1e60008301846127cc565b92915050565b60008060408385031215612c3b57612c3a612512565b5b6000612c498582860161275f565b9250506020612c5a8582860161275f565b9150509250929050565b7f4e487b7100000000000000000000000000000000000000000000000000000000600052602260045260246000fd5b60006002820490506001821680612cab57607f821691505b602082108103612cbe57612cbd612c64565b5b50919050565b6000606082019050612cd9600083018661271e565b612ce66020830185612812565b612cf3604083018461271e565b949350505050565b7f4e6f7468696e6720746f20776974686472617700000000000000000000000000600082015250565b6000612d316013836125e2565b9150612d3c82612cfb565b602082019050919050565b60006020820190508181036000830152612d6081612d24565b9050919050565b7f5072696365206d757374206265203e2030000000000000000000000000000000600082015250565b6000612d9d6011836125e2565b9150612da882612d67565b602082019050919050565b60006020820190508181036000830152612dcc81612d90565b9050919050565b6000606082019050612de86000830186612812565b612df5602083018561271e565b612e0260408301846127cc565b949350505050565b7f4e487b7100000000000000000000000000000000000000000000000000000000600052601160045260246000fd5b6000612e4482612689565b91507fffffffffffffffffffffffffffffffffffffffffffffffffffffffffffffffff8203612e7657612e75612e0a565b5b600182019050919050565b600081905092915050565b6000612e97826125d7565b612ea18185612e81565b9350612eb18185602086016125f3565b80840191505092915050565b6000612ec98285612e8c565b9150612ed58284612e8c565b91508190509392505050565b7f416c726561647920736f6c640000000000000000000000000000000000000000600082015250565b6000612f17600c836125e2565b9150612f2282612ee1565b602082019050919050565b60006020820190508181036000830152612f4681612f0a565b9050919050565b7f496e636f72726563742076616c75650000000000000000000000000000000000600082015250565b6000612f83600f836125e2565b9150612f8e82612f4d565b602082019050919050565b60006020820190508181036000830152612fb281612f76565b9050919050565b6000612fc482612689565b9150612fcf83612689565b9250828202612fdd81612689565b91508282048414831517612ff457612ff3612e0a565b5b5092915050565b7f4e487b7100000000000000000000000000000000000000000000000000000000600052601260045260246000fd5b600061303582612689565b915061304083612689565b9250826130505761304f612ffb565b5b828204905092915050565b600061306682612689565b915061307183612689565b925082820390508181111561308957613088612e0a565b5b92915050565b600061309a82612689565b91506130a583612689565b92508282019050808211156130bd576130bc612e0a565b5b92915050565b60008190508160005260206000209050919050565b60006020601f8301049050919050565b600082821b905092915050565b6000600883026131257fffffffffffffffffffffffffffffffffffffffffffffffffffffffffffffffff826130e8565b61312f86836130e8565b95508019841693508086168417925050509392505050565b6000819050919050565b600061316c61316761316284612689565b613147565b612689565b9050919050565b6000819050919050565b61318683613151565b61319a61319282613173565b8484546130f5565b825550505050565b600090565b6131af6131a2565b6131ba81848461317d565b505050565b5b818110156131de576131d36000826131a7565b6001810190506131c0565b5050565b601f821115613223576131f4816130c3565b6131fd846130d8565b8101602085101561320c578190505b613220613218856130d8565b8301826131bf565b50505b505050565b600082821c905092915050565b600061324660001984600802613228565b1980831691505092915050565b600061325f8383613235565b9150826002028217905092915050565b613278826125d7565b67ffffffffffffffff811115613291576132906128c6565b5b61329b8254612c93565b6132a68282856131e2565b600060209050601f8311600181146132d957600084156132c7578287015190505b6132d18582613253565b865550613339565b601f1984166132e7866130c3565b60005b8281101561330f578489015182556001820191506020850194506020810190506132ea565b8683101561332c5784890151613328601f891682613235565b8355505b6001600288020188555050505b505050505050565b600081519050919050565b600082825260208201905092915050565b600061336882613341565b613372818561334c565b93506133828185602086016125f3565b61338b8161261d565b840191505092915050565b60006080820190506133ab600083018761271e565b6133b8602083018661271e565b6133c56040830185612812565b81810360608301526133d7818461335d565b905095945050505050565b6000815190506133f181612548565b92915050565b60006020828403121561340d5761340c612512565b5b600061341b848285016133e2565b91505092915050565b6000604082019050613439600083018561271e565b6134466020830184612812565b939250505056fea26469706673582212204ea118c2d90f350ccb03bbb640fc916709fa2611b91a3c2e6da3a3fef9da598164736f6c63430008150033",
    "linkReferences": {},
    "deployedLinkReferences": {}
}