{
  "_format": "hh-sol-artifact-1",
  "contractName": "Marketplace",
  "sourceName": "contracts/Marketplace.sol",
  "abi": [
    {
      "inputs": [],
      "stateMutability": "nonpayable",
      "type": "constructor"
    },
    {
      "inputs": [
        {
          "internalType": "address",
          "name": "sender",
          "type": "address"
        },
        {
          "internalType": "uint256",
          "name": "tokenId",
          "type": "uint256"
        },
        {
          "internalType": "address",
          "name": "owner",
          "type": "address"
        }
      ],
      "name": "ERC721IncorrectOwner",
      "type": "error"
    },
    {
      "inputs": [
        {
          "internalType": "address",
          "name": "operator",
          "type": "address"
        },
        {
          "internalType": "uint256",
          "name": "tokenId",
          "type": "uint256"
        }
      ],
      "name": "ERC721InsufficientApproval",
      "type": "error"
    },
    {
      "inputs": [
        {
          "internalType": "address",
          "name": "approver",
          "type": "address"
        }
      ],
      "name": "ERC721InvalidApprover",
      "type": "error"
    },
    {
      "inputs": [
        {
          "internalType": "address",
          "name": "operator",
          "type": "address"
        }
      ],
      "name": "ERC721InvalidOperator",
      "type": "error"
    },
    {
      "inputs": [
        {
          "internalType": "address",
          "name": "owner",
          "type": "address"
        }
      ],
      "name": "ERC721InvalidOwner",
      "type": "error"
    },
    {
      "inputs": [
        {
          "internalType": "address",
          "name": "receiver",
          "type": "address"
        }
      ],
      "name": "ERC721InvalidReceiver",
      "type": "error"
    },
    {
      "inputs": [
        {
          "internalType": "address",
          "name": "sender",
          "type": "address"
        }
      ],
      "name": "ERC721InvalidSender",
      "type": "error"
    },
    {
      "inputs": [
        {
          "internalType": "uint256",
          "name": "tokenId",
          "type": "uint256"
        }
      ],
      "name": "ERC721NonexistentToken",
      "type": "error"
    },
    {
      "inputs": [],
      "name": "ReentrancyGuardReentrantCall",
      "type": "error"
    },
    {
      "anonymous": false,
      "inputs": [
        {
          "indexed": true,
          "internalType": "address",
          "name": "owner",
          "type": "address"
        },
        {
          "indexed": true,
          "internalType": "address",
          "name": "approved",
          "type": "address"
        },
        {
          "indexed": true,
          "internalType": "uint256",
          "name": "tokenId",
          "type": "uint256"
        }
      ],
      "name": "Approval",
      "type": "event"
    },
    {
      "anonymous": false,
      "inputs": [
        {
          "indexed": true,
          "internalType": "address",
          "name": "owner",
          "type": "address"
        },
        {
          "indexed": true,
          "internalType": "address",
          "name": "operator",
          "type": "address"
        },
        {
          "indexed": false,
          "internalType": "bool",
          "name": "approved",
          "type": "bool"
        }
      ],
      "name": "ApprovalForAll",
      "type": "event"
    },
    {
      "anonymous": false,
      "inputs": [
        {
          "indexed": false,
          "internalType": "uint256",
          "name": "_fromTokenId",
          "type": "uint256"
        },
        {
          "indexed": false,
          "internalType": "uint256",
          "name": "_toTokenId",
          "type": "uint256"
        }
      ],
      "name": "BatchMetadataUpdate",
      "type": "event"
    },
    {
      "anonymous": false,
      "inputs": [
        {
          "indexed": true,
          "internalType": "uint256",
          "name": "IDtoken",
          "type": "uint256"
        },
        {
          "indexed": true,
          "internalType": "address",
          "name": "poseedor",
          "type": "address"
        },
        {
          "indexed": false,
          "internalType": "uint96",
          "name": "precio",
          "type": "uint96"
        }
      ],
      "name": "ItemListed",
      "type": "event"
    },
    {
      "anonymous": false,
      "inputs": [
        {
          "indexed": true,
          "internalType": "uint256",
          "name": "IDtoken",
          "type": "uint256"
        },
        {
          "indexed": true,
          "internalType": "address",
          "name": "comprador",
          "type": "address"
        },
        {
          "indexed": false,
          "internalType": "uint96",
          "name": "precio",
          "type": "uint96"
        }
      ],
      "name": "ItemSold",
      "type": "event"
    },
    {
      "anonymous": false,
      "inputs": [
        {
          "indexed": false,
          "internalType": "uint256",
          "name": "_tokenId",
          "type": "uint256"
        }
      ],
      "name": "MetadataUpdate",
      "type": "event"
    },
    {
      "anonymous": false,
      "inputs": [
        {
          "indexed": true,
          "internalType": "address",
          "name": "from",
          "type": "address"
        },
        {
          "indexed": true,
          "internalType": "address",
          "name": "to",
          "type": "address"
        },
        {
          "indexed": true,
          "internalType": "uint256",
          "name": "tokenId",
          "type": "uint256"
        }
      ],
      "name": "Transfer",
      "type": "event"
    },
    {
      "inputs": [
        {
          "internalType": "address",
          "name": "to",
          "type": "address"
        },
        {
          "internalType": "uint256",
          "name": "tokenId",
          "type": "uint256"
        }
      ],
      "name": "approve",
      "outputs": [],
      "stateMutability": "nonpayable",
      "type": "function"
    },
    {
      "inputs": [
        {
          "internalType": "address",
          "name": "owner",
          "type": "address"
        }
      ],
      "name": "balanceOf",
      "outputs": [
        {
          "internalType": "uint256",
          "name": "",
          "type": "uint256"
        }
      ],
      "stateMutability": "view",
      "type": "function"
    },
    {
      "inputs": [
        {
          "internalType": "uint256",
          "name": "_IDtoken",
          "type": "uint256"
        }
      ],
      "name": "buy",
      "outputs": [],
      "stateMutability": "payable",
      "type": "function"
    },
    {
      "inputs": [
        {
          "internalType": "uint256",
          "name": "tokenId",
          "type": "uint256"
        }
      ],
      "name": "getApproved",
      "outputs": [
        {
          "internalType": "address",
          "name": "",
          "type": "address"
        }
      ],
      "stateMutability": "view",
      "type": "function"
    },
    {
      "inputs": [
        {
          "internalType": "uint256",
          "name": "_IDtoken",
          "type": "uint256"
        }
      ],
      "name": "getListing",
      "outputs": [
        {
          "internalType": "address",
          "name": "poseedor",
          "type": "address"
        },
        {
          "internalType": "uint96",
          "name": "precio",
          "type": "uint96"
        },
        {
          "internalType": "bool",
          "name": "estaVendido",
          "type": "bool"
        }
      ],
      "stateMutability": "view",
      "type": "function"
    },
    {
      "inputs": [
        {
          "internalType": "address",
          "name": "owner",
          "type": "address"
        },
        {
          "internalType": "address",
          "name": "operator",
          "type": "address"
        }
      ],
      "name": "isApprovedForAll",
      "outputs": [
        {
          "internalType": "bool",
          "name": "",
          "type": "bool"
        }
      ],
      "stateMutability": "view",
      "type": "function"
    },
    {
      "inputs": [
        {
          "internalType": "string",
          "name": "_uri",
          "type": "string"
        },
        {
          "internalType": "uint96",
          "name": "_precio",
          "type": "uint96"
        }
      ],
      "name": "mintAndList",
      "outputs": [],
      "stateMutability": "nonpayable",
      "type": "function"
    },
    {
      "inputs": [],
      "name": "name",
      "outputs": [
        {
          "internalType": "string",
          "name": "",
          "type": "string"
        }
      ],
      "stateMutability": "view",
      "type": "function"
    },
    {
      "inputs": [],
      "name": "numeroToken",
      "outputs": [
        {
          "internalType": "uint256",
          "name": "",
          "type": "uint256"
        }
      ],
      "stateMutability": "view",
      "type": "function"
    },
    {
      "inputs": [
        {
          "internalType": "uint256",
          "name": "tokenId",
          "type": "uint256"
        }
      ],
      "name": "ownerOf",
      "outputs": [
        {
          "internalType": "address",
          "name": "",
          "type": "address"
        }
      ],
      "stateMutability": "view",
      "type": "function"
    },
    {
      "inputs": [
        {
          "internalType": "address",
          "name": "",
          "type": "address"
        }
      ],
      "name": "retirosPendientes",
      "outputs": [
        {
          "internalType": "uint256",
          "name": "",
          "type": "uint256"
        }
      ],
      "stateMutability": "view",
      "type": "function"
    },
    {
      "inputs": [
        {
          "internalType": "address",
          "name": "from",
          "type": "address"
        },
        {
          "internalType": "address",
          "name": "to",
          "type": "address"
        },
        {
          "internalType": "uint256",
          "name": "tokenId",
          "type": "uint256"
        }
      ],
      "name": "safeTransferFrom",
      "outputs": [],
      "stateMutability": "nonpayable",
      "type": "function"
    },
    {
      "inputs": [
        {
          "internalType": "address",
          "name": "from",
          "type": "address"
        },
        {
          "internalType": "address",
          "name": "to",
          "type": "address"
        },
        {
          "internalType": "uint256",
          "name": "tokenId",
          "type": "uint256"
        },
        {
          "internalType": "bytes",
          "name": "data",
          "type": "bytes"
        }
      ],
      "name": "safeTransferFrom",
      "outputs": [],
      "stateMutability": "nonpayable",
      "type": "function"
    },
    {
      "inputs": [
        {
          "internalType": "address",
          "name": "operator",
          "type": "address"
        },
        {
          "internalType": "bool",
          "name": "approved",
          "type": "bool"
        }
      ],
      "name": "setApprovalForAll",
      "outputs": [],
      "stateMutability": "nonpayable",
      "type": "function"
    },
    {
      "inputs": [
        {
          "internalType": "bytes4",
          "name": "interfaceId",
          "type": "bytes4"
        }
      ],
      "name": "supportsInterface",
      "outputs": [
        {
          "internalType": "bool",
          "name": "",
          "type": "bool"
        }
      ],
      "stateMutability": "view",
      "type": "function"
    },
    {
      "inputs": [],
      "name": "symbol",
      "outputs": [
        {
          "internalType": "string",
          "name": "",
          "type": "string"
        }
      ],
      "stateMutability": "view",
      "type": "function"
    },
    {
      "inputs": [
        {
          "internalType": "uint256",
          "name": "tokenId",
          "type": "uint256"
        }
      ],
      "name": "tokenURI",
      "outputs": [
        {
          "internalType": "string",
          "name": "",
          "type": "string"
        }
      ],
      "stateMutability": "view",
      "type": "function"
    },
    {
      "inputs": [
        {
          "internalType": "uint256",
          "name": "",
          "type": "uint256"
        }
      ],
      "name": "tokens",
      "outputs": [
        {
          "internalType": "address",
          "name": "poseedor",
          "type": "address"
        },
        {
          "internalType": "uint96",
          "name": "precio",
          "type": "uint96"
        },
        {
          "internalType": "bool",
          "name": "estaVendido",
          "type": "bool"
        }
      ],
      "stateMutability": "view",
      "type": "function"
    },
    {
      "inputs": [
        {
          "internalType": "address",
          "name": "from",
          "type": "address"
        },
        {
          "internalType": "address",
          "name": "to",
          "type": "address"
        },
        {
          "internalType": "uint256",
          "name": "tokenId",
          "type": "uint256"
        }
      ],
      "name": "transferFrom",
      "outputs": [],
      "stateMutability": "nonpayable",
      "type": "function"
    },
    {
      "inputs": [],
      "name": "withdraw",
      "outputs": [],
      "stateMutability": "nonpayable",
      "type": "function"
    }
  ],
  "bytecode": "0x608060405234801561001057600080fd5b506040518060400160405280600e81526020017f4d61726b6574706c6163654e46540000000000000000000000000000000000008152506040518060400160405280600481526020017f4d4e465400000000000000000000000000000000000000000000000000000000815250816000908161008c91906102fc565b50806001908161009c91906102fc565b50505060016007819055506103ce565b600081519050919050565b7f4e487b7100000000000000000000000000000000000000000000000000000000600052604160045260246000fd5b7f4e487b7100000000000000000000000000000000000000000000000000000000600052602260045260246000fd5b6000600282049050600182168061012d57607f821691505b6020821081036101405761013f6100e6565b5b50919050565b60008190508160005260206000209050919050565b60006020601f8301049050919050565b600082821b905092915050565b6000600883026101a87fffffffffffffffffffffffffffffffffffffffffffffffffffffffffffffffff8261016b565b6101b2868361016b565b95508019841693508086168417925050509392505050565b6000819050919050565b6000819050919050565b60006101f96101f46101ef846101ca565b6101d4565b6101ca565b9050919050565b6000819050919050565b610213836101de565b61022761021f82610200565b848454610178565b825550505050565b600090565b61023c61022f565b61024781848461020a565b505050565b5b8181101561026b57610260600082610234565b60018101905061024d565b5050565b601f8211156102b05761028181610146565b61028a8461015b565b81016020851015610299578190505b6102ad6102a58561015b565b83018261024c565b50505b505050565b600082821c905092915050565b60006102d3600019846008026102b5565b1980831691505092915050565b60006102ec83836102c2565b9150826002028217905092915050565b610305826100ac565b67ffffffffffffffff81111561031e5761031d6100b7565b5b6103288254610115565b61033382828561026f565b600060209050601f8311600181146103665760008415610354578287015190505b61035e85826102e0565b8655506103c6565b601f19841661037486610146565b60005b8281101561039c57848901518255600182019150602085019450602081019050610377565b868310156103b957848901516103b5601f8916826102c2565b8355505b6001600288020188555050505b505050505050565b613018806103dd6000396000f3fe60806040526004361061011f5760003560e01c806370a08231116100a0578063b88d4fde11610064578063b88d4fde146103fb578063c87b56dd14610424578063d96a094a14610461578063e985e9c51461047d578063ffbf427b146104ba5761011f565b806370a08231146103165780637262327414610353578063787d67911461037c57806395d89b41146103a7578063a22cb465146103d25761011f565b806323b872dd116100e757806323b872dd146102315780633ccfd60b1461025a57806342842e0e146102715780634f64b2be1461029a5780636352211e146102d95761011f565b806301ffc9a71461012457806306fdde0314610161578063081812fc1461018c578063095ea7b3146101c9578063107a274a146101f2575b600080fd5b34801561013057600080fd5b5061014b600480360381019061014691906121e7565b6104f7565b604051610158919061222f565b60405180910390f35b34801561016d57600080fd5b50610176610558565b60405161018391906122da565b60405180910390f35b34801561019857600080fd5b506101b360048036038101906101ae9190612332565b6105ea565b6040516101c091906123a0565b60405180910390f35b3480156101d557600080fd5b506101f060048036038101906101eb91906123e7565b610606565b005b3480156101fe57600080fd5b5061021960048036038101906102149190612332565b61061c565b6040516102289392919061244e565b60405180910390f35b34801561023d57600080fd5b5061025860048036038101906102539190612485565b610699565b005b34801561026657600080fd5b5061026f61079b565b005b34801561027d57600080fd5b5061029860048036038101906102939190612485565b6108c1565b005b3480156102a657600080fd5b506102c160048036038101906102bc9190612332565b6108e1565b6040516102d09392919061244e565b60405180910390f35b3480156102e557600080fd5b5061030060048036038101906102fb9190612332565b610950565b60405161030d91906123a0565b60405180910390f35b34801561032257600080fd5b5061033d600480360381019061033891906124d8565b610962565b60405161034a9190612514565b60405180910390f35b34801561035f57600080fd5b5061037a60048036038101906103759190612690565b610a1c565b005b34801561038857600080fd5b50610391610b99565b60405161039e9190612514565b60405180910390f35b3480156103b357600080fd5b506103bc610ba3565b6040516103c991906122da565b60405180910390f35b3480156103de57600080fd5b506103f960048036038101906103f49190612718565b610c35565b005b34801561040757600080fd5b50610422600480360381019061041d91906127f9565b610c4b565b005b34801561043057600080fd5b5061044b60048036038101906104469190612332565b610c70565b60405161045891906122da565b60405180910390f35b61047b60048036038101906104769190612332565b610d83565b005b34801561048957600080fd5b506104a4600480360381019061049f919061287c565b611030565b6040516104b1919061222f565b60405180910390f35b3480156104c657600080fd5b506104e160048036038101906104dc91906124d8565b6110c4565b6040516104ee9190612514565b60405180910390f35b6000634906490660e01b7bffffffffffffffffffffffffffffffffffffffffffffffffffffffff1916827bffffffffffffffffffffffffffffffffffffffffffffffffffffffff191614806105515750610550826110dc565b5b9050919050565b606060008054610567906128eb565b80601f0160208091040260200160405190810160405280929190818152602001828054610593906128eb565b80156105e05780601f106105b5576101008083540402835291602001916105e0565b820191906000526020600020905b8154815290600101906020018083116105c357829003601f168201915b5050505050905090565b60006105f5826111be565b506105ff82611246565b9050919050565b6106188282610613611283565b61128b565b5050565b6000806000806009600086815260200190815260200160002090508060000160009054906101000a900473ffffffffffffffffffffffffffffffffffffffff168160000160149054906101000a90046bffffffffffffffffffffffff168260010160009054906101000a900460ff16935093509350509193909250565b600073ffffffffffffffffffffffffffffffffffffffff168273ffffffffffffffffffffffffffffffffffffffff160361070b5760006040517f64a0ae9200000000000000000000000000000000000000000000000000000000815260040161070291906123a0565b60405180910390fd5b600061071f838361071a611283565b61129d565b90508373ffffffffffffffffffffffffffffffffffffffff168173ffffffffffffffffffffffffffffffffffffffff1614610795578382826040517f64283d7b00000000000000000000000000000000000000000000000000000000815260040161078c9392919061291c565b60405180910390fd5b50505050565b6107a36114b7565b6000600a60003373ffffffffffffffffffffffffffffffffffffffff1673ffffffffffffffffffffffffffffffffffffffff1681526020019081526020016000205490506000811161082a576040517f08c379a00000000000000000000000000000000000000000000000000000000081526004016108219061299f565b60405180910390fd5b6000600a60003373ffffffffffffffffffffffffffffffffffffffff1673ffffffffffffffffffffffffffffffffffffffff168152602001908152602001600020819055503373ffffffffffffffffffffffffffffffffffffffff166108fc829081150290604051600060405180830381858888f193505050501580156108b5573d6000803e3d6000fd5b50506108bf6114fd565b565b6108dc83838360405180602001604052806000815250610c4b565b505050565b60096020528060005260406000206000915090508060000160009054906101000a900473ffffffffffffffffffffffffffffffffffffffff16908060000160149054906101000a90046bffffffffffffffffffffffff16908060010160009054906101000a900460ff16905083565b600061095b826111be565b9050919050565b60008073ffffffffffffffffffffffffffffffffffffffff168273ffffffffffffffffffffffffffffffffffffffff16036109d55760006040517f89c62b640000000000000000000000000000000000000000000000000000000081526004016109cc91906123a0565b60405180910390fd5b600360008373ffffffffffffffffffffffffffffffffffffffff1673ffffffffffffffffffffffffffffffffffffffff168152602001908152602001600020549050919050565b60086000815480929190610a2f906129ee565b919050555060006008549050610a453382611507565b610a4f8184611600565b60405180606001604052803373ffffffffffffffffffffffffffffffffffffffff168152602001836bffffffffffffffffffffffff168152602001600015158152506009600083815260200190815260200160002060008201518160000160006101000a81548173ffffffffffffffffffffffffffffffffffffffff021916908373ffffffffffffffffffffffffffffffffffffffff16021790555060208201518160000160146101000a8154816bffffffffffffffffffffffff02191690836bffffffffffffffffffffffff16021790555060408201518160010160006101000a81548160ff0219169083151502179055509050503373ffffffffffffffffffffffffffffffffffffffff16817f74853d0857487d8ab8813c4ff8c6740981eaa76fc83634f27c8f6b51d90b79d084604051610b8c9190612a36565b60405180910390a3505050565b6000600854905090565b606060018054610bb2906128eb565b80601f0160208091040260200160405190810160405280929190818152602001828054610bde906128eb565b8015610c2b5780601f10610c0057610100808354040283529160200191610c2b565b820191906000526020600020905b815481529060010190602001808311610c0e57829003601f168201915b5050505050905090565b610c47610c40611283565b838361165c565b5050565b610c56848484610699565b610c6a610c61611283565b858585856117cb565b50505050565b6060610c7b826111be565b506000600660008481526020019081526020016000208054610c9c906128eb565b80601f0160208091040260200160405190810160405280929190818152602001828054610cc8906128eb565b8015610d155780601f10610cea57610100808354040283529160200191610d15565b820191906000526020600020905b815481529060010190602001808311610cf857829003601f168201915b505050505090506000610d2661197c565b90506000815103610d3b578192505050610d7e565b600082511115610d70578082604051602001610d58929190612a8d565b60405160208183030381529060405292505050610d7e565b610d7984611993565b925050505b919050565b610d8b6114b7565b60006009600083815260200190815260200160002090508060010160009054906101000a900460ff1615610df4576040517f08c379a0000000000000000000000000000000000000000000000000000000008152600401610deb90612afd565b60405180910390fd5b8060000160149054906101000a90046bffffffffffffffffffffffff166bffffffffffffffffffffffff163414610e60576040517f08c379a0000000000000000000000000000000000000000000000000000000008152600401610e5790612b69565b60405180910390fd5b600073ffffffffffffffffffffffffffffffffffffffff168160000160009054906101000a900473ffffffffffffffffffffffffffffffffffffffff1673ffffffffffffffffffffffffffffffffffffffff1603610ef3576040517f08c379a0000000000000000000000000000000000000000000000000000000008152600401610eea90612bd5565b60405180910390fd5b60018160010160006101000a81548160ff02191690831515021790555034600a60008360000160009054906101000a900473ffffffffffffffffffffffffffffffffffffffff1673ffffffffffffffffffffffffffffffffffffffff1673ffffffffffffffffffffffffffffffffffffffff1681526020019081526020016000206000828254610f839190612bf5565b92505081905550610fb98160000160009054906101000a900473ffffffffffffffffffffffffffffffffffffffff1633846119fc565b3373ffffffffffffffffffffffffffffffffffffffff16827f10398926f289f5e9e67a5906e08de3c9692f386c286650b189a7e72cec5cbcb58360000160149054906101000a90046bffffffffffffffffffffffff1660405161101c9190612a36565b60405180910390a35061102d6114fd565b50565b6000600560008473ffffffffffffffffffffffffffffffffffffffff1673ffffffffffffffffffffffffffffffffffffffff16815260200190815260200160002060008373ffffffffffffffffffffffffffffffffffffffff1673ffffffffffffffffffffffffffffffffffffffff16815260200190815260200160002060009054906101000a900460ff16905092915050565b600a6020528060005260406000206000915090505481565b60007f80ac58cd000000000000000000000000000000000000000000000000000000007bffffffffffffffffffffffffffffffffffffffffffffffffffffffff1916827bffffffffffffffffffffffffffffffffffffffffffffffffffffffff191614806111a757507f5b5e139f000000000000000000000000000000000000000000000000000000007bffffffffffffffffffffffffffffffffffffffffffffffffffffffff1916827bffffffffffffffffffffffffffffffffffffffffffffffffffffffff1916145b806111b757506111b682611b69565b5b9050919050565b6000806111ca83611bd3565b9050600073ffffffffffffffffffffffffffffffffffffffff168173ffffffffffffffffffffffffffffffffffffffff160361123d57826040517f7e2732890000000000000000000000000000000000000000000000000000000081526004016112349190612514565b60405180910390fd5b80915050919050565b60006004600083815260200190815260200160002060009054906101000a900473ffffffffffffffffffffffffffffffffffffffff169050919050565b600033905090565b6112988383836001611c10565b505050565b6000806112a984611bd3565b9050600073ffffffffffffffffffffffffffffffffffffffff168373ffffffffffffffffffffffffffffffffffffffff16146112eb576112ea818486611dd5565b5b600073ffffffffffffffffffffffffffffffffffffffff168173ffffffffffffffffffffffffffffffffffffffff161461137c5761132d600085600080611c10565b6001600360008373ffffffffffffffffffffffffffffffffffffffff1673ffffffffffffffffffffffffffffffffffffffff168152602001908152602001600020600082825403925050819055505b600073ffffffffffffffffffffffffffffffffffffffff168573ffffffffffffffffffffffffffffffffffffffff16146113ff576001600360008773ffffffffffffffffffffffffffffffffffffffff1673ffffffffffffffffffffffffffffffffffffffff168152602001908152602001600020600082825401925050819055505b846002600086815260200190815260200160002060006101000a81548173ffffffffffffffffffffffffffffffffffffffff021916908373ffffffffffffffffffffffffffffffffffffffff160217905550838573ffffffffffffffffffffffffffffffffffffffff168273ffffffffffffffffffffffffffffffffffffffff167fddf252ad1be2c89b69c2b068fc378daa952ba7f163c4a11628f55a4df523b3ef60405160405180910390a4809150509392505050565b6002600754036114f3576040517f3ee5aeb500000000000000000000000000000000000000000000000000000000815260040160405180910390fd5b6002600781905550565b6001600781905550565b600073ffffffffffffffffffffffffffffffffffffffff168273ffffffffffffffffffffffffffffffffffffffff16036115795760006040517f64a0ae9200000000000000000000000000000000000000000000000000000000815260040161157091906123a0565b60405180910390fd5b60006115878383600061129d565b9050600073ffffffffffffffffffffffffffffffffffffffff168173ffffffffffffffffffffffffffffffffffffffff16146115fb5760006040517f73c6ac6e0000000000000000000000000000000000000000000000000000000081526004016115f291906123a0565b60405180910390fd5b505050565b806006600084815260200190815260200160002090816116209190612dd5565b507ff8e1a15aba9398e019f0b49df1a4fde98ee17ae345cb5f6b5e2c27f5033e8ce7826040516116509190612514565b60405180910390a15050565b600073ffffffffffffffffffffffffffffffffffffffff168273ffffffffffffffffffffffffffffffffffffffff16036116cd57816040517f5b08ba180000000000000000000000000000000000000000000000000000000081526004016116c491906123a0565b60405180910390fd5b80600560008573ffffffffffffffffffffffffffffffffffffffff1673ffffffffffffffffffffffffffffffffffffffff16815260200190815260200160002060008473ffffffffffffffffffffffffffffffffffffffff1673ffffffffffffffffffffffffffffffffffffffff16815260200190815260200160002060006101000a81548160ff0219169083151502179055508173ffffffffffffffffffffffffffffffffffffffff168373ffffffffffffffffffffffffffffffffffffffff167f17307eab39ab6107e8899845ad3d59bd9653f200f220920489ca2b5937696c31836040516117be919061222f565b60405180910390a3505050565b60008373ffffffffffffffffffffffffffffffffffffffff163b1115611975578273ffffffffffffffffffffffffffffffffffffffff1663150b7a02868685856040518563ffffffff1660e01b815260040161182a9493929190612efc565b6020604051808303816000875af192505050801561186657506040513d601f19601f820116820180604052508101906118639190612f5d565b60015b6118ea573d8060008114611896576040519150601f19603f3d011682016040523d82523d6000602084013e61189b565b606091505b5060008151036118e257836040517f64a0ae920000000000000000000000000000000000000000000000000000000081526004016118d991906123a0565b60405180910390fd5b805181602001fd5b63150b7a0260e01b7bffffffffffffffffffffffffffffffffffffffffffffffffffffffff1916817bffffffffffffffffffffffffffffffffffffffffffffffffffffffff19161461197357836040517f64a0ae9200000000000000000000000000000000000000000000000000000000815260040161196a91906123a0565b60405180910390fd5b505b5050505050565b606060405180602001604052806000815250905090565b606061199e826111be565b5060006119a961197c565b905060008151116119c957604051806020016040528060008152506119f4565b806119d384611e99565b6040516020016119e4929190612a8d565b6040516020818303038152906040525b915050919050565b600073ffffffffffffffffffffffffffffffffffffffff168273ffffffffffffffffffffffffffffffffffffffff1603611a6e5760006040517f64a0ae92000000000000000000000000000000000000000000000000000000008152600401611a6591906123a0565b60405180910390fd5b6000611a7c8383600061129d565b9050600073ffffffffffffffffffffffffffffffffffffffff168173ffffffffffffffffffffffffffffffffffffffff1603611aef57816040517f7e273289000000000000000000000000000000000000000000000000000000008152600401611ae69190612514565b60405180910390fd5b8373ffffffffffffffffffffffffffffffffffffffff168173ffffffffffffffffffffffffffffffffffffffff1614611b63578382826040517f64283d7b000000000000000000000000000000000000000000000000000000008152600401611b5a9392919061291c565b60405180910390fd5b50505050565b60007f01ffc9a7000000000000000000000000000000000000000000000000000000007bffffffffffffffffffffffffffffffffffffffffffffffffffffffff1916827bffffffffffffffffffffffffffffffffffffffffffffffffffffffff1916149050919050565b60006002600083815260200190815260200160002060009054906101000a900473ffffffffffffffffffffffffffffffffffffffff169050919050565b8080611c495750600073ffffffffffffffffffffffffffffffffffffffff168273ffffffffffffffffffffffffffffffffffffffff1614155b15611d7d576000611c59846111be565b9050600073ffffffffffffffffffffffffffffffffffffffff168373ffffffffffffffffffffffffffffffffffffffff1614158015611cc457508273ffffffffffffffffffffffffffffffffffffffff168173ffffffffffffffffffffffffffffffffffffffff1614155b8015611cd75750611cd58184611030565b155b15611d1957826040517fa9fbf51f000000000000000000000000000000000000000000000000000000008152600401611d1091906123a0565b60405180910390fd5b8115611d7b57838573ffffffffffffffffffffffffffffffffffffffff168273ffffffffffffffffffffffffffffffffffffffff167f8c5be1e5ebec7d5bd14f71427d1e84f3dd0314c0f7b2291e5b200ac8c7c3b92560405160405180910390a45b505b836004600085815260200190815260200160002060006101000a81548173ffffffffffffffffffffffffffffffffffffffff021916908373ffffffffffffffffffffffffffffffffffffffff16021790555050505050565b611de0838383611f67565b611e9457600073ffffffffffffffffffffffffffffffffffffffff168373ffffffffffffffffffffffffffffffffffffffff1603611e5557806040517f7e273289000000000000000000000000000000000000000000000000000000008152600401611e4c9190612514565b60405180910390fd5b81816040517f177e802f000000000000000000000000000000000000000000000000000000008152600401611e8b929190612f8a565b60405180910390fd5b505050565b606060006001611ea884612028565b01905060008167ffffffffffffffff811115611ec757611ec6612539565b5b6040519080825280601f01601f191660200182016040528015611ef95781602001600182028036833780820191505090505b509050600082602001820190505b600115611f5c578080600190039150507f3031323334353637383961626364656600000000000000000000000000000000600a86061a8153600a8581611f5057611f4f612fb3565b5b04945060008503611f07575b819350505050919050565b60008073ffffffffffffffffffffffffffffffffffffffff168373ffffffffffffffffffffffffffffffffffffffff161415801561201f57508273ffffffffffffffffffffffffffffffffffffffff168473ffffffffffffffffffffffffffffffffffffffff161480611fe05750611fdf8484611030565b5b8061201e57508273ffffffffffffffffffffffffffffffffffffffff1661200683611246565b73ffffffffffffffffffffffffffffffffffffffff16145b5b90509392505050565b600080600090507a184f03e93ff9f4daa797ed6e38ed64bf6a1f0100000000000000008310612086577a184f03e93ff9f4daa797ed6e38ed64bf6a1f010000000000000000838161207c5761207b612fb3565b5b0492506040810190505b6d04ee2d6d415b85acef810000000083106120c3576d04ee2d6d415b85acef810000000083816120b9576120b8612fb3565b5b0492506020810190505b662386f26fc1000083106120f257662386f26fc1000083816120e8576120e7612fb3565b5b0492506010810190505b6305f5e100831061211b576305f5e100838161211157612110612fb3565b5b0492506008810190505b612710831061214057612710838161213657612135612fb3565b5b0492506004810190505b60648310612163576064838161215957612158612fb3565b5b0492506002810190505b600a8310612172576001810190505b80915050919050565b6000604051905090565b600080fd5b600080fd5b60007fffffffff0000000000000000000000000000000000000000000000000000000082169050919050565b6121c48161218f565b81146121cf57600080fd5b50565b6000813590506121e1816121bb565b92915050565b6000602082840312156121fd576121fc612185565b5b600061220b848285016121d2565b91505092915050565b60008115159050919050565b61222981612214565b82525050565b60006020820190506122446000830184612220565b92915050565b600081519050919050565b600082825260208201905092915050565b60005b83811015612284578082015181840152602081019050612269565b60008484015250505050565b6000601f19601f8301169050919050565b60006122ac8261224a565b6122b68185612255565b93506122c6818560208601612266565b6122cf81612290565b840191505092915050565b600060208201905081810360008301526122f481846122a1565b905092915050565b6000819050919050565b61230f816122fc565b811461231a57600080fd5b50565b60008135905061232c81612306565b92915050565b60006020828403121561234857612347612185565b5b60006123568482850161231d565b91505092915050565b600073ffffffffffffffffffffffffffffffffffffffff82169050919050565b600061238a8261235f565b9050919050565b61239a8161237f565b82525050565b60006020820190506123b56000830184612391565b92915050565b6123c48161237f565b81146123cf57600080fd5b50565b6000813590506123e1816123bb565b92915050565b600080604083850312156123fe576123fd612185565b5b600061240c858286016123d2565b925050602061241d8582860161231d565b9150509250929050565b60006bffffffffffffffffffffffff82169050919050565b61244881612427565b82525050565b60006060820190506124636000830186612391565b612470602083018561243f565b61247d6040830184612220565b949350505050565b60008060006060848603121561249e5761249d612185565b5b60006124ac868287016123d2565b93505060206124bd868287016123d2565b92505060406124ce8682870161231d565b9150509250925092565b6000602082840312156124ee576124ed612185565b5b60006124fc848285016123d2565b91505092915050565b61250e816122fc565b82525050565b60006020820190506125296000830184612505565b92915050565b600080fd5b600080fd5b7f4e487b7100000000000000000000000000000000000000000000000000000000600052604160045260246000fd5b61257182612290565b810181811067ffffffffffffffff821117156125905761258f612539565b5b80604052505050565b60006125a361217b565b90506125af8282612568565b919050565b600067ffffffffffffffff8211156125cf576125ce612539565b5b6125d882612290565b9050602081019050919050565b82818337600083830152505050565b6000612607612602846125b4565b612599565b90508281526020810184848401111561262357612622612534565b5b61262e8482856125e5565b509392505050565b600082601f83011261264b5761264a61252f565b5b813561265b8482602086016125f4565b91505092915050565b61266d81612427565b811461267857600080fd5b50565b60008135905061268a81612664565b92915050565b600080604083850312156126a7576126a6612185565b5b600083013567ffffffffffffffff8111156126c5576126c461218a565b5b6126d185828601612636565b92505060206126e28582860161267b565b9150509250929050565b6126f581612214565b811461270057600080fd5b50565b600081359050612712816126ec565b92915050565b6000806040838503121561272f5761272e612185565b5b600061273d858286016123d2565b925050602061274e85828601612703565b9150509250929050565b600067ffffffffffffffff82111561277357612772612539565b5b61277c82612290565b9050602081019050919050565b600061279c61279784612758565b612599565b9050828152602081018484840111156127b8576127b7612534565b5b6127c38482856125e5565b509392505050565b600082601f8301126127e0576127df61252f565b5b81356127f0848260208601612789565b91505092915050565b6000806000806080858703121561281357612812612185565b5b6000612821878288016123d2565b9450506020612832878288016123d2565b93505060406128438782880161231d565b925050606085013567ffffffffffffffff8111156128645761286361218a565b5b612870878288016127cb565b91505092959194509250565b6000806040838503121561289357612892612185565b5b60006128a1858286016123d2565b92505060206128b2858286016123d2565b9150509250929050565b7f4e487b7100000000000000000000000000000000000000000000000000000000600052602260045260246000fd5b6000600282049050600182168061290357607f821691505b602082108103612916576129156128bc565b5b50919050565b60006060820190506129316000830186612391565b61293e6020830185612505565b61294b6040830184612391565b949350505050565b7f4e6f2068617920666f6e646f7320706172612072657469726172000000000000600082015250565b6000612989601a83612255565b915061299482612953565b602082019050919050565b600060208201905081810360008301526129b88161297c565b9050919050565b7f4e487b7100000000000000000000000000000000000000000000000000000000600052601160045260246000fd5b60006129f9826122fc565b91507fffffffffffffffffffffffffffffffffffffffffffffffffffffffffffffffff8203612a2b57612a2a6129bf565b5b600182019050919050565b6000602082019050612a4b600083018461243f565b92915050565b600081905092915050565b6000612a678261224a565b612a718185612a51565b9350612a81818560208601612266565b80840191505092915050565b6000612a998285612a5c565b9150612aa58284612a5c565b91508190509392505050565b7f4974656d2079612076656e6469646f0000000000000000000000000000000000600082015250565b6000612ae7600f83612255565b9150612af282612ab1565b602082019050919050565b60006020820190508181036000830152612b1681612ada565b9050919050565b7f50726563696f20696e636f72726563746f000000000000000000000000000000600082015250565b6000612b53601183612255565b9150612b5e82612b1d565b602082019050919050565b60006020820190508181036000830152612b8281612b46565b9050919050565b7f4e6f2065786973746520656c206974656d000000000000000000000000000000600082015250565b6000612bbf601183612255565b9150612bca82612b89565b602082019050919050565b60006020820190508181036000830152612bee81612bb2565b9050919050565b6000612c00826122fc565b9150612c0b836122fc565b9250828201905080821115612c2357612c226129bf565b5b92915050565b60008190508160005260206000209050919050565b60006020601f8301049050919050565b600082821b905092915050565b600060088302612c8b7fffffffffffffffffffffffffffffffffffffffffffffffffffffffffffffffff82612c4e565b612c958683612c4e565b95508019841693508086168417925050509392505050565b6000819050919050565b6000612cd2612ccd612cc8846122fc565b612cad565b6122fc565b9050919050565b6000819050919050565b612cec83612cb7565b612d00612cf882612cd9565b848454612c5b565b825550505050565b600090565b612d15612d08565b612d20818484612ce3565b505050565b5b81811015612d4457612d39600082612d0d565b600181019050612d26565b5050565b601f821115612d8957612d5a81612c29565b612d6384612c3e565b81016020851015612d72578190505b612d86612d7e85612c3e565b830182612d25565b50505b505050565b600082821c905092915050565b6000612dac60001984600802612d8e565b1980831691505092915050565b6000612dc58383612d9b565b9150826002028217905092915050565b612dde8261224a565b67ffffffffffffffff811115612df757612df6612539565b5b612e0182546128eb565b612e0c828285612d48565b600060209050601f831160018114612e3f5760008415612e2d578287015190505b612e378582612db9565b865550612e9f565b601f198416612e4d86612c29565b60005b82811015612e7557848901518255600182019150602085019450602081019050612e50565b86831015612e925784890151612e8e601f891682612d9b565b8355505b6001600288020188555050505b505050505050565b600081519050919050565b600082825260208201905092915050565b6000612ece82612ea7565b612ed88185612eb2565b9350612ee8818560208601612266565b612ef181612290565b840191505092915050565b6000608082019050612f116000830187612391565b612f1e6020830186612391565b612f2b6040830185612505565b8181036060830152612f3d8184612ec3565b905095945050505050565b600081519050612f57816121bb565b92915050565b600060208284031215612f7357612f72612185565b5b6000612f8184828501612f48565b91505092915050565b6000604082019050612f9f6000830185612391565b612fac6020830184612505565b9392505050565b7f4e487b7100000000000000000000000000000000000000000000000000000000600052601260045260246000fdfea26469706673582212200726217123b549d66b3bfedd5b53fbd24eb25bd66b30949b969f4f9924c1a96264736f6c634300081c0033",
  "linkReferences": {},
  "deployedLinkReferences": {}
}