{
  "_format": "hh-sol-artifact-1",
  "contractName": "Marketplace",
  "sourceName": "contracts/Marketplace.sol",
  "abi": [
    {
      "inputs": [],
      "stateMutability": "nonpayable",
      "type": "constructor"
    },
    {
      "inputs": [
        {
          "internalType": "address",
          "name": "sender",
          "type": "address"
        },
        {
          "internalType": "uint256",
          "name": "tokenId",
          "type": "uint256"
        },
        {
          "internalType": "address",
          "name": "owner",
          "type": "address"
        }
      ],
      "name": "ERC721IncorrectOwner",
      "type": "error"
    },
    {
      "inputs": [
        {
          "internalType": "address",
          "name": "operator",
          "type": "address"
        },
        {
          "internalType": "uint256",
          "name": "tokenId",
          "type": "uint256"
        }
      ],
      "name": "ERC721InsufficientApproval",
      "type": "error"
    },
    {
      "inputs": [
        {
          "internalType": "address",
          "name": "approver",
          "type": "address"
        }
      ],
      "name": "ERC721InvalidApprover",
      "type": "error"
    },
    {
      "inputs": [
        {
          "internalType": "address",
          "name": "operator",
          "type": "address"
        }
      ],
      "name": "ERC721InvalidOperator",
      "type": "error"
    },
    {
      "inputs": [
        {
          "internalType": "address",
          "name": "owner",
          "type": "address"
        }
      ],
      "name": "ERC721InvalidOwner",
      "type": "error"
    },
    {
      "inputs": [
        {
          "internalType": "address",
          "name": "receiver",
          "type": "address"
        }
      ],
      "name": "ERC721InvalidReceiver",
      "type": "error"
    },
    {
      "inputs": [
        {
          "internalType": "address",
          "name": "sender",
          "type": "address"
        }
      ],
      "name": "ERC721InvalidSender",
      "type": "error"
    },
    {
      "inputs": [
        {
          "internalType": "uint256",
          "name": "tokenId",
          "type": "uint256"
        }
      ],
      "name": "ERC721NonexistentToken",
      "type": "error"
    },
    {
      "inputs": [
        {
          "internalType": "address",
          "name": "owner",
          "type": "address"
        }
      ],
      "name": "OwnableInvalidOwner",
      "type": "error"
    },
    {
      "inputs": [
        {
          "internalType": "address",
          "name": "account",
          "type": "address"
        }
      ],
      "name": "OwnableUnauthorizedAccount",
      "type": "error"
    },
    {
      "anonymous": false,
      "inputs": [
        {
          "indexed": true,
          "internalType": "address",
          "name": "owner",
          "type": "address"
        },
        {
          "indexed": true,
          "internalType": "address",
          "name": "approved",
          "type": "address"
        },
        {
          "indexed": true,
          "internalType": "uint256",
          "name": "tokenId",
          "type": "uint256"
        }
      ],
      "name": "Approval",
      "type": "event"
    },
    {
      "anonymous": false,
      "inputs": [
        {
          "indexed": true,
          "internalType": "address",
          "name": "owner",
          "type": "address"
        },
        {
          "indexed": true,
          "internalType": "address",
          "name": "operator",
          "type": "address"
        },
        {
          "indexed": false,
          "internalType": "bool",
          "name": "approved",
          "type": "bool"
        }
      ],
      "name": "ApprovalForAll",
      "type": "event"
    },
    {
      "anonymous": false,
      "inputs": [
        {
          "indexed": false,
          "internalType": "uint256",
          "name": "_fromTokenId",
          "type": "uint256"
        },
        {
          "indexed": false,
          "internalType": "uint256",
          "name": "_toTokenId",
          "type": "uint256"
        }
      ],
      "name": "BatchMetadataUpdate",
      "type": "event"
    },
    {
      "anonymous": false,
      "inputs": [
        {
          "indexed": true,
          "internalType": "uint256",
          "name": "tokenId",
          "type": "uint256"
        },
        {
          "indexed": true,
          "internalType": "address",
          "name": "owner",
          "type": "address"
        },
        {
          "indexed": false,
          "internalType": "uint256",
          "name": "price",
          "type": "uint256"
        }
      ],
      "name": "ItemListed",
      "type": "event"
    },
    {
      "anonymous": false,
      "inputs": [
        {
          "indexed": true,
          "internalType": "uint256",
          "name": "tokenId",
          "type": "uint256"
        },
        {
          "indexed": true,
          "internalType": "address",
          "name": "buyer",
          "type": "address"
        },
        {
          "indexed": false,
          "internalType": "uint256",
          "name": "price",
          "type": "uint256"
        }
      ],
      "name": "ItemSold",
      "type": "event"
    },
    {
      "anonymous": false,
      "inputs": [
        {
          "indexed": false,
          "internalType": "uint256",
          "name": "_tokenId",
          "type": "uint256"
        }
      ],
      "name": "MetadataUpdate",
      "type": "event"
    },
    {
      "anonymous": false,
      "inputs": [
        {
          "indexed": true,
          "internalType": "address",
          "name": "previousOwner",
          "type": "address"
        },
        {
          "indexed": true,
          "internalType": "address",
          "name": "newOwner",
          "type": "address"
        }
      ],
      "name": "OwnershipTransferred",
      "type": "event"
    },
    {
      "anonymous": false,
      "inputs": [
        {
          "indexed": true,
          "internalType": "address",
          "name": "from",
          "type": "address"
        },
        {
          "indexed": true,
          "internalType": "address",
          "name": "to",
          "type": "address"
        },
        {
          "indexed": true,
          "internalType": "uint256",
          "name": "tokenId",
          "type": "uint256"
        }
      ],
      "name": "Transfer",
      "type": "event"
    },
    {
      "inputs": [
        {
          "internalType": "address",
          "name": "to",
          "type": "address"
        },
        {
          "internalType": "uint256",
          "name": "tokenId",
          "type": "uint256"
        }
      ],
      "name": "approve",
      "outputs": [],
      "stateMutability": "nonpayable",
      "type": "function"
    },
    {
      "inputs": [
        {
          "internalType": "address",
          "name": "owner",
          "type": "address"
        }
      ],
      "name": "balanceOf",
      "outputs": [
        {
          "internalType": "uint256",
          "name": "",
          "type": "uint256"
        }
      ],
      "stateMutability": "view",
      "type": "function"
    },
    {
      "inputs": [
        {
          "internalType": "uint256",
          "name": "_tokenId",
          "type": "uint256"
        }
      ],
      "name": "buy",
      "outputs": [],
      "stateMutability": "payable",
      "type": "function"
    },
    {
      "inputs": [
        {
          "internalType": "uint256",
          "name": "tokenId",
          "type": "uint256"
        }
      ],
      "name": "getApproved",
      "outputs": [
        {
          "internalType": "address",
          "name": "",
          "type": "address"
        }
      ],
      "stateMutability": "view",
      "type": "function"
    },
    {
      "inputs": [
        {
          "internalType": "address",
          "name": "seller",
          "type": "address"
        }
      ],
      "name": "getBalance",
      "outputs": [
        {
          "internalType": "uint256",
          "name": "",
          "type": "uint256"
        }
      ],
      "stateMutability": "view",
      "type": "function"
    },
    {
      "inputs": [],
      "name": "getCurrentTokenId",
      "outputs": [
        {
          "internalType": "uint256",
          "name": "",
          "type": "uint256"
        }
      ],
      "stateMutability": "view",
      "type": "function"
    },
    {
      "inputs": [
        {
          "internalType": "uint256",
          "name": "_tokenId",
          "type": "uint256"
        }
      ],
      "name": "getListing",
      "outputs": [
        {
          "internalType": "address",
          "name": "",
          "type": "address"
        },
        {
          "internalType": "uint256",
          "name": "",
          "type": "uint256"
        },
        {
          "internalType": "bool",
          "name": "",
          "type": "bool"
        }
      ],
      "stateMutability": "view",
      "type": "function"
    },
    {
      "inputs": [
        {
          "internalType": "address",
          "name": "owner",
          "type": "address"
        },
        {
          "internalType": "address",
          "name": "operator",
          "type": "address"
        }
      ],
      "name": "isApprovedForAll",
      "outputs": [
        {
          "internalType": "bool",
          "name": "",
          "type": "bool"
        }
      ],
      "stateMutability": "view",
      "type": "function"
    },
    {
      "inputs": [
        {
          "internalType": "string",
          "name": "_uri",
          "type": "string"
        },
        {
          "internalType": "uint256",
          "name": "_price",
          "type": "uint256"
        }
      ],
      "name": "mintAndList",
      "outputs": [],
      "stateMutability": "nonpayable",
      "type": "function"
    },
    {
      "inputs": [],
      "name": "name",
      "outputs": [
        {
          "internalType": "string",
          "name": "",
          "type": "string"
        }
      ],
      "stateMutability": "view",
      "type": "function"
    },
    {
      "inputs": [],
      "name": "owner",
      "outputs": [
        {
          "internalType": "address",
          "name": "",
          "type": "address"
        }
      ],
      "stateMutability": "view",
      "type": "function"
    },
    {
      "inputs": [
        {
          "internalType": "uint256",
          "name": "tokenId",
          "type": "uint256"
        }
      ],
      "name": "ownerOf",
      "outputs": [
        {
          "internalType": "address",
          "name": "",
          "type": "address"
        }
      ],
      "stateMutability": "view",
      "type": "function"
    },
    {
      "inputs": [],
      "name": "renounceOwnership",
      "outputs": [],
      "stateMutability": "nonpayable",
      "type": "function"
    },
    {
      "inputs": [
        {
          "internalType": "address",
          "name": "from",
          "type": "address"
        },
        {
          "internalType": "address",
          "name": "to",
          "type": "address"
        },
        {
          "internalType": "uint256",
          "name": "tokenId",
          "type": "uint256"
        }
      ],
      "name": "safeTransferFrom",
      "outputs": [],
      "stateMutability": "nonpayable",
      "type": "function"
    },
    {
      "inputs": [
        {
          "internalType": "address",
          "name": "from",
          "type": "address"
        },
        {
          "internalType": "address",
          "name": "to",
          "type": "address"
        },
        {
          "internalType": "uint256",
          "name": "tokenId",
          "type": "uint256"
        },
        {
          "internalType": "bytes",
          "name": "data",
          "type": "bytes"
        }
      ],
      "name": "safeTransferFrom",
      "outputs": [],
      "stateMutability": "nonpayable",
      "type": "function"
    },
    {
      "inputs": [
        {
          "internalType": "address",
          "name": "operator",
          "type": "address"
        },
        {
          "internalType": "bool",
          "name": "approved",
          "type": "bool"
        }
      ],
      "name": "setApprovalForAll",
      "outputs": [],
      "stateMutability": "nonpayable",
      "type": "function"
    },
    {
      "inputs": [
        {
          "internalType": "bytes4",
          "name": "interfaceId",
          "type": "bytes4"
        }
      ],
      "name": "supportsInterface",
      "outputs": [
        {
          "internalType": "bool",
          "name": "",
          "type": "bool"
        }
      ],
      "stateMutability": "view",
      "type": "function"
    },
    {
      "inputs": [],
      "name": "symbol",
      "outputs": [
        {
          "internalType": "string",
          "name": "",
          "type": "string"
        }
      ],
      "stateMutability": "view",
      "type": "function"
    },
    {
      "inputs": [
        {
          "internalType": "uint256",
          "name": "tokenId",
          "type": "uint256"
        }
      ],
      "name": "tokenURI",
      "outputs": [
        {
          "internalType": "string",
          "name": "",
          "type": "string"
        }
      ],
      "stateMutability": "view",
      "type": "function"
    },
    {
      "inputs": [
        {
          "internalType": "address",
          "name": "from",
          "type": "address"
        },
        {
          "internalType": "address",
          "name": "to",
          "type": "address"
        },
        {
          "internalType": "uint256",
          "name": "tokenId",
          "type": "uint256"
        }
      ],
      "name": "transferFrom",
      "outputs": [],
      "stateMutability": "nonpayable",
      "type": "function"
    },
    {
      "inputs": [
        {
          "internalType": "address",
          "name": "newOwner",
          "type": "address"
        }
      ],
      "name": "transferOwnership",
      "outputs": [],
      "stateMutability": "nonpayable",
      "type": "function"
    },
    {
      "inputs": [],
      "name": "withdraw",
      "outputs": [],
      "stateMutability": "nonpayable",
      "type": "function"
    }
  ],
  "bytecode": "0x608060405234801561001057600080fd5b50336040518060400160405280600e81526020017f4e46544d61726b6574706c6163650000000000000000000000000000000000008152506040518060400160405280600481526020017f4e46544d00000000000000000000000000000000000000000000000000000000815250816000908161008d919061043d565b50806001908161009d919061043d565b505050600073ffffffffffffffffffffffffffffffffffffffff168173ffffffffffffffffffffffffffffffffffffffff16036101125760006040517f1e4fbdf70000000000000000000000000000000000000000000000000000000081526004016101099190610550565b60405180910390fd5b6101218161012760201b60201c565b5061056b565b6000600760009054906101000a900473ffffffffffffffffffffffffffffffffffffffff16905081600760006101000a81548173ffffffffffffffffffffffffffffffffffffffff021916908373ffffffffffffffffffffffffffffffffffffffff1602179055508173ffffffffffffffffffffffffffffffffffffffff168173ffffffffffffffffffffffffffffffffffffffff167f8be0079c531659141344cd1fd0a4f28419497f9722a3daafe3b4186f6b6457e060405160405180910390a35050565b600081519050919050565b7f4e487b7100000000000000000000000000000000000000000000000000000000600052604160045260246000fd5b7f4e487b7100000000000000000000000000000000000000000000000000000000600052602260045260246000fd5b6000600282049050600182168061026e57607f821691505b60208210810361028157610280610227565b5b50919050565b60008190508160005260206000209050919050565b60006020601f8301049050919050565b600082821b905092915050565b6000600883026102e97fffffffffffffffffffffffffffffffffffffffffffffffffffffffffffffffff826102ac565b6102f386836102ac565b95508019841693508086168417925050509392505050565b6000819050919050565b6000819050919050565b600061033a6103356103308461030b565b610315565b61030b565b9050919050565b6000819050919050565b6103548361031f565b61036861036082610341565b8484546102b9565b825550505050565b600090565b61037d610370565b61038881848461034b565b505050565b5b818110156103ac576103a1600082610375565b60018101905061038e565b5050565b601f8211156103f1576103c281610287565b6103cb8461029c565b810160208510156103da578190505b6103ee6103e68561029c565b83018261038d565b50505b505050565b600082821c905092915050565b6000610414600019846008026103f6565b1980831691505092915050565b600061042d8383610403565b9150826002028217905092915050565b610446826101ed565b67ffffffffffffffff81111561045f5761045e6101f8565b5b6104698254610256565b6104748282856103b0565b600060209050601f8311600181146104a75760008415610495578287015190505b61049f8582610421565b865550610507565b601f1984166104b586610287565b60005b828110156104dd578489015182556001820191506020850194506020810190506104b8565b868310156104fa57848901516104f6601f891682610403565b8355505b6001600288020188555050505b505050505050565b600073ffffffffffffffffffffffffffffffffffffffff82169050919050565b600061053a8261050f565b9050919050565b61054a8161052f565b82525050565b60006020820190506105656000830184610541565b92915050565b612df98061057a6000396000f3fe6080604052600436106101355760003560e01c8063715018a6116100ab578063c87b56dd1161006f578063c87b56dd14610414578063d3d1b2e114610451578063d96a094a1461047a578063e985e9c514610496578063f2fde38b146104d3578063f8b2cb4f146104fc57610135565b8063715018a6146103555780638da5cb5b1461036c57806395d89b4114610397578063a22cb465146103c2578063b88d4fde146103eb57610135565b806323b872dd116100fd57806323b872dd146102475780633ccfd60b1461027057806342842e0e1461028757806356189236146102b05780636352211e146102db57806370a082311461031857610135565b806301ffc9a71461013a57806306fdde0314610177578063081812fc146101a2578063095ea7b3146101df578063107a274a14610208575b600080fd5b34801561014657600080fd5b50610161600480360381019061015c91906121e6565b610539565b60405161016e919061222e565b60405180910390f35b34801561018357600080fd5b5061018c61059a565b60405161019991906122d9565b60405180910390f35b3480156101ae57600080fd5b506101c960048036038101906101c49190612331565b61062c565b6040516101d6919061239f565b60405180910390f35b3480156101eb57600080fd5b50610206600480360381019061020191906123e6565b610648565b005b34801561021457600080fd5b5061022f600480360381019061022a9190612331565b61065e565b60405161023e93929190612435565b60405180910390f35b34801561025357600080fd5b5061026e6004803603810190610269919061246c565b61071c565b005b34801561027c57600080fd5b5061028561081e565b005b34801561029357600080fd5b506102ae60048036038101906102a9919061246c565b6108f1565b005b3480156102bc57600080fd5b506102c5610911565b6040516102d291906124bf565b60405180910390f35b3480156102e757600080fd5b5061030260048036038101906102fd9190612331565b61091b565b60405161030f919061239f565b60405180910390f35b34801561032457600080fd5b5061033f600480360381019061033a91906124da565b61092d565b60405161034c91906124bf565b60405180910390f35b34801561036157600080fd5b5061036a6109e7565b005b34801561037857600080fd5b506103816109fb565b60405161038e919061239f565b60405180910390f35b3480156103a357600080fd5b506103ac610a25565b6040516103b991906122d9565b60405180910390f35b3480156103ce57600080fd5b506103e960048036038101906103e49190612533565b610ab7565b005b3480156103f757600080fd5b50610412600480360381019061040d91906126a8565b610acd565b005b34801561042057600080fd5b5061043b60048036038101906104369190612331565b610af2565b60405161044891906122d9565b60405180910390f35b34801561045d57600080fd5b50610478600480360381019061047391906127cc565b610c05565b005b610494600480360381019061048f9190612331565b610d47565b005b3480156104a257600080fd5b506104bd60048036038101906104b89190612828565b610e7b565b6040516104ca919061222e565b60405180910390f35b3480156104df57600080fd5b506104fa60048036038101906104f591906124da565b610f0f565b005b34801561050857600080fd5b50610523600480360381019061051e91906124da565b610f95565b60405161053091906124bf565b60405180910390f35b6000634906490660e01b7bffffffffffffffffffffffffffffffffffffffffffffffffffffffff1916827bffffffffffffffffffffffffffffffffffffffffffffffffffffffff19161480610593575061059282610fde565b5b9050919050565b6060600080546105a990612897565b80601f01602080910402602001604051908101604052809291908181526020018280546105d590612897565b80156106225780601f106105f757610100808354040283529160200191610622565b820191906000526020600020905b81548152906001019060200180831161060557829003601f168201915b5050505050905090565b6000610637826110c0565b5061064182611148565b9050919050565b61065a8282610655611185565b61118d565b5050565b600080600080600960008681526020019081526020016000206040518060600160405290816000820160009054906101000a900473ffffffffffffffffffffffffffffffffffffffff1673ffffffffffffffffffffffffffffffffffffffff1673ffffffffffffffffffffffffffffffffffffffff168152602001600182015481526020016002820160009054906101000a900460ff1615151515815250509050806000015181602001518260400151935093509350509193909250565b600073ffffffffffffffffffffffffffffffffffffffff168273ffffffffffffffffffffffffffffffffffffffff160361078e5760006040517f64a0ae92000000000000000000000000000000000000000000000000000000008152600401610785919061239f565b60405180910390fd5b60006107a2838361079d611185565b61119f565b90508373ffffffffffffffffffffffffffffffffffffffff168173ffffffffffffffffffffffffffffffffffffffff1614610818578382826040517f64283d7b00000000000000000000000000000000000000000000000000000000815260040161080f939291906128c8565b60405180910390fd5b50505050565b6000600a60003373ffffffffffffffffffffffffffffffffffffffff1673ffffffffffffffffffffffffffffffffffffffff1681526020019081526020016000205490506000600a60003373ffffffffffffffffffffffffffffffffffffffff1673ffffffffffffffffffffffffffffffffffffffff168152602001908152602001600020819055503373ffffffffffffffffffffffffffffffffffffffff166108fc829081150290604051600060405180830381858888f193505050501580156108ed573d6000803e3d6000fd5b5050565b61090c83838360405180602001604052806000815250610acd565b505050565b6000600854905090565b6000610926826110c0565b9050919050565b60008073ffffffffffffffffffffffffffffffffffffffff168273ffffffffffffffffffffffffffffffffffffffff16036109a05760006040517f89c62b64000000000000000000000000000000000000000000000000000000008152600401610997919061239f565b60405180910390fd5b600360008373ffffffffffffffffffffffffffffffffffffffff1673ffffffffffffffffffffffffffffffffffffffff168152602001908152602001600020549050919050565b6109ef6113b9565b6109f96000611440565b565b6000600760009054906101000a900473ffffffffffffffffffffffffffffffffffffffff16905090565b606060018054610a3490612897565b80601f0160208091040260200160405190810160405280929190818152602001828054610a6090612897565b8015610aad5780601f10610a8257610100808354040283529160200191610aad565b820191906000526020600020905b815481529060010190602001808311610a9057829003601f168201915b5050505050905090565b610ac9610ac2611185565b8383611506565b5050565b610ad884848461071c565b610aec610ae3611185565b85858585611675565b50505050565b6060610afd826110c0565b506000600660008481526020019081526020016000208054610b1e90612897565b80601f0160208091040260200160405190810160405280929190818152602001828054610b4a90612897565b8015610b975780601f10610b6c57610100808354040283529160200191610b97565b820191906000526020600020905b815481529060010190602001808311610b7a57829003601f168201915b505050505090506000610ba8611826565b90506000815103610bbd578192505050610c00565b600082511115610bf2578082604051602001610bda92919061293b565b60405160208183030381529060405292505050610c00565b610bfb8461183d565b925050505b919050565b60086000815480929190610c189061298e565b919050555060006008549050610c2e33826118a6565b610c38818461199f565b60405180606001604052803373ffffffffffffffffffffffffffffffffffffffff168152602001838152602001600015158152506009600083815260200190815260200160002060008201518160000160006101000a81548173ffffffffffffffffffffffffffffffffffffffff021916908373ffffffffffffffffffffffffffffffffffffffff1602179055506020820151816001015560408201518160020160006101000a81548160ff0219169083151502179055509050503373ffffffffffffffffffffffffffffffffffffffff16817fc93edc6ee14cd6c0c2842099adfa8953b237dbdad304ba28e96dce8a7f2a828c84604051610d3a91906124bf565b60405180910390a3505050565b600060096000838152602001908152602001600020905060018160020160006101000a81548160ff02191690831515021790555034600a60008360000160009054906101000a900473ffffffffffffffffffffffffffffffffffffffff1673ffffffffffffffffffffffffffffffffffffffff1673ffffffffffffffffffffffffffffffffffffffff1681526020019081526020016000206000828254610dee91906129d6565b92505081905550610e248160000160009054906101000a900473ffffffffffffffffffffffffffffffffffffffff1633846119fb565b3373ffffffffffffffffffffffffffffffffffffffff16827fa574c741071bb18f51fa88c17aeefec514bebf670ca22a3736fba6504ecbb7638360010154604051610e6f91906124bf565b60405180910390a35050565b6000600560008473ffffffffffffffffffffffffffffffffffffffff1673ffffffffffffffffffffffffffffffffffffffff16815260200190815260200160002060008373ffffffffffffffffffffffffffffffffffffffff1673ffffffffffffffffffffffffffffffffffffffff16815260200190815260200160002060009054906101000a900460ff16905092915050565b610f176113b9565b600073ffffffffffffffffffffffffffffffffffffffff168173ffffffffffffffffffffffffffffffffffffffff1603610f895760006040517f1e4fbdf7000000000000000000000000000000000000000000000000000000008152600401610f80919061239f565b60405180910390fd5b610f9281611440565b50565b6000600a60008373ffffffffffffffffffffffffffffffffffffffff1673ffffffffffffffffffffffffffffffffffffffff168152602001908152602001600020549050919050565b60007f80ac58cd000000000000000000000000000000000000000000000000000000007bffffffffffffffffffffffffffffffffffffffffffffffffffffffff1916827bffffffffffffffffffffffffffffffffffffffffffffffffffffffff191614806110a957507f5b5e139f000000000000000000000000000000000000000000000000000000007bffffffffffffffffffffffffffffffffffffffffffffffffffffffff1916827bffffffffffffffffffffffffffffffffffffffffffffffffffffffff1916145b806110b957506110b882611b68565b5b9050919050565b6000806110cc83611bd2565b9050600073ffffffffffffffffffffffffffffffffffffffff168173ffffffffffffffffffffffffffffffffffffffff160361113f57826040517f7e27328900000000000000000000000000000000000000000000000000000000815260040161113691906124bf565b60405180910390fd5b80915050919050565b60006004600083815260200190815260200160002060009054906101000a900473ffffffffffffffffffffffffffffffffffffffff169050919050565b600033905090565b61119a8383836001611c0f565b505050565b6000806111ab84611bd2565b9050600073ffffffffffffffffffffffffffffffffffffffff168373ffffffffffffffffffffffffffffffffffffffff16146111ed576111ec818486611dd4565b5b600073ffffffffffffffffffffffffffffffffffffffff168173ffffffffffffffffffffffffffffffffffffffff161461127e5761122f600085600080611c0f565b6001600360008373ffffffffffffffffffffffffffffffffffffffff1673ffffffffffffffffffffffffffffffffffffffff168152602001908152602001600020600082825403925050819055505b600073ffffffffffffffffffffffffffffffffffffffff168573ffffffffffffffffffffffffffffffffffffffff1614611301576001600360008773ffffffffffffffffffffffffffffffffffffffff1673ffffffffffffffffffffffffffffffffffffffff168152602001908152602001600020600082825401925050819055505b846002600086815260200190815260200160002060006101000a81548173ffffffffffffffffffffffffffffffffffffffff021916908373ffffffffffffffffffffffffffffffffffffffff160217905550838573ffffffffffffffffffffffffffffffffffffffff168273ffffffffffffffffffffffffffffffffffffffff167fddf252ad1be2c89b69c2b068fc378daa952ba7f163c4a11628f55a4df523b3ef60405160405180910390a4809150509392505050565b6113c1611185565b73ffffffffffffffffffffffffffffffffffffffff166113df6109fb565b73ffffffffffffffffffffffffffffffffffffffff161461143e57611402611185565b6040517f118cdaa7000000000000000000000000000000000000000000000000000000008152600401611435919061239f565b60405180910390fd5b565b6000600760009054906101000a900473ffffffffffffffffffffffffffffffffffffffff16905081600760006101000a81548173ffffffffffffffffffffffffffffffffffffffff021916908373ffffffffffffffffffffffffffffffffffffffff1602179055508173ffffffffffffffffffffffffffffffffffffffff168173ffffffffffffffffffffffffffffffffffffffff167f8be0079c531659141344cd1fd0a4f28419497f9722a3daafe3b4186f6b6457e060405160405180910390a35050565b600073ffffffffffffffffffffffffffffffffffffffff168273ffffffffffffffffffffffffffffffffffffffff160361157757816040517f5b08ba1800000000000000000000000000000000000000000000000000000000815260040161156e919061239f565b60405180910390fd5b80600560008573ffffffffffffffffffffffffffffffffffffffff1673ffffffffffffffffffffffffffffffffffffffff16815260200190815260200160002060008473ffffffffffffffffffffffffffffffffffffffff1673ffffffffffffffffffffffffffffffffffffffff16815260200190815260200160002060006101000a81548160ff0219169083151502179055508173ffffffffffffffffffffffffffffffffffffffff168373ffffffffffffffffffffffffffffffffffffffff167f17307eab39ab6107e8899845ad3d59bd9653f200f220920489ca2b5937696c3183604051611668919061222e565b60405180910390a3505050565b60008373ffffffffffffffffffffffffffffffffffffffff163b111561181f578273ffffffffffffffffffffffffffffffffffffffff1663150b7a02868685856040518563ffffffff1660e01b81526004016116d49493929190612a5f565b6020604051808303816000875af192505050801561171057506040513d601f19601f8201168201806040525081019061170d9190612ac0565b60015b611794573d8060008114611740576040519150601f19603f3d011682016040523d82523d6000602084013e611745565b606091505b50600081510361178c57836040517f64a0ae92000000000000000000000000000000000000000000000000000000008152600401611783919061239f565b60405180910390fd5b805181602001fd5b63150b7a0260e01b7bffffffffffffffffffffffffffffffffffffffffffffffffffffffff1916817bffffffffffffffffffffffffffffffffffffffffffffffffffffffff19161461181d57836040517f64a0ae92000000000000000000000000000000000000000000000000000000008152600401611814919061239f565b60405180910390fd5b505b5050505050565b606060405180602001604052806000815250905090565b6060611848826110c0565b506000611853611826565b90506000815111611873576040518060200160405280600081525061189e565b8061187d84611e98565b60405160200161188e92919061293b565b6040516020818303038152906040525b915050919050565b600073ffffffffffffffffffffffffffffffffffffffff168273ffffffffffffffffffffffffffffffffffffffff16036119185760006040517f64a0ae9200000000000000000000000000000000000000000000000000000000815260040161190f919061239f565b60405180910390fd5b60006119268383600061119f565b9050600073ffffffffffffffffffffffffffffffffffffffff168173ffffffffffffffffffffffffffffffffffffffff161461199a5760006040517f73c6ac6e000000000000000000000000000000000000000000000000000000008152600401611991919061239f565b60405180910390fd5b505050565b806006600084815260200190815260200160002090816119bf9190612c99565b507ff8e1a15aba9398e019f0b49df1a4fde98ee17ae345cb5f6b5e2c27f5033e8ce7826040516119ef91906124bf565b60405180910390a15050565b600073ffffffffffffffffffffffffffffffffffffffff168273ffffffffffffffffffffffffffffffffffffffff1603611a6d5760006040517f64a0ae92000000000000000000000000000000000000000000000000000000008152600401611a64919061239f565b60405180910390fd5b6000611a7b8383600061119f565b9050600073ffffffffffffffffffffffffffffffffffffffff168173ffffffffffffffffffffffffffffffffffffffff1603611aee57816040517f7e273289000000000000000000000000000000000000000000000000000000008152600401611ae591906124bf565b60405180910390fd5b8373ffffffffffffffffffffffffffffffffffffffff168173ffffffffffffffffffffffffffffffffffffffff1614611b62578382826040517f64283d7b000000000000000000000000000000000000000000000000000000008152600401611b59939291906128c8565b60405180910390fd5b50505050565b60007f01ffc9a7000000000000000000000000000000000000000000000000000000007bffffffffffffffffffffffffffffffffffffffffffffffffffffffff1916827bffffffffffffffffffffffffffffffffffffffffffffffffffffffff1916149050919050565b60006002600083815260200190815260200160002060009054906101000a900473ffffffffffffffffffffffffffffffffffffffff169050919050565b8080611c485750600073ffffffffffffffffffffffffffffffffffffffff168273ffffffffffffffffffffffffffffffffffffffff1614155b15611d7c576000611c58846110c0565b9050600073ffffffffffffffffffffffffffffffffffffffff168373ffffffffffffffffffffffffffffffffffffffff1614158015611cc357508273ffffffffffffffffffffffffffffffffffffffff168173ffffffffffffffffffffffffffffffffffffffff1614155b8015611cd65750611cd48184610e7b565b155b15611d1857826040517fa9fbf51f000000000000000000000000000000000000000000000000000000008152600401611d0f919061239f565b60405180910390fd5b8115611d7a57838573ffffffffffffffffffffffffffffffffffffffff168273ffffffffffffffffffffffffffffffffffffffff167f8c5be1e5ebec7d5bd14f71427d1e84f3dd0314c0f7b2291e5b200ac8c7c3b92560405160405180910390a45b505b836004600085815260200190815260200160002060006101000a81548173ffffffffffffffffffffffffffffffffffffffff021916908373ffffffffffffffffffffffffffffffffffffffff16021790555050505050565b611ddf838383611f66565b611e9357600073ffffffffffffffffffffffffffffffffffffffff168373ffffffffffffffffffffffffffffffffffffffff1603611e5457806040517f7e273289000000000000000000000000000000000000000000000000000000008152600401611e4b91906124bf565b60405180910390fd5b81816040517f177e802f000000000000000000000000000000000000000000000000000000008152600401611e8a929190612d6b565b60405180910390fd5b505050565b606060006001611ea784612027565b01905060008167ffffffffffffffff811115611ec657611ec561257d565b5b6040519080825280601f01601f191660200182016040528015611ef85781602001600182028036833780820191505090505b509050600082602001820190505b600115611f5b578080600190039150507f3031323334353637383961626364656600000000000000000000000000000000600a86061a8153600a8581611f4f57611f4e612d94565b5b04945060008503611f06575b819350505050919050565b60008073ffffffffffffffffffffffffffffffffffffffff168373ffffffffffffffffffffffffffffffffffffffff161415801561201e57508273ffffffffffffffffffffffffffffffffffffffff168473ffffffffffffffffffffffffffffffffffffffff161480611fdf5750611fde8484610e7b565b5b8061201d57508273ffffffffffffffffffffffffffffffffffffffff1661200583611148565b73ffffffffffffffffffffffffffffffffffffffff16145b5b90509392505050565b600080600090507a184f03e93ff9f4daa797ed6e38ed64bf6a1f0100000000000000008310612085577a184f03e93ff9f4daa797ed6e38ed64bf6a1f010000000000000000838161207b5761207a612d94565b5b0492506040810190505b6d04ee2d6d415b85acef810000000083106120c2576d04ee2d6d415b85acef810000000083816120b8576120b7612d94565b5b0492506020810190505b662386f26fc1000083106120f157662386f26fc1000083816120e7576120e6612d94565b5b0492506010810190505b6305f5e100831061211a576305f5e10083816121105761210f612d94565b5b0492506008810190505b612710831061213f57612710838161213557612134612d94565b5b0492506004810190505b60648310612162576064838161215857612157612d94565b5b0492506002810190505b600a8310612171576001810190505b80915050919050565b6000604051905090565b600080fd5b600080fd5b60007fffffffff0000000000000000000000000000000000000000000000000000000082169050919050565b6121c38161218e565b81146121ce57600080fd5b50565b6000813590506121e0816121ba565b92915050565b6000602082840312156121fc576121fb612184565b5b600061220a848285016121d1565b91505092915050565b60008115159050919050565b61222881612213565b82525050565b6000602082019050612243600083018461221f565b92915050565b600081519050919050565b600082825260208201905092915050565b60005b83811015612283578082015181840152602081019050612268565b60008484015250505050565b6000601f19601f8301169050919050565b60006122ab82612249565b6122b58185612254565b93506122c5818560208601612265565b6122ce8161228f565b840191505092915050565b600060208201905081810360008301526122f381846122a0565b905092915050565b6000819050919050565b61230e816122fb565b811461231957600080fd5b50565b60008135905061232b81612305565b92915050565b60006020828403121561234757612346612184565b5b60006123558482850161231c565b91505092915050565b600073ffffffffffffffffffffffffffffffffffffffff82169050919050565b60006123898261235e565b9050919050565b6123998161237e565b82525050565b60006020820190506123b46000830184612390565b92915050565b6123c38161237e565b81146123ce57600080fd5b50565b6000813590506123e0816123ba565b92915050565b600080604083850312156123fd576123fc612184565b5b600061240b858286016123d1565b925050602061241c8582860161231c565b9150509250929050565b61242f816122fb565b82525050565b600060608201905061244a6000830186612390565b6124576020830185612426565b612464604083018461221f565b949350505050565b60008060006060848603121561248557612484612184565b5b6000612493868287016123d1565b93505060206124a4868287016123d1565b92505060406124b58682870161231c565b9150509250925092565b60006020820190506124d46000830184612426565b92915050565b6000602082840312156124f0576124ef612184565b5b60006124fe848285016123d1565b91505092915050565b61251081612213565b811461251b57600080fd5b50565b60008135905061252d81612507565b92915050565b6000806040838503121561254a57612549612184565b5b6000612558858286016123d1565b92505060206125698582860161251e565b9150509250929050565b600080fd5b600080fd5b7f4e487b7100000000000000000000000000000000000000000000000000000000600052604160045260246000fd5b6125b58261228f565b810181811067ffffffffffffffff821117156125d4576125d361257d565b5b80604052505050565b60006125e761217a565b90506125f382826125ac565b919050565b600067ffffffffffffffff8211156126135761261261257d565b5b61261c8261228f565b9050602081019050919050565b82818337600083830152505050565b600061264b612646846125f8565b6125dd565b90508281526020810184848401111561266757612666612578565b5b612672848285612629565b509392505050565b600082601f83011261268f5761268e612573565b5b813561269f848260208601612638565b91505092915050565b600080600080608085870312156126c2576126c1612184565b5b60006126d0878288016123d1565b94505060206126e1878288016123d1565b93505060406126f28782880161231c565b925050606085013567ffffffffffffffff81111561271357612712612189565b5b61271f8782880161267a565b91505092959194509250565b600067ffffffffffffffff8211156127465761274561257d565b5b61274f8261228f565b9050602081019050919050565b600061276f61276a8461272b565b6125dd565b90508281526020810184848401111561278b5761278a612578565b5b612796848285612629565b509392505050565b600082601f8301126127b3576127b2612573565b5b81356127c384826020860161275c565b91505092915050565b600080604083850312156127e3576127e2612184565b5b600083013567ffffffffffffffff81111561280157612800612189565b5b61280d8582860161279e565b925050602061281e8582860161231c565b9150509250929050565b6000806040838503121561283f5761283e612184565b5b600061284d858286016123d1565b925050602061285e858286016123d1565b9150509250929050565b7f4e487b7100000000000000000000000000000000000000000000000000000000600052602260045260246000fd5b600060028204905060018216806128af57607f821691505b6020821081036128c2576128c1612868565b5b50919050565b60006060820190506128dd6000830186612390565b6128ea6020830185612426565b6128f76040830184612390565b949350505050565b600081905092915050565b600061291582612249565b61291f81856128ff565b935061292f818560208601612265565b80840191505092915050565b6000612947828561290a565b9150612953828461290a565b91508190509392505050565b7f4e487b7100000000000000000000000000000000000000000000000000000000600052601160045260246000fd5b6000612999826122fb565b91507fffffffffffffffffffffffffffffffffffffffffffffffffffffffffffffffff82036129cb576129ca61295f565b5b600182019050919050565b60006129e1826122fb565b91506129ec836122fb565b9250828201905080821115612a0457612a0361295f565b5b92915050565b600081519050919050565b600082825260208201905092915050565b6000612a3182612a0a565b612a3b8185612a15565b9350612a4b818560208601612265565b612a548161228f565b840191505092915050565b6000608082019050612a746000830187612390565b612a816020830186612390565b612a8e6040830185612426565b8181036060830152612aa08184612a26565b905095945050505050565b600081519050612aba816121ba565b92915050565b600060208284031215612ad657612ad5612184565b5b6000612ae484828501612aab565b91505092915050565b60008190508160005260206000209050919050565b60006020601f8301049050919050565b600082821b905092915050565b600060088302612b4f7fffffffffffffffffffffffffffffffffffffffffffffffffffffffffffffffff82612b12565b612b598683612b12565b95508019841693508086168417925050509392505050565b6000819050919050565b6000612b96612b91612b8c846122fb565b612b71565b6122fb565b9050919050565b6000819050919050565b612bb083612b7b565b612bc4612bbc82612b9d565b848454612b1f565b825550505050565b600090565b612bd9612bcc565b612be4818484612ba7565b505050565b5b81811015612c0857612bfd600082612bd1565b600181019050612bea565b5050565b601f821115612c4d57612c1e81612aed565b612c2784612b02565b81016020851015612c36578190505b612c4a612c4285612b02565b830182612be9565b50505b505050565b600082821c905092915050565b6000612c7060001984600802612c52565b1980831691505092915050565b6000612c898383612c5f565b9150826002028217905092915050565b612ca282612249565b67ffffffffffffffff811115612cbb57612cba61257d565b5b612cc58254612897565b612cd0828285612c0c565b600060209050601f831160018114612d035760008415612cf1578287015190505b612cfb8582612c7d565b865550612d63565b601f198416612d1186612aed565b60005b82811015612d3957848901518255600182019150602085019450602081019050612d14565b86831015612d565784890151612d52601f891682612c5f565b8355505b6001600288020188555050505b505050505050565b6000604082019050612d806000830185612390565b612d8d6020830184612426565b9392505050565b7f4e487b7100000000000000000000000000000000000000000000000000000000600052601260045260246000fdfea264697066735822122023bcdd327819d2f507ca121eb46e05aa704bbc4a93d5b482f48f448d90f1406364736f6c634300081c0033",
  "linkReferences": {},
  "deployedLinkReferences": {}
}