{
  "_format": "hh-sol-artifact-1",
  "contractName": "TokenTreasure2025",
  "sourceName": "contracts/marketplace.sol",
  "abi": [
    {
      "inputs": [],
      "stateMutability": "nonpayable",
      "type": "constructor"
    },
    {
      "inputs": [
        {
          "internalType": "address",
          "name": "sender",
          "type": "address"
        },
        {
          "internalType": "uint256",
          "name": "tokenId",
          "type": "uint256"
        },
        {
          "internalType": "address",
          "name": "owner",
          "type": "address"
        }
      ],
      "name": "ERC721IncorrectOwner",
      "type": "error"
    },
    {
      "inputs": [
        {
          "internalType": "address",
          "name": "operator",
          "type": "address"
        },
        {
          "internalType": "uint256",
          "name": "tokenId",
          "type": "uint256"
        }
      ],
      "name": "ERC721InsufficientApproval",
      "type": "error"
    },
    {
      "inputs": [
        {
          "internalType": "address",
          "name": "approver",
          "type": "address"
        }
      ],
      "name": "ERC721InvalidApprover",
      "type": "error"
    },
    {
      "inputs": [
        {
          "internalType": "address",
          "name": "operator",
          "type": "address"
        }
      ],
      "name": "ERC721InvalidOperator",
      "type": "error"
    },
    {
      "inputs": [
        {
          "internalType": "address",
          "name": "owner",
          "type": "address"
        }
      ],
      "name": "ERC721InvalidOwner",
      "type": "error"
    },
    {
      "inputs": [
        {
          "internalType": "address",
          "name": "receiver",
          "type": "address"
        }
      ],
      "name": "ERC721InvalidReceiver",
      "type": "error"
    },
    {
      "inputs": [
        {
          "internalType": "address",
          "name": "sender",
          "type": "address"
        }
      ],
      "name": "ERC721InvalidSender",
      "type": "error"
    },
    {
      "inputs": [
        {
          "internalType": "uint256",
          "name": "tokenId",
          "type": "uint256"
        }
      ],
      "name": "ERC721NonexistentToken",
      "type": "error"
    },
    {
      "inputs": [
        {
          "internalType": "address",
          "name": "owner",
          "type": "address"
        }
      ],
      "name": "OwnableInvalidOwner",
      "type": "error"
    },
    {
      "inputs": [
        {
          "internalType": "address",
          "name": "account",
          "type": "address"
        }
      ],
      "name": "OwnableUnauthorizedAccount",
      "type": "error"
    },
    {
      "anonymous": false,
      "inputs": [
        {
          "indexed": true,
          "internalType": "address",
          "name": "owner",
          "type": "address"
        },
        {
          "indexed": true,
          "internalType": "address",
          "name": "approved",
          "type": "address"
        },
        {
          "indexed": true,
          "internalType": "uint256",
          "name": "tokenId",
          "type": "uint256"
        }
      ],
      "name": "Approval",
      "type": "event"
    },
    {
      "anonymous": false,
      "inputs": [
        {
          "indexed": true,
          "internalType": "address",
          "name": "owner",
          "type": "address"
        },
        {
          "indexed": true,
          "internalType": "address",
          "name": "operator",
          "type": "address"
        },
        {
          "indexed": false,
          "internalType": "bool",
          "name": "approved",
          "type": "bool"
        }
      ],
      "name": "ApprovalForAll",
      "type": "event"
    },
    {
      "anonymous": false,
      "inputs": [
        {
          "indexed": true,
          "internalType": "uint256",
          "name": "tokenId",
          "type": "uint256"
        },
        {
          "indexed": false,
          "internalType": "address",
          "name": "owner",
          "type": "address"
        },
        {
          "indexed": false,
          "internalType": "uint96",
          "name": "price",
          "type": "uint96"
        }
      ],
      "name": "ItemListed",
      "type": "event"
    },
    {
      "anonymous": false,
      "inputs": [
        {
          "indexed": true,
          "internalType": "uint256",
          "name": "tokenId",
          "type": "uint256"
        },
        {
          "indexed": false,
          "internalType": "address",
          "name": "buyer",
          "type": "address"
        }
      ],
      "name": "ItemSold",
      "type": "event"
    },
    {
      "anonymous": false,
      "inputs": [
        {
          "indexed": true,
          "internalType": "address",
          "name": "previousOwner",
          "type": "address"
        },
        {
          "indexed": true,
          "internalType": "address",
          "name": "newOwner",
          "type": "address"
        }
      ],
      "name": "OwnershipTransferred",
      "type": "event"
    },
    {
      "anonymous": false,
      "inputs": [
        {
          "indexed": true,
          "internalType": "address",
          "name": "from",
          "type": "address"
        },
        {
          "indexed": true,
          "internalType": "address",
          "name": "to",
          "type": "address"
        },
        {
          "indexed": true,
          "internalType": "uint256",
          "name": "tokenId",
          "type": "uint256"
        }
      ],
      "name": "Transfer",
      "type": "event"
    },
    {
      "inputs": [
        {
          "internalType": "address",
          "name": "to",
          "type": "address"
        },
        {
          "internalType": "uint256",
          "name": "tokenId",
          "type": "uint256"
        }
      ],
      "name": "approve",
      "outputs": [],
      "stateMutability": "nonpayable",
      "type": "function"
    },
    {
      "inputs": [
        {
          "internalType": "address",
          "name": "owner",
          "type": "address"
        }
      ],
      "name": "balanceOf",
      "outputs": [
        {
          "internalType": "uint256",
          "name": "",
          "type": "uint256"
        }
      ],
      "stateMutability": "view",
      "type": "function"
    },
    {
      "inputs": [
        {
          "internalType": "uint256",
          "name": "tokenId",
          "type": "uint256"
        }
      ],
      "name": "buy",
      "outputs": [],
      "stateMutability": "payable",
      "type": "function"
    },
    {
      "inputs": [],
      "name": "getAllListings",
      "outputs": [
        {
          "components": [
            {
              "internalType": "address",
              "name": "owner",
              "type": "address"
            },
            {
              "internalType": "uint96",
              "name": "price",
              "type": "uint96"
            },
            {
              "internalType": "bool",
              "name": "isSold",
              "type": "bool"
            },
            {
              "internalType": "string",
              "name": "uri",
              "type": "string"
            }
          ],
          "internalType": "struct TokenTreasure2025.Listing[]",
          "name": "",
          "type": "tuple[]"
        }
      ],
      "stateMutability": "view",
      "type": "function"
    },
    {
      "inputs": [
        {
          "internalType": "uint256",
          "name": "tokenId",
          "type": "uint256"
        }
      ],
      "name": "getApproved",
      "outputs": [
        {
          "internalType": "address",
          "name": "",
          "type": "address"
        }
      ],
      "stateMutability": "view",
      "type": "function"
    },
    {
      "inputs": [
        {
          "internalType": "uint256",
          "name": "tokenId",
          "type": "uint256"
        }
      ],
      "name": "getListing",
      "outputs": [
        {
          "internalType": "address",
          "name": "",
          "type": "address"
        },
        {
          "internalType": "uint96",
          "name": "",
          "type": "uint96"
        },
        {
          "internalType": "bool",
          "name": "",
          "type": "bool"
        },
        {
          "internalType": "string",
          "name": "",
          "type": "string"
        }
      ],
      "stateMutability": "view",
      "type": "function"
    },
    {
      "inputs": [
        {
          "internalType": "address",
          "name": "owner",
          "type": "address"
        },
        {
          "internalType": "address",
          "name": "operator",
          "type": "address"
        }
      ],
      "name": "isApprovedForAll",
      "outputs": [
        {
          "internalType": "bool",
          "name": "",
          "type": "bool"
        }
      ],
      "stateMutability": "view",
      "type": "function"
    },
    {
      "inputs": [
        {
          "internalType": "uint256",
          "name": "",
          "type": "uint256"
        }
      ],
      "name": "listings",
      "outputs": [
        {
          "internalType": "address",
          "name": "owner",
          "type": "address"
        },
        {
          "internalType": "uint96",
          "name": "price",
          "type": "uint96"
        },
        {
          "internalType": "bool",
          "name": "isSold",
          "type": "bool"
        },
        {
          "internalType": "string",
          "name": "uri",
          "type": "string"
        }
      ],
      "stateMutability": "view",
      "type": "function"
    },
    {
      "inputs": [
        {
          "internalType": "string",
          "name": "_uri",
          "type": "string"
        },
        {
          "internalType": "uint96",
          "name": "_price",
          "type": "uint96"
        }
      ],
      "name": "mintAndList",
      "outputs": [],
      "stateMutability": "nonpayable",
      "type": "function"
    },
    {
      "inputs": [],
      "name": "mintInitialBatch",
      "outputs": [],
      "stateMutability": "nonpayable",
      "type": "function"
    },
    {
      "inputs": [],
      "name": "name",
      "outputs": [
        {
          "internalType": "string",
          "name": "",
          "type": "string"
        }
      ],
      "stateMutability": "view",
      "type": "function"
    },
    {
      "inputs": [],
      "name": "nextTokenId",
      "outputs": [
        {
          "internalType": "uint256",
          "name": "",
          "type": "uint256"
        }
      ],
      "stateMutability": "view",
      "type": "function"
    },
    {
      "inputs": [],
      "name": "owner",
      "outputs": [
        {
          "internalType": "address",
          "name": "",
          "type": "address"
        }
      ],
      "stateMutability": "view",
      "type": "function"
    },
    {
      "inputs": [
        {
          "internalType": "uint256",
          "name": "tokenId",
          "type": "uint256"
        }
      ],
      "name": "ownerOf",
      "outputs": [
        {
          "internalType": "address",
          "name": "",
          "type": "address"
        }
      ],
      "stateMutability": "view",
      "type": "function"
    },
    {
      "inputs": [],
      "name": "renounceOwnership",
      "outputs": [],
      "stateMutability": "nonpayable",
      "type": "function"
    },
    {
      "inputs": [
        {
          "internalType": "address",
          "name": "from",
          "type": "address"
        },
        {
          "internalType": "address",
          "name": "to",
          "type": "address"
        },
        {
          "internalType": "uint256",
          "name": "tokenId",
          "type": "uint256"
        }
      ],
      "name": "safeTransferFrom",
      "outputs": [],
      "stateMutability": "nonpayable",
      "type": "function"
    },
    {
      "inputs": [
        {
          "internalType": "address",
          "name": "from",
          "type": "address"
        },
        {
          "internalType": "address",
          "name": "to",
          "type": "address"
        },
        {
          "internalType": "uint256",
          "name": "tokenId",
          "type": "uint256"
        },
        {
          "internalType": "bytes",
          "name": "data",
          "type": "bytes"
        }
      ],
      "name": "safeTransferFrom",
      "outputs": [],
      "stateMutability": "nonpayable",
      "type": "function"
    },
    {
      "inputs": [
        {
          "internalType": "address",
          "name": "operator",
          "type": "address"
        },
        {
          "internalType": "bool",
          "name": "approved",
          "type": "bool"
        }
      ],
      "name": "setApprovalForAll",
      "outputs": [],
      "stateMutability": "nonpayable",
      "type": "function"
    },
    {
      "inputs": [
        {
          "internalType": "bytes4",
          "name": "interfaceId",
          "type": "bytes4"
        }
      ],
      "name": "supportsInterface",
      "outputs": [
        {
          "internalType": "bool",
          "name": "",
          "type": "bool"
        }
      ],
      "stateMutability": "view",
      "type": "function"
    },
    {
      "inputs": [],
      "name": "symbol",
      "outputs": [
        {
          "internalType": "string",
          "name": "",
          "type": "string"
        }
      ],
      "stateMutability": "view",
      "type": "function"
    },
    {
      "inputs": [
        {
          "internalType": "uint256",
          "name": "tokenId",
          "type": "uint256"
        }
      ],
      "name": "tokenURI",
      "outputs": [
        {
          "internalType": "string",
          "name": "",
          "type": "string"
        }
      ],
      "stateMutability": "view",
      "type": "function"
    },
    {
      "inputs": [
        {
          "internalType": "address",
          "name": "from",
          "type": "address"
        },
        {
          "internalType": "address",
          "name": "to",
          "type": "address"
        },
        {
          "internalType": "uint256",
          "name": "tokenId",
          "type": "uint256"
        }
      ],
      "name": "transferFrom",
      "outputs": [],
      "stateMutability": "nonpayable",
      "type": "function"
    },
    {
      "inputs": [
        {
          "internalType": "address",
          "name": "newOwner",
          "type": "address"
        }
      ],
      "name": "transferOwnership",
      "outputs": [],
      "stateMutability": "nonpayable",
      "type": "function"
    },
    {
      "inputs": [],
      "name": "withdraw",
      "outputs": [],
      "stateMutability": "nonpayable",
      "type": "function"
    }
  ],
  "bytecode": "0x6080604052600160085534801561001557600080fd5b50336040518060400160405280601181526020017f546f6b656e5472656173757265323032350000000000000000000000000000008152506040518060400160405280600481526020017f545452530000000000000000000000000000000000000000000000000000000081525081600090816100929190610442565b5080600190816100a29190610442565b505050600073ffffffffffffffffffffffffffffffffffffffff168173ffffffffffffffffffffffffffffffffffffffff16036101175760006040517f1e4fbdf700000000000000000000000000000000000000000000000000000000815260040161010e9190610555565b60405180910390fd5b6101268161012c60201b60201c565b50610570565b6000600660009054906101000a900473ffffffffffffffffffffffffffffffffffffffff16905081600660006101000a81548173ffffffffffffffffffffffffffffffffffffffff021916908373ffffffffffffffffffffffffffffffffffffffff1602179055508173ffffffffffffffffffffffffffffffffffffffff168173ffffffffffffffffffffffffffffffffffffffff167f8be0079c531659141344cd1fd0a4f28419497f9722a3daafe3b4186f6b6457e060405160405180910390a35050565b600081519050919050565b7f4e487b7100000000000000000000000000000000000000000000000000000000600052604160045260246000fd5b7f4e487b7100000000000000000000000000000000000000000000000000000000600052602260045260246000fd5b6000600282049050600182168061027357607f821691505b6020821081036102865761028561022c565b5b50919050565b60008190508160005260206000209050919050565b60006020601f8301049050919050565b600082821b905092915050565b6000600883026102ee7fffffffffffffffffffffffffffffffffffffffffffffffffffffffffffffffff826102b1565b6102f886836102b1565b95508019841693508086168417925050509392505050565b6000819050919050565b6000819050919050565b600061033f61033a61033584610310565b61031a565b610310565b9050919050565b6000819050919050565b61035983610324565b61036d61036582610346565b8484546102be565b825550505050565b600090565b610382610375565b61038d818484610350565b505050565b5b818110156103b1576103a660008261037a565b600181019050610393565b5050565b601f8211156103f6576103c78161028c565b6103d0846102a1565b810160208510156103df578190505b6103f36103eb856102a1565b830182610392565b50505b505050565b600082821c905092915050565b6000610419600019846008026103fb565b1980831691505092915050565b60006104328383610408565b9150826002028217905092915050565b61044b826101f2565b67ffffffffffffffff811115610464576104636101fd565b5b61046e825461025b565b6104798282856103b5565b600060209050601f8311600181146104ac576000841561049a578287015190505b6104a48582610426565b86555061050c565b601f1984166104ba8661028c565b60005b828110156104e2578489015182556001820191506020850194506020810190506104bd565b868310156104ff57848901516104fb601f891682610408565b8355505b6001600288020188555050505b505050505050565b600073ffffffffffffffffffffffffffffffffffffffff82169050919050565b600061053f82610514565b9050919050565b61054f81610534565b82525050565b600060208201905061056a6000830184610546565b92915050565b61371b8061057f6000396000f3fe60806040526004361061014b5760003560e01c806375794a3c116100b6578063b88d4fde1161006f578063b88d4fde1461046d578063c87b56dd14610496578063d96a094a146104d3578063de74e57b146104ef578063e985e9c51461052f578063f2fde38b1461056c5761014b565b806375794a3c146103815780638da5cb5b146103ac57806395d89b41146103d75780639a59091814610402578063a22cb46514610419578063ae73ccec146104425761014b565b80633ccfd60b116101085780633ccfd60b1461028757806342842e0e1461029e5780636352211e146102c757806370a0823114610304578063715018a61461034157806372623274146103585761014b565b806301ffc9a71461015057806306fdde031461018d578063081812fc146101b8578063095ea7b3146101f5578063107a274a1461021e57806323b872dd1461025e575b600080fd5b34801561015c57600080fd5b50610177600480360381019061017291906126cd565b610595565b6040516101849190612715565b60405180910390f35b34801561019957600080fd5b506101a2610677565b6040516101af91906127c0565b60405180910390f35b3480156101c457600080fd5b506101df60048036038101906101da9190612818565b610709565b6040516101ec9190612886565b60405180910390f35b34801561020157600080fd5b5061021c600480360381019061021791906128cd565b610725565b005b34801561022a57600080fd5b5061024560048036038101906102409190612818565b61073b565b6040516102559493929190612934565b60405180910390f35b34801561026a57600080fd5b5061028560048036038101906102809190612980565b6108c9565b005b34801561029357600080fd5b5061029c6109cb565b005b3480156102aa57600080fd5b506102c560048036038101906102c09190612980565b610a23565b005b3480156102d357600080fd5b506102ee60048036038101906102e99190612818565b610a43565b6040516102fb9190612886565b60405180910390f35b34801561031057600080fd5b5061032b600480360381019061032691906129d3565b610a55565b6040516103389190612a0f565b60405180910390f35b34801561034d57600080fd5b50610356610b0f565b005b34801561036457600080fd5b5061037f600480360381019061037a9190612b8b565b610b23565b005b34801561038d57600080fd5b50610396610c99565b6040516103a39190612a0f565b60405180910390f35b3480156103b857600080fd5b506103c1610c9f565b6040516103ce9190612886565b60405180910390f35b3480156103e357600080fd5b506103ec610cc9565b6040516103f991906127c0565b60405180910390f35b34801561040e57600080fd5b50610417610d5b565b005b34801561042557600080fd5b50610440600480360381019061043b9190612c13565b610f41565b005b34801561044e57600080fd5b50610457610f57565b6040516104649190612def565b60405180910390f35b34801561047957600080fd5b50610494600480360381019061048f9190612eb2565b61116e565b005b3480156104a257600080fd5b506104bd60048036038101906104b89190612818565b611193565b6040516104ca91906127c0565b60405180910390f35b6104ed60048036038101906104e89190612818565b6111fc565b005b3480156104fb57600080fd5b5061051660048036038101906105119190612818565b6113c5565b6040516105269493929190612934565b60405180910390f35b34801561053b57600080fd5b5061055660048036038101906105519190612f35565b6114c2565b6040516105639190612715565b60405180910390f35b34801561057857600080fd5b50610593600480360381019061058e91906129d3565b611556565b005b60007f80ac58cd000000000000000000000000000000000000000000000000000000007bffffffffffffffffffffffffffffffffffffffffffffffffffffffff1916827bffffffffffffffffffffffffffffffffffffffffffffffffffffffff1916148061066057507f5b5e139f000000000000000000000000000000000000000000000000000000007bffffffffffffffffffffffffffffffffffffffffffffffffffffffff1916827bffffffffffffffffffffffffffffffffffffffffffffffffffffffff1916145b80610670575061066f826115dc565b5b9050919050565b60606000805461068690612fa4565b80601f01602080910402602001604051908101604052809291908181526020018280546106b290612fa4565b80156106ff5780601f106106d4576101008083540402835291602001916106ff565b820191906000526020600020905b8154815290600101906020018083116106e257829003601f168201915b5050505050905090565b600061071482611646565b5061071e826116ce565b9050919050565b610737828261073261170b565b611713565b5050565b600080600060606000600760008781526020019081526020016000206040518060800160405290816000820160009054906101000a900473ffffffffffffffffffffffffffffffffffffffff1673ffffffffffffffffffffffffffffffffffffffff1673ffffffffffffffffffffffffffffffffffffffff1681526020016000820160149054906101000a90046bffffffffffffffffffffffff166bffffffffffffffffffffffff166bffffffffffffffffffffffff1681526020016001820160009054906101000a900460ff1615151515815260200160028201805461082190612fa4565b80601f016020809104026020016040519081016040528092919081815260200182805461084d90612fa4565b801561089a5780601f1061086f5761010080835404028352916020019161089a565b820191906000526020600020905b81548152906001019060200180831161087d57829003601f168201915b505050505081525050905080600001518160200151826040015183606001519450945094509450509193509193565b600073ffffffffffffffffffffffffffffffffffffffff168273ffffffffffffffffffffffffffffffffffffffff160361093b5760006040517f64a0ae920000000000000000000000000000000000000000000000000000000081526004016109329190612886565b60405180910390fd5b600061094f838361094a61170b565b611725565b90508373ffffffffffffffffffffffffffffffffffffffff168173ffffffffffffffffffffffffffffffffffffffff16146109c5578382826040517f64283d7b0000000000000000000000000000000000000000000000000000000081526004016109bc93929190612fd5565b60405180910390fd5b50505050565b6109d361193f565b6109db610c9f565b73ffffffffffffffffffffffffffffffffffffffff166108fc479081150290604051600060405180830381858888f19350505050158015610a20573d6000803e3d6000fd5b50565b610a3e8383836040518060200160405280600081525061116e565b505050565b6000610a4e82611646565b9050919050565b60008073ffffffffffffffffffffffffffffffffffffffff168273ffffffffffffffffffffffffffffffffffffffff1603610ac85760006040517f89c62b64000000000000000000000000000000000000000000000000000000008152600401610abf9190612886565b60405180910390fd5b600360008373ffffffffffffffffffffffffffffffffffffffff1673ffffffffffffffffffffffffffffffffffffffff168152602001908152602001600020549050919050565b610b1761193f565b610b2160006119c6565b565b600060086000815480929190610b389061303b565b919050559050610b483382611a8c565b60405180608001604052803373ffffffffffffffffffffffffffffffffffffffff168152602001836bffffffffffffffffffffffff168152602001600015158152602001848152506007600083815260200190815260200160002060008201518160000160006101000a81548173ffffffffffffffffffffffffffffffffffffffff021916908373ffffffffffffffffffffffffffffffffffffffff16021790555060208201518160000160146101000a8154816bffffffffffffffffffffffff02191690836bffffffffffffffffffffffff16021790555060408201518160010160006101000a81548160ff0219169083151502179055506060820151816002019081610c56919061322f565b50905050807f74853d0857487d8ab8813c4ff8c6740981eaa76fc83634f27c8f6b51d90b79d03384604051610c8c929190613301565b60405180910390a2505050565b60085481565b6000600660009054906101000a900473ffffffffffffffffffffffffffffffffffffffff16905090565b606060018054610cd890612fa4565b80601f0160208091040260200160405190810160405280929190818152602001828054610d0490612fa4565b8015610d515780601f10610d2657610100808354040283529160200191610d51565b820191906000526020600020905b815481529060010190602001808311610d3457829003601f168201915b5050505050905090565b610d6361193f565b60005b600a811015610f3e57600060086000815480929190610d849061303b565b919050559050610d9b610d95610c9f565b82611a8c565b6000610da683611aaa565b604051602001610db691906133b2565b60405160208183030381529060405290506040518060800160405280610dda610c9f565b73ffffffffffffffffffffffffffffffffffffffff168152602001662386f26fc100006bffffffffffffffffffffffff168152602001600015158152602001828152506007600084815260200190815260200160002060008201518160000160006101000a81548173ffffffffffffffffffffffffffffffffffffffff021916908373ffffffffffffffffffffffffffffffffffffffff16021790555060208201518160000160146101000a8154816bffffffffffffffffffffffff02191690836bffffffffffffffffffffffff16021790555060408201518160010160006101000a81548160ff0219169083151502179055506060820151816002019081610ee3919061322f565b50905050817f74853d0857487d8ab8813c4ff8c6740981eaa76fc83634f27c8f6b51d90b79d0610f11610c9f565b662386f26fc10000604051610f27929190613422565b60405180910390a250508080600101915050610d66565b50565b610f53610f4c61170b565b8383611b78565b5050565b606060006001600854610f6a919061344b565b67ffffffffffffffff811115610f8357610f82612a34565b5b604051908082528060200260200182016040528015610fbc57816020015b610fa9612613565b815260200190600190039081610fa15790505b5090506000600190505b60085481101561116657600760008281526020019081526020016000206040518060800160405290816000820160009054906101000a900473ffffffffffffffffffffffffffffffffffffffff1673ffffffffffffffffffffffffffffffffffffffff1673ffffffffffffffffffffffffffffffffffffffff1681526020016000820160149054906101000a90046bffffffffffffffffffffffff166bffffffffffffffffffffffff166bffffffffffffffffffffffff1681526020016001820160009054906101000a900460ff161515151581526020016002820180546110ad90612fa4565b80601f01602080910402602001604051908101604052809291908181526020018280546110d990612fa4565b80156111265780601f106110fb57610100808354040283529160200191611126565b820191906000526020600020905b81548152906001019060200180831161110957829003601f168201915b5050505050815250508260018361113d919061344b565b8151811061114e5761114d61347f565b5b60200260200101819052508080600101915050610fc6565b508091505090565b6111798484846108c9565b61118d61118461170b565b85858585611ce7565b50505050565b606061119e82611646565b5060006111a9611e98565b905060008151116111c957604051806020016040528060008152506111f4565b806111d384611aaa565b6040516020016111e49291906134ae565b6040516020818303038152906040525b915050919050565b60006007600083815260200190815260200160002090508060010160009054906101000a900460ff1615611265576040517f08c379a000000000000000000000000000000000000000000000000000000000815260040161125c9061351e565b60405180910390fd5b8060000160149054906101000a90046bffffffffffffffffffffffff166bffffffffffffffffffffffff163410156112d2576040517f08c379a00000000000000000000000000000000000000000000000000000000081526004016112c99061358a565b60405180910390fd5b60018160010160006101000a81548160ff02191690831515021790555061131e8160000160009054906101000a900473ffffffffffffffffffffffffffffffffffffffff163384611eaf565b8060000160009054906101000a900473ffffffffffffffffffffffffffffffffffffffff1673ffffffffffffffffffffffffffffffffffffffff166108fc349081150290604051600060405180830381858888f19350505050158015611388573d6000803e3d6000fd5b50817f7de4035ced290be6d7724645d43bad448b5d8cc76743ff4da172c2d8e1caa0f5336040516113b99190612886565b60405180910390a25050565b60076020528060005260406000206000915090508060000160009054906101000a900473ffffffffffffffffffffffffffffffffffffffff16908060000160149054906101000a90046bffffffffffffffffffffffff16908060010160009054906101000a900460ff169080600201805461143f90612fa4565b80601f016020809104026020016040519081016040528092919081815260200182805461146b90612fa4565b80156114b85780601f1061148d576101008083540402835291602001916114b8565b820191906000526020600020905b81548152906001019060200180831161149b57829003601f168201915b5050505050905084565b6000600560008473ffffffffffffffffffffffffffffffffffffffff1673ffffffffffffffffffffffffffffffffffffffff16815260200190815260200160002060008373ffffffffffffffffffffffffffffffffffffffff1673ffffffffffffffffffffffffffffffffffffffff16815260200190815260200160002060009054906101000a900460ff16905092915050565b61155e61193f565b600073ffffffffffffffffffffffffffffffffffffffff168173ffffffffffffffffffffffffffffffffffffffff16036115d05760006040517f1e4fbdf70000000000000000000000000000000000000000000000000000000081526004016115c79190612886565b60405180910390fd5b6115d9816119c6565b50565b60007f01ffc9a7000000000000000000000000000000000000000000000000000000007bffffffffffffffffffffffffffffffffffffffffffffffffffffffff1916827bffffffffffffffffffffffffffffffffffffffffffffffffffffffff1916149050919050565b6000806116528361201c565b9050600073ffffffffffffffffffffffffffffffffffffffff168173ffffffffffffffffffffffffffffffffffffffff16036116c557826040517f7e2732890000000000000000000000000000000000000000000000000000000081526004016116bc9190612a0f565b60405180910390fd5b80915050919050565b60006004600083815260200190815260200160002060009054906101000a900473ffffffffffffffffffffffffffffffffffffffff169050919050565b600033905090565b6117208383836001612059565b505050565b6000806117318461201c565b9050600073ffffffffffffffffffffffffffffffffffffffff168373ffffffffffffffffffffffffffffffffffffffff16146117735761177281848661221e565b5b600073ffffffffffffffffffffffffffffffffffffffff168173ffffffffffffffffffffffffffffffffffffffff1614611804576117b5600085600080612059565b6001600360008373ffffffffffffffffffffffffffffffffffffffff1673ffffffffffffffffffffffffffffffffffffffff168152602001908152602001600020600082825403925050819055505b600073ffffffffffffffffffffffffffffffffffffffff168573ffffffffffffffffffffffffffffffffffffffff1614611887576001600360008773ffffffffffffffffffffffffffffffffffffffff1673ffffffffffffffffffffffffffffffffffffffff168152602001908152602001600020600082825401925050819055505b846002600086815260200190815260200160002060006101000a81548173ffffffffffffffffffffffffffffffffffffffff021916908373ffffffffffffffffffffffffffffffffffffffff160217905550838573ffffffffffffffffffffffffffffffffffffffff168273ffffffffffffffffffffffffffffffffffffffff167fddf252ad1be2c89b69c2b068fc378daa952ba7f163c4a11628f55a4df523b3ef60405160405180910390a4809150509392505050565b61194761170b565b73ffffffffffffffffffffffffffffffffffffffff16611965610c9f565b73ffffffffffffffffffffffffffffffffffffffff16146119c45761198861170b565b6040517f118cdaa70000000000000000000000000000000000000000000000000000000081526004016119bb9190612886565b60405180910390fd5b565b6000600660009054906101000a900473ffffffffffffffffffffffffffffffffffffffff16905081600660006101000a81548173ffffffffffffffffffffffffffffffffffffffff021916908373ffffffffffffffffffffffffffffffffffffffff1602179055508173ffffffffffffffffffffffffffffffffffffffff168173ffffffffffffffffffffffffffffffffffffffff167f8be0079c531659141344cd1fd0a4f28419497f9722a3daafe3b4186f6b6457e060405160405180910390a35050565b611aa68282604051806020016040528060008152506122e2565b5050565b606060006001611ab984612306565b01905060008167ffffffffffffffff811115611ad857611ad7612a34565b5b6040519080825280601f01601f191660200182016040528015611b0a5781602001600182028036833780820191505090505b509050600082602001820190505b600115611b6d578080600190039150507f3031323334353637383961626364656600000000000000000000000000000000600a86061a8153600a8581611b6157611b606135aa565b5b04945060008503611b18575b819350505050919050565b600073ffffffffffffffffffffffffffffffffffffffff168273ffffffffffffffffffffffffffffffffffffffff1603611be957816040517f5b08ba18000000000000000000000000000000000000000000000000000000008152600401611be09190612886565b60405180910390fd5b80600560008573ffffffffffffffffffffffffffffffffffffffff1673ffffffffffffffffffffffffffffffffffffffff16815260200190815260200160002060008473ffffffffffffffffffffffffffffffffffffffff1673ffffffffffffffffffffffffffffffffffffffff16815260200190815260200160002060006101000a81548160ff0219169083151502179055508173ffffffffffffffffffffffffffffffffffffffff168373ffffffffffffffffffffffffffffffffffffffff167f17307eab39ab6107e8899845ad3d59bd9653f200f220920489ca2b5937696c3183604051611cda9190612715565b60405180910390a3505050565b60008373ffffffffffffffffffffffffffffffffffffffff163b1115611e91578273ffffffffffffffffffffffffffffffffffffffff1663150b7a02868685856040518563ffffffff1660e01b8152600401611d46949392919061362e565b6020604051808303816000875af1925050508015611d8257506040513d601f19601f82011682018060405250810190611d7f919061368f565b60015b611e06573d8060008114611db2576040519150601f19603f3d011682016040523d82523d6000602084013e611db7565b606091505b506000815103611dfe57836040517f64a0ae92000000000000000000000000000000000000000000000000000000008152600401611df59190612886565b60405180910390fd5b805181602001fd5b63150b7a0260e01b7bffffffffffffffffffffffffffffffffffffffffffffffffffffffff1916817bffffffffffffffffffffffffffffffffffffffffffffffffffffffff191614611e8f57836040517f64a0ae92000000000000000000000000000000000000000000000000000000008152600401611e869190612886565b60405180910390fd5b505b5050505050565b606060405180602001604052806000815250905090565b600073ffffffffffffffffffffffffffffffffffffffff168273ffffffffffffffffffffffffffffffffffffffff1603611f215760006040517f64a0ae92000000000000000000000000000000000000000000000000000000008152600401611f189190612886565b60405180910390fd5b6000611f2f83836000611725565b9050600073ffffffffffffffffffffffffffffffffffffffff168173ffffffffffffffffffffffffffffffffffffffff1603611fa257816040517f7e273289000000000000000000000000000000000000000000000000000000008152600401611f999190612a0f565b60405180910390fd5b8373ffffffffffffffffffffffffffffffffffffffff168173ffffffffffffffffffffffffffffffffffffffff1614612016578382826040517f64283d7b00000000000000000000000000000000000000000000000000000000815260040161200d93929190612fd5565b60405180910390fd5b50505050565b60006002600083815260200190815260200160002060009054906101000a900473ffffffffffffffffffffffffffffffffffffffff169050919050565b80806120925750600073ffffffffffffffffffffffffffffffffffffffff168273ffffffffffffffffffffffffffffffffffffffff1614155b156121c65760006120a284611646565b9050600073ffffffffffffffffffffffffffffffffffffffff168373ffffffffffffffffffffffffffffffffffffffff161415801561210d57508273ffffffffffffffffffffffffffffffffffffffff168173ffffffffffffffffffffffffffffffffffffffff1614155b8015612120575061211e81846114c2565b155b1561216257826040517fa9fbf51f0000000000000000000000000000000000000000000000000000000081526004016121599190612886565b60405180910390fd5b81156121c457838573ffffffffffffffffffffffffffffffffffffffff168273ffffffffffffffffffffffffffffffffffffffff167f8c5be1e5ebec7d5bd14f71427d1e84f3dd0314c0f7b2291e5b200ac8c7c3b92560405160405180910390a45b505b836004600085815260200190815260200160002060006101000a81548173ffffffffffffffffffffffffffffffffffffffff021916908373ffffffffffffffffffffffffffffffffffffffff16021790555050505050565b612229838383612459565b6122dd57600073ffffffffffffffffffffffffffffffffffffffff168373ffffffffffffffffffffffffffffffffffffffff160361229e57806040517f7e2732890000000000000000000000000000000000000000000000000000000081526004016122959190612a0f565b60405180910390fd5b81816040517f177e802f0000000000000000000000000000000000000000000000000000000081526004016122d49291906136bc565b60405180910390fd5b505050565b6122ec838361251a565b6123016122f761170b565b6000858585611ce7565b505050565b600080600090507a184f03e93ff9f4daa797ed6e38ed64bf6a1f0100000000000000008310612364577a184f03e93ff9f4daa797ed6e38ed64bf6a1f010000000000000000838161235a576123596135aa565b5b0492506040810190505b6d04ee2d6d415b85acef810000000083106123a1576d04ee2d6d415b85acef81000000008381612397576123966135aa565b5b0492506020810190505b662386f26fc1000083106123d057662386f26fc1000083816123c6576123c56135aa565b5b0492506010810190505b6305f5e10083106123f9576305f5e10083816123ef576123ee6135aa565b5b0492506008810190505b612710831061241e576127108381612414576124136135aa565b5b0492506004810190505b606483106124415760648381612437576124366135aa565b5b0492506002810190505b600a8310612450576001810190505b80915050919050565b60008073ffffffffffffffffffffffffffffffffffffffff168373ffffffffffffffffffffffffffffffffffffffff161415801561251157508273ffffffffffffffffffffffffffffffffffffffff168473ffffffffffffffffffffffffffffffffffffffff1614806124d257506124d184846114c2565b5b8061251057508273ffffffffffffffffffffffffffffffffffffffff166124f8836116ce565b73ffffffffffffffffffffffffffffffffffffffff16145b5b90509392505050565b600073ffffffffffffffffffffffffffffffffffffffff168273ffffffffffffffffffffffffffffffffffffffff160361258c5760006040517f64a0ae920000000000000000000000000000000000000000000000000000000081526004016125839190612886565b60405180910390fd5b600061259a83836000611725565b9050600073ffffffffffffffffffffffffffffffffffffffff168173ffffffffffffffffffffffffffffffffffffffff161461260e5760006040517f73c6ac6e0000000000000000000000000000000000000000000000000000000081526004016126059190612886565b60405180910390fd5b505050565b6040518060800160405280600073ffffffffffffffffffffffffffffffffffffffff16815260200160006bffffffffffffffffffffffff168152602001600015158152602001606081525090565b6000604051905090565b600080fd5b600080fd5b60007fffffffff0000000000000000000000000000000000000000000000000000000082169050919050565b6126aa81612675565b81146126b557600080fd5b50565b6000813590506126c7816126a1565b92915050565b6000602082840312156126e3576126e261266b565b5b60006126f1848285016126b8565b91505092915050565b60008115159050919050565b61270f816126fa565b82525050565b600060208201905061272a6000830184612706565b92915050565b600081519050919050565b600082825260208201905092915050565b60005b8381101561276a57808201518184015260208101905061274f565b60008484015250505050565b6000601f19601f8301169050919050565b600061279282612730565b61279c818561273b565b93506127ac81856020860161274c565b6127b581612776565b840191505092915050565b600060208201905081810360008301526127da8184612787565b905092915050565b6000819050919050565b6127f5816127e2565b811461280057600080fd5b50565b600081359050612812816127ec565b92915050565b60006020828403121561282e5761282d61266b565b5b600061283c84828501612803565b91505092915050565b600073ffffffffffffffffffffffffffffffffffffffff82169050919050565b600061287082612845565b9050919050565b61288081612865565b82525050565b600060208201905061289b6000830184612877565b92915050565b6128aa81612865565b81146128b557600080fd5b50565b6000813590506128c7816128a1565b92915050565b600080604083850312156128e4576128e361266b565b5b60006128f2858286016128b8565b925050602061290385828601612803565b9150509250929050565b60006bffffffffffffffffffffffff82169050919050565b61292e8161290d565b82525050565b60006080820190506129496000830187612877565b6129566020830186612925565b6129636040830185612706565b81810360608301526129758184612787565b905095945050505050565b6000806000606084860312156129995761299861266b565b5b60006129a7868287016128b8565b93505060206129b8868287016128b8565b92505060406129c986828701612803565b9150509250925092565b6000602082840312156129e9576129e861266b565b5b60006129f7848285016128b8565b91505092915050565b612a09816127e2565b82525050565b6000602082019050612a246000830184612a00565b92915050565b600080fd5b600080fd5b7f4e487b7100000000000000000000000000000000000000000000000000000000600052604160045260246000fd5b612a6c82612776565b810181811067ffffffffffffffff82111715612a8b57612a8a612a34565b5b80604052505050565b6000612a9e612661565b9050612aaa8282612a63565b919050565b600067ffffffffffffffff821115612aca57612ac9612a34565b5b612ad382612776565b9050602081019050919050565b82818337600083830152505050565b6000612b02612afd84612aaf565b612a94565b905082815260208101848484011115612b1e57612b1d612a2f565b5b612b29848285612ae0565b509392505050565b600082601f830112612b4657612b45612a2a565b5b8135612b56848260208601612aef565b91505092915050565b612b688161290d565b8114612b7357600080fd5b50565b600081359050612b8581612b5f565b92915050565b60008060408385031215612ba257612ba161266b565b5b600083013567ffffffffffffffff811115612bc057612bbf612670565b5b612bcc85828601612b31565b9250506020612bdd85828601612b76565b9150509250929050565b612bf0816126fa565b8114612bfb57600080fd5b50565b600081359050612c0d81612be7565b92915050565b60008060408385031215612c2a57612c2961266b565b5b6000612c38858286016128b8565b9250506020612c4985828601612bfe565b9150509250929050565b600081519050919050565b600082825260208201905092915050565b6000819050602082019050919050565b612c8881612865565b82525050565b612c978161290d565b82525050565b612ca6816126fa565b82525050565b600082825260208201905092915050565b6000612cc882612730565b612cd28185612cac565b9350612ce281856020860161274c565b612ceb81612776565b840191505092915050565b6000608083016000830151612d0e6000860182612c7f565b506020830151612d216020860182612c8e565b506040830151612d346040860182612c9d565b5060608301518482036060860152612d4c8282612cbd565b9150508091505092915050565b6000612d658383612cf6565b905092915050565b6000602082019050919050565b6000612d8582612c53565b612d8f8185612c5e565b935083602082028501612da185612c6f565b8060005b85811015612ddd5784840389528151612dbe8582612d59565b9450612dc983612d6d565b925060208a01995050600181019050612da5565b50829750879550505050505092915050565b60006020820190508181036000830152612e098184612d7a565b905092915050565b600067ffffffffffffffff821115612e2c57612e2b612a34565b5b612e3582612776565b9050602081019050919050565b6000612e55612e5084612e11565b612a94565b905082815260208101848484011115612e7157612e70612a2f565b5b612e7c848285612ae0565b509392505050565b600082601f830112612e9957612e98612a2a565b5b8135612ea9848260208601612e42565b91505092915050565b60008060008060808587031215612ecc57612ecb61266b565b5b6000612eda878288016128b8565b9450506020612eeb878288016128b8565b9350506040612efc87828801612803565b925050606085013567ffffffffffffffff811115612f1d57612f1c612670565b5b612f2987828801612e84565b91505092959194509250565b60008060408385031215612f4c57612f4b61266b565b5b6000612f5a858286016128b8565b9250506020612f6b858286016128b8565b9150509250929050565b7f4e487b7100000000000000000000000000000000000000000000000000000000600052602260045260246000fd5b60006002820490506001821680612fbc57607f821691505b602082108103612fcf57612fce612f75565b5b50919050565b6000606082019050612fea6000830186612877565b612ff76020830185612a00565b6130046040830184612877565b949350505050565b7f4e487b7100000000000000000000000000000000000000000000000000000000600052601160045260246000fd5b6000613046826127e2565b91507fffffffffffffffffffffffffffffffffffffffffffffffffffffffffffffffff82036130785761307761300c565b5b600182019050919050565b60008190508160005260206000209050919050565b60006020601f8301049050919050565b600082821b905092915050565b6000600883026130e57fffffffffffffffffffffffffffffffffffffffffffffffffffffffffffffffff826130a8565b6130ef86836130a8565b95508019841693508086168417925050509392505050565b6000819050919050565b600061312c613127613122846127e2565b613107565b6127e2565b9050919050565b6000819050919050565b61314683613111565b61315a61315282613133565b8484546130b5565b825550505050565b600090565b61316f613162565b61317a81848461313d565b505050565b5b8181101561319e57613193600082613167565b600181019050613180565b5050565b601f8211156131e3576131b481613083565b6131bd84613098565b810160208510156131cc578190505b6131e06131d885613098565b83018261317f565b50505b505050565b600082821c905092915050565b6000613206600019846008026131e8565b1980831691505092915050565b600061321f83836131f5565b9150826002028217905092915050565b61323882612730565b67ffffffffffffffff81111561325157613250612a34565b5b61325b8254612fa4565b6132668282856131a2565b600060209050601f8311600181146132995760008415613287578287015190505b6132918582613213565b8655506132f9565b601f1984166132a786613083565b60005b828110156132cf578489015182556001820191506020850194506020810190506132aa565b868310156132ec57848901516132e8601f8916826131f5565b8355505b6001600288020188555050505b505050505050565b60006040820190506133166000830185612877565b6133236020830184612925565b9392505050565b7f68747470733a2f2f70696373756d2e70686f746f732f69642f00000000000000815250565b600081905092915050565b600061336682612730565b6133708185613350565b935061338081856020860161274c565b80840191505092915050565b7f2f3230302f333030000000000000000000000000000000000000000000000000815250565b60006133bd8261332a565b6019820191506133cd828461335b565b91506133d88261338c565b60088201915081905092915050565b6000819050919050565b600061340c613407613402846133e7565b613107565b61290d565b9050919050565b61341c816133f1565b82525050565b60006040820190506134376000830185612877565b6134446020830184613413565b9392505050565b6000613456826127e2565b9150613461836127e2565b92508282039050818111156134795761347861300c565b5b92915050565b7f4e487b7100000000000000000000000000000000000000000000000000000000600052603260045260246000fd5b60006134ba828561335b565b91506134c6828461335b565b91508190509392505050565b7f4e46542079612076656e6469646f000000000000000000000000000000000000600082015250565b6000613508600e8361273b565b9150613513826134d2565b602082019050919050565b60006020820190508181036000830152613537816134fb565b9050919050565b7f466f6e646f7320696e737566696369656e746573000000000000000000000000600082015250565b600061357460148361273b565b915061357f8261353e565b602082019050919050565b600060208201905081810360008301526135a381613567565b9050919050565b7f4e487b7100000000000000000000000000000000000000000000000000000000600052601260045260246000fd5b600081519050919050565b600082825260208201905092915050565b6000613600826135d9565b61360a81856135e4565b935061361a81856020860161274c565b61362381612776565b840191505092915050565b60006080820190506136436000830187612877565b6136506020830186612877565b61365d6040830185612a00565b818103606083015261366f81846135f5565b905095945050505050565b600081519050613689816126a1565b92915050565b6000602082840312156136a5576136a461266b565b5b60006136b38482850161367a565b91505092915050565b60006040820190506136d16000830185612877565b6136de6020830184612a00565b939250505056fea264697066735822122062bb6ae90bc3b09c585bbaf1f33f2c46c312a5717801d9ef176eef976b59ce9764736f6c634300081c0033",
  "linkReferences": {},
  "deployedLinkReferences": {}
}